{
  "contracts/ECommerce.sol": {
    "ECommerce": {
      "abi": [
        {
          "inputs": [
            {
              "internalType": "address",
              "name": "_usdtTokenAddress",
              "type": "address"
            }
          ],
          "stateMutability": "nonpayable",
          "type": "constructor"
        },
        {
          "inputs": [
            {
              "internalType": "address",
              "name": "owner",
              "type": "address"
            }
          ],
          "name": "OwnableInvalidOwner",
          "type": "error"
        },
        {
          "inputs": [
            {
              "internalType": "address",
              "name": "account",
              "type": "address"
            }
          ],
          "name": "OwnableUnauthorizedAccount",
          "type": "error"
        },
        {
          "anonymous": false,
          "inputs": [
            {
              "indexed": true,
              "internalType": "address",
              "name": "previousOwner",
              "type": "address"
            },
            {
              "indexed": true,
              "internalType": "address",
              "name": "newOwner",
              "type": "address"
            }
          ],
          "name": "OwnershipTransferred",
          "type": "event"
        },
        {
          "anonymous": false,
          "inputs": [
            {
              "indexed": false,
              "internalType": "uint256",
              "name": "id",
              "type": "uint256"
            },
            {
              "indexed": false,
              "internalType": "string",
              "name": "name",
              "type": "string"
            },
            {
              "indexed": false,
              "internalType": "uint256",
              "name": "price",
              "type": "uint256"
            },
            {
              "indexed": false,
              "internalType": "address payable",
              "name": "seller",
              "type": "address"
            },
            {
              "indexed": false,
              "internalType": "address payable",
              "name": "buyer",
              "type": "address"
            },
            {
              "indexed": false,
              "internalType": "bool",
              "name": "isSold",
              "type": "bool"
            }
          ],
          "name": "PaymentConfirmed",
          "type": "event"
        },
        {
          "anonymous": false,
          "inputs": [
            {
              "indexed": false,
              "internalType": "uint256",
              "name": "id",
              "type": "uint256"
            },
            {
              "indexed": false,
              "internalType": "string",
              "name": "name",
              "type": "string"
            },
            {
              "indexed": false,
              "internalType": "string",
              "name": "imageUrl",
              "type": "string"
            },
            {
              "indexed": false,
              "internalType": "uint256",
              "name": "price",
              "type": "uint256"
            },
            {
              "indexed": false,
              "internalType": "address payable",
              "name": "seller",
              "type": "address"
            },
            {
              "indexed": false,
              "internalType": "bool",
              "name": "isSold",
              "type": "bool"
            },
            {
              "indexed": false,
              "internalType": "bool",
              "name": "isPaid",
              "type": "bool"
            }
          ],
          "name": "ProductCreated",
          "type": "event"
        },
        {
          "anonymous": false,
          "inputs": [
            {
              "indexed": false,
              "internalType": "uint256",
              "name": "id",
              "type": "uint256"
            },
            {
              "indexed": false,
              "internalType": "string",
              "name": "name",
              "type": "string"
            },
            {
              "indexed": false,
              "internalType": "uint256",
              "name": "price",
              "type": "uint256"
            },
            {
              "indexed": false,
              "internalType": "address payable",
              "name": "seller",
              "type": "address"
            },
            {
              "indexed": false,
              "internalType": "address payable",
              "name": "buyer",
              "type": "address"
            },
            {
              "indexed": false,
              "internalType": "bool",
              "name": "isPaid",
              "type": "bool"
            }
          ],
          "name": "ProductPurchased",
          "type": "event"
        },
        {
          "anonymous": false,
          "inputs": [
            {
              "indexed": true,
              "internalType": "address",
              "name": "sellerAddress",
              "type": "address"
            },
            {
              "indexed": false,
              "internalType": "string",
              "name": "reason",
              "type": "string"
            }
          ],
          "name": "SellerBlocked",
          "type": "event"
        },
        {
          "anonymous": false,
          "inputs": [
            {
              "indexed": true,
              "internalType": "address",
              "name": "sellerAddress",
              "type": "address"
            },
            {
              "indexed": false,
              "internalType": "uint256",
              "name": "rating",
              "type": "uint256"
            }
          ],
          "name": "SellerRated",
          "type": "event"
        },
        {
          "anonymous": false,
          "inputs": [
            {
              "indexed": true,
              "internalType": "address",
              "name": "sellerAddress",
              "type": "address"
            },
            {
              "indexed": false,
              "internalType": "string",
              "name": "name",
              "type": "string"
            },
            {
              "indexed": false,
              "internalType": "string",
              "name": "profileURI",
              "type": "string"
            }
          ],
          "name": "SellerRegistered",
          "type": "event"
        },
        {
          "inputs": [
            {
              "internalType": "address",
              "name": "",
              "type": "address"
            }
          ],
          "name": "blockedSellers",
          "outputs": [
            {
              "internalType": "address",
              "name": "sellerAddress",
              "type": "address"
            },
            {
              "internalType": "string",
              "name": "reason",
              "type": "string"
            }
          ],
          "stateMutability": "view",
          "type": "function"
        },
        {
          "inputs": [
            {
              "internalType": "uint256",
              "name": "",
              "type": "uint256"
            },
            {
              "internalType": "address",
              "name": "",
              "type": "address"
            }
          ],
          "name": "buyerCanceled",
          "outputs": [
            {
              "internalType": "bool",
              "name": "",
              "type": "bool"
            }
          ],
          "stateMutability": "view",
          "type": "function"
        },
        {
          "inputs": [
            {
              "internalType": "uint256",
              "name": "_id",
              "type": "uint256"
            }
          ],
          "name": "cancelPurchase",
          "outputs": [],
          "stateMutability": "nonpayable",
          "type": "function"
        },
        {
          "inputs": [
            {
              "internalType": "uint256",
              "name": "",
              "type": "uint256"
            }
          ],
          "name": "canceledPurchases",
          "outputs": [
            {
              "internalType": "bool",
              "name": "",
              "type": "bool"
            }
          ],
          "stateMutability": "view",
          "type": "function"
        },
        {
          "inputs": [],
          "name": "cancellationPenaltyPercentage",
          "outputs": [
            {
              "internalType": "uint256",
              "name": "",
              "type": "uint256"
            }
          ],
          "stateMutability": "view",
          "type": "function"
        },
        {
          "inputs": [
            {
              "internalType": "uint256",
              "name": "_id",
              "type": "uint256"
            }
          ],
          "name": "confirmPayment",
          "outputs": [],
          "stateMutability": "nonpayable",
          "type": "function"
        },
        {
          "inputs": [
            {
              "internalType": "string",
              "name": "_name",
              "type": "string"
            },
            {
              "internalType": "string",
              "name": "_imageUrl",
              "type": "string"
            },
            {
              "internalType": "uint256",
              "name": "_price",
              "type": "uint256"
            }
          ],
          "name": "createProduct",
          "outputs": [],
          "stateMutability": "nonpayable",
          "type": "function"
        },
        {
          "inputs": [],
          "name": "feePercentage",
          "outputs": [
            {
              "internalType": "uint256",
              "name": "",
              "type": "uint256"
            }
          ],
          "stateMutability": "view",
          "type": "function"
        },
        {
          "inputs": [
            {
              "internalType": "uint256",
              "name": "_id",
              "type": "uint256"
            }
          ],
          "name": "getProduct",
          "outputs": [
            {
              "components": [
                {
                  "internalType": "uint256",
                  "name": "id",
                  "type": "uint256"
                },
                {
                  "internalType": "string",
                  "name": "name",
                  "type": "string"
                },
                {
                  "internalType": "string",
                  "name": "imageUrl",
                  "type": "string"
                },
                {
                  "internalType": "uint256",
                  "name": "price",
                  "type": "uint256"
                },
                {
                  "internalType": "address payable",
                  "name": "seller",
                  "type": "address"
                },
                {
                  "internalType": "bool",
                  "name": "isSold",
                  "type": "bool"
                },
                {
                  "internalType": "bool",
                  "name": "isPaid",
                  "type": "bool"
                },
                {
                  "internalType": "address payable",
                  "name": "buyer",
                  "type": "address"
                }
              ],
              "internalType": "struct ECommerce.Product",
              "name": "",
              "type": "tuple"
            }
          ],
          "stateMutability": "view",
          "type": "function"
        },
        {
          "inputs": [
            {
              "internalType": "uint256",
              "name": "",
              "type": "uint256"
            },
            {
              "internalType": "address",
              "name": "",
              "type": "address"
            }
          ],
          "name": "hasReported",
          "outputs": [
            {
              "internalType": "bool",
              "name": "",
              "type": "bool"
            }
          ],
          "stateMutability": "view",
          "type": "function"
        },
        {
          "inputs": [
            {
              "internalType": "address",
              "name": "",
              "type": "address"
            }
          ],
          "name": "isSellerBlocked",
          "outputs": [
            {
              "internalType": "bool",
              "name": "",
              "type": "bool"
            }
          ],
          "stateMutability": "view",
          "type": "function"
        },
        {
          "inputs": [],
          "name": "owner",
          "outputs": [
            {
              "internalType": "address",
              "name": "",
              "type": "address"
            }
          ],
          "stateMutability": "view",
          "type": "function"
        },
        {
          "inputs": [],
          "name": "penaltyPercentage",
          "outputs": [
            {
              "internalType": "uint256",
              "name": "",
              "type": "uint256"
            }
          ],
          "stateMutability": "view",
          "type": "function"
        },
        {
          "inputs": [],
          "name": "productCount",
          "outputs": [
            {
              "internalType": "uint256",
              "name": "",
              "type": "uint256"
            }
          ],
          "stateMutability": "view",
          "type": "function"
        },
        {
          "inputs": [
            {
              "internalType": "uint256",
              "name": "",
              "type": "uint256"
            }
          ],
          "name": "products",
          "outputs": [
            {
              "internalType": "uint256",
              "name": "id",
              "type": "uint256"
            },
            {
              "internalType": "string",
              "name": "name",
              "type": "string"
            },
            {
              "internalType": "string",
              "name": "imageUrl",
              "type": "string"
            },
            {
              "internalType": "uint256",
              "name": "price",
              "type": "uint256"
            },
            {
              "internalType": "address payable",
              "name": "seller",
              "type": "address"
            },
            {
              "internalType": "bool",
              "name": "isSold",
              "type": "bool"
            },
            {
              "internalType": "bool",
              "name": "isPaid",
              "type": "bool"
            },
            {
              "internalType": "address payable",
              "name": "buyer",
              "type": "address"
            }
          ],
          "stateMutability": "view",
          "type": "function"
        },
        {
          "inputs": [
            {
              "internalType": "uint256",
              "name": "_id",
              "type": "uint256"
            }
          ],
          "name": "purchaseProduct",
          "outputs": [],
          "stateMutability": "nonpayable",
          "type": "function"
        },
        {
          "inputs": [
            {
              "internalType": "address",
              "name": "_seller",
              "type": "address"
            }
          ],
          "name": "rateSeller",
          "outputs": [],
          "stateMutability": "nonpayable",
          "type": "function"
        },
        {
          "inputs": [
            {
              "internalType": "string",
              "name": "_name",
              "type": "string"
            },
            {
              "internalType": "string",
              "name": "_profileURI",
              "type": "string"
            }
          ],
          "name": "registerSeller",
          "outputs": [],
          "stateMutability": "nonpayable",
          "type": "function"
        },
        {
          "inputs": [],
          "name": "renounceOwnership",
          "outputs": [],
          "stateMutability": "nonpayable",
          "type": "function"
        },
        {
          "inputs": [
            {
              "internalType": "uint256",
              "name": "_id",
              "type": "uint256"
            }
          ],
          "name": "reportCanceledPurchase",
          "outputs": [],
          "stateMutability": "nonpayable",
          "type": "function"
        },
        {
          "inputs": [
            {
              "internalType": "address",
              "name": "",
              "type": "address"
            }
          ],
          "name": "sellers",
          "outputs": [
            {
              "internalType": "string",
              "name": "name",
              "type": "string"
            },
            {
              "internalType": "string",
              "name": "profileURI",
              "type": "string"
            },
            {
              "internalType": "uint256",
              "name": "confirmedPurchases",
              "type": "uint256"
            },
            {
              "internalType": "uint256",
              "name": "canceledPurchases",
              "type": "uint256"
            },
            {
              "internalType": "uint256",
              "name": "reportedPurchases",
              "type": "uint256"
            },
            {
              "internalType": "uint256",
              "name": "rating",
              "type": "uint256"
            }
          ],
          "stateMutability": "view",
          "type": "function"
        },
        {
          "inputs": [],
          "name": "totalFeesCollected",
          "outputs": [
            {
              "internalType": "uint256",
              "name": "",
              "type": "uint256"
            }
          ],
          "stateMutability": "view",
          "type": "function"
        },
        {
          "inputs": [
            {
              "internalType": "address",
              "name": "newOwner",
              "type": "address"
            }
          ],
          "name": "transferOwnership",
          "outputs": [],
          "stateMutability": "nonpayable",
          "type": "function"
        },
        {
          "inputs": [],
          "name": "usdtToken",
          "outputs": [
            {
              "internalType": "contract IERC20",
              "name": "",
              "type": "address"
            }
          ],
          "stateMutability": "view",
          "type": "function"
        },
        {
          "inputs": [],
          "name": "withdrawFees",
          "outputs": [],
          "stateMutability": "nonpayable",
          "type": "function"
        }
      ],
      "evm": {
        "bytecode": {
          "linkReferences": {},
          "object": "6080346100eb57601f6123a038819003918201601f19168301916001600160401b038311848410176100f0578084926020946040528339810103126100eb57516001600160a01b038116908190036100eb5733156100d55760008054336001600160a01b0319821681178355604051939290916001600160a01b0316907f8be0079c531659141344cd1fd0a4f28419497f9722a3daafe3b4186f6b6457e09080a360006002556005600a556003600b55600a600c556000600d5560018060a01b0319600154161760015561229990816101078239f35b631e4fbdf760e01b600052600060045260246000fd5b600080fd5b634e487b7160e01b600052604160045260246000fdfe608080604052600436101561001357600080fd5b60003560e01c90816309f5d7ac14611de9575080630f0c3fc414611d9c5780631205de4714611d3357806315908d5114611d15578063318fd93d146118b757806338e76a03146115d3578063476343ee1461154d5780635e00d8561461152f57806360c6d8ae146115115780636d47ab7214611475578063715018a61461141c5780637acc0b201461135d578063876ca09f146111515780638da5cb5b146111285780639833dcfa14610ca0578063a001ecdd14610c82578063a1422209146106d9578063a98ad46c146106b0578063b9db15b414610553578063c3634ddc1461029b578063e0f6ef871461027d578063ec1a9e881461024c578063f2fde38b146101c3578063f6139f03146101765763fd660d681461013257600080fd5b34610171576020366003190112610171576001600160a01b03610153611f42565b166000526006602052602060ff604060002054166040519015158152f35b600080fd5b346101715760403660031901126101715761018f611f58565b600435600052600960205260406000209060018060a01b0316600052602052602060ff604060002054166040519015158152f35b34610171576020366003190112610171576101dc611f42565b6101e461223a565b6001600160a01b0316801561023657600080546001600160a01b03198116831782556001600160a01b0316907f8be0079c531659141344cd1fd0a4f28419497f9722a3daafe3b4186f6b6457e09080a3005b631e4fbdf760e01b600052600060045260246000fd5b34610171576020366003190112610171576004356000526008602052602060ff604060002054166040519015158152f35b34610171576000366003190112610171576020600254604051908152f35b34610171576020366003190112610171576004356000818152600360205260409020600581018054909291906001600160a01b031633036104ff57600481019060ff825460a81c16156104c357600361037e910154602061030b6064610303600c548561220d565b048093612220565b610330610327606461031f600b548761220d565b048095612220565b93600d5461222d565b600d55845460ff60a81b19168555600154875460405163a9059cbb60e01b81526001600160a01b03918216600482015260248101939093529194859290911690829060009082906044820190565b03925af190811561049c576103d6926020926104a8575b50600154845460405163a9059cbb60e01b81526001600160a01b03918216600482015260248101939093529193849290911690829060009082906044820190565b03925af1801561049c5761046f575b50546001600160a01b0316600090815260046020526040902060030180546001810191908210610459575560009081526008602090815260408083208054600160ff1991821681179092556009845282852033865290935292208054909116909117905580546001600160a01b0319169055005b634e487b7160e01b600052601160045260246000fd5b6104909060203d602011610495575b6104888183611fc4565b81019061212f565b6103e5565b503d61047e565b6040513d6000823e3d90fd5b6104be90833d8511610495576104888183611fc4565b610395565b60405162461bcd60e51b8152602060048201526014602482015273283937b23ab1ba103737ba103830b4b2103337b960611b6044820152606490fd5b60405162461bcd60e51b815260206004820152602660248201527f4f6e6c79207468652062757965722063616e2063616e63656c2074686520707560448201526572636861736560d01b6064820152608490fd5b3461017157602036600319011261017157600060e060405161057481611fa8565b82815260606020820152606060408201528260608201528260808201528260a08201528260c08201520152600435600052600360205260406000206040516105bb81611fa8565b815481526105cb60018301611fe5565b91602082019283526105df60028201611fe5565b60408301908152600382015491606084019283526004810154906080850160018060a01b038316815261067960a087019260ff8560a01c161515845260ff60c089019560a81c1615158552600560018060a01b03910154169460e08801958652610666604051998a9960208b525160208b01525161010060408b01526101208a0190612089565b9051888203601f190160608a0152612089565b94516080870152516001600160a01b0390811660a08701529051151560c08601529051151560e08501529051166101008301520390f35b34610171576000366003190112610171576001546040516001600160a01b039091168152602090f35b34610171576060366003190112610171576004356001600160401b038111610171576107099036906004016120ca565b6024356001600160401b038111610171576107289036906004016120ca565b9060443591815115610c3d57805115610bf8578215610ba35733600052600660205260ff60406000205416610b6a5733600052600460205261076e604060002054611f6e565b15610b2d5761077e600254612120565b928360025560405161078f81611fa8565b848152602081019484865260408201958487526060830190848252608084019133835260a08501906000825260c08601926000845260e08701956000875260005260036020526040600020965187556001870190518051906001600160401b038211610a545781906108018454611f6e565b601f8111610ada575b50602090601f8311600114610a7557600092610a6a575b50508160011b916000199060031b1c19161790555b600286019951998a516001600160401b038111610a54576108578254611f6e565b601f8111610a0c575b506020601f821160011461097d5790806005989796959493927f5eac02133e64dfc54cdd55862c17226f0f3fd267b6bb867941e666603f1b8dfc9e600092610972575b50508160011b916000199060031b1c19161790555b5160038701559151600486018054935192516001600160b01b03199094166001600160a01b039283161792151560a01b60ff60a01b169290921792151560a81b60ff60a81b1692909217905590519190920180546001600160a01b0319169190921617905560025460405190815260e0602082018190529093849361095392909161094591860190612089565b908482036040860152612089565b906060830152336080830152600060a0830152600060c08301520390a1005b015190508e806108a3565b601f1982169083600052806000209160005b8181106109f457509183917f5eac02133e64dfc54cdd55862c17226f0f3fd267b6bb867941e666603f1b8dfc9f60059b9a9998979695600195106109db575b505050811b0190556108b8565b015160001960f88460031b161c191690558e80806109ce565b8f83015184556001909301926020928301920161098f565b826000526020600020601f830160051c81019160208410610a4a575b601f0160051c01905b818110610a3e5750610860565b60008155600101610a31565b9091508190610a28565b634e487b7160e01b600052604160045260246000fd5b015190508d80610821565b60008581528281209350601f198516905b818110610ac25750908460019594939210610aa9575b505050811b019055610836565b015160001960f88460031b161c191690558d8080610a9c565b92936020600181928786015181550195019301610a86565b909150836000526020600020601f840160051c81019160208510610b23575b90601f859493920160051c01905b818110610b14575061080a565b60008155849350600101610b07565b9091508190610af9565b60405162461bcd60e51b815260206004820152601560248201527414d95b1b195c881b9bdd081c9959da5cdd195c9959605a1b6044820152606490fd5b60405162461bcd60e51b815260206004820152601160248201527014d95b1b195c881a5cc8189b1bd8dad959607a1b6044820152606490fd5b60405162461bcd60e51b815260206004820152602760248201527f50726f64756374207072696365206d7573742062652067726561746572207468604482015266616e207a65726f60c81b6064820152608490fd5b60405162461bcd60e51b815260206004820152601d60248201527f50726f6475637420696d6167652055524c2069732072657175697265640000006044820152606490fd5b60405162461bcd60e51b815260206004820152601860248201527f50726f64756374206e616d6520697320726571756972656400000000000000006044820152606490fd5b34610171576000366003190112610171576020600a54604051908152f35b3461017157602036600319011261017157600435806000526003602052604060002081600052600860205260ff60406000205416156110e357600082815260096020908152604080832033845290915290205460ff161561109f57600082815260076020908152604080832033845290915290205460ff1661104a576004916000526007602052604060002060018060a01b0333166000526020526040600020600160ff198254161790550160018060a01b0381541660005260046020526004604060002001805490600182018092116104595755546001600160a01b0316600081815260046020819052604090912001546003111580611031575b610da257005b60405190610db1606083611fc4565b602c82527f4d756c7469706c65207265706f7274732077697468206e6f20636f6e6669726d60208301526b65642070757263686173657360a01b604083015280600052600660205260ff60406000205416610fec5760405191604083018381106001600160401b03821117610a54576040908152828452602080850183815260008581526005909252919020935184546001600160a01b0319166001600160a01b03919091161784555180519093600101906001600160401b038111610a5457610e7b8254611f6e565b601f8111610fa4575b506020601f8211600114610f17579080610f079493927fd1ab8ed187c2b3794adb1cc1433a2872e8e959a63970ede2beaec4df3f894bef9697600092610f0c575b50508160011b916000199060031b1c19161790555b8360005260066020526040600020600160ff19825416179055604051918291602083526020830190612089565b0390a2005b015190508780610ec5565b601f1982169583600052816000209660005b818110610f8c5750966001928492610f079796957fd1ab8ed187c2b3794adb1cc1433a2872e8e959a63970ede2beaec4df3f894bef999a10610f73575b505050811b019055610eda565b015160001960f88460031b161c19169055878080610f66565b83830151895560019098019760209384019301610f29565b826000526020600020601f830160051c81019160208410610fe2575b601f0160051c01905b818110610fd65750610e84565b60008155600101610fc9565b9091508190610fc0565b60405162461bcd60e51b815260206004820152601960248201527f53656c6c657220697320616c726561647920626c6f636b6564000000000000006044820152606490fd5b5080600052600460205260026040600020015415610d9c565b60405162461bcd60e51b815260206004820152602760248201527f596f75206861766520616c7265616479207265706f72746564207468697320706044820152667572636861736560c81b6064820152608490fd5b606460405162461bcd60e51b815260206004820152602060248201527f596f7520646964206e6f742063616e63656c20746869732070757263686173656044820152fd5b60405162461bcd60e51b815260206004820152601e60248201527f507572636861736520686173206e6f74206265656e2063616e63656c656400006044820152606490fd5b34610171576000366003190112610171576000546040516001600160a01b039091168152602090f35b346101715760203660031901126101715760043560008181526003602052604090206005810180549091906001600160a01b0316330361130957600481019160ff835460a01c166112c4576003820193611218602086546111c56111bc6064610303600a548561220d565b91600d5461222d565b600d55865460ff60a01b198116600160a01b17885560015460405163a9059cbb60e01b81526001600160a01b03928316600482015260248101939093529193849290911690829060009082906044820190565b03925af1801561049c576112a7575b5060018060a01b0384541660005260046020526002604060002001918254946001860180961161045957949092559354925490546040517f9620b27be3795a0ce7111c8e7168631996e44dd6a5f7cc7234c970605378ccc895909485946112a2946001600160a01b0394851694169260019091019086612147565b0390a1005b6112bf9060203d602011610495576104888183611fc4565b611227565b60405162461bcd60e51b815260206004820152601760248201527f50726f6475637420697320616c726561647920736f6c640000000000000000006044820152606490fd5b60405162461bcd60e51b815260206004820152602660248201527f4f6e6c79207468652062757965722063616e20636f6e6669726d207468652070604482015265185e5b595b9d60d21b6064820152608490fd5b346101715760203660031901126101715760043560005260036020526040600020805461138c60018301611fe5565b9161139960028201611fe5565b60ff6003830154926113e4600482015491600560018060a01b0391015416936113d6604051988998895261010060208a0152610100890190612089565b908782036040890152612089565b60608601949094526001600160a01b038116608086015260a081811c831615159086015260a81c16151560c084015260e08301520390f35b346101715760003660031901126101715761143561223a565b600080546001600160a01b0319811682556001600160a01b03167f8be0079c531659141344cd1fd0a4f28419497f9722a3daafe3b4186f6b6457e08280a3005b34610171576020366003190112610171576001600160a01b03611496611f42565b1660005260046020526114ea60406000206114b081611fe5565b906114bd60018201611fe5565b60028201549160038101546114f8600560048401549301549360405197889760c0895260c0890190612089565b908782036020890152612089565b9360408601526060850152608084015260a08301520390f35b34610171576000366003190112610171576020600d54604051908152f35b34610171576000366003190112610171576020600c54604051908152f35b346101715760003660031901126101715761156661223a565b60015460008054600d5460405163a9059cbb60e01b81526001600160a01b0392831660048201526024810191909152926020928492604492849291165af1801561049c576115b6575b6000600d55005b6115ce9060203d602011610495576104888183611fc4565b6115af565b34610171576020366003190112610171576004358060005260036020526040600020600481019182549260018060a01b03841692805480151590816118aa575b501561186c57600381019160448354602060018060a01b036001541660405193848092636eb1769f60e11b82523360048301523060248301525afa91821561049c57600092611838575b50116117d85760ff8660a81c16611793573385146117425760ff60a81b19909516600160a81b179094556005840180546001600160a01b0319163390811790915560015482546040516323b872dd60e01b815260048101939093523060248401526044830152909490602090869060649082906000906001600160a01b03165af191821561049c577f64f41258f3d51a589cea8504d1f51403f46583535a3e84e2cbe3f8d50674d00b956112a293611725575b50549360405194859460013394019086612147565b61173d9060203d602011610495576104888183611fc4565b611710565b60405162461bcd60e51b815260206004820152602360248201527f53656c6c65722063616e6e6f7420627579207468656972206f776e2070726f646044820152621d58dd60ea1b6064820152608490fd5b60405162461bcd60e51b815260206004820152601b60248201527f50726f6475637420697320616c7265616479207061696420666f7200000000006044820152606490fd5b60405162461bcd60e51b815260206004820152603260248201527f4e6f7420656e6f756768205553445420616c6c6f77616e636520746f2070757260448201527118da185cd9481d1a1a5cc81c1c9bd91d58dd60721b6064820152608490fd5b9091506020813d602011611864575b8161185460209383611fc4565b810103126101715751908861165d565b3d9150611847565b60405162461bcd60e51b8152602060048201526016602482015275141c9bd91d58dd08191bd95cc81b9bdd08195e1a5cdd60521b6044820152606490fd5b9050600254101586611613565b34610171576040366003190112610171576004356001600160401b038111610171576118e79036906004016120ca565b6024356001600160401b038111610171576119069036906004016120ca565b90805115611cd057815115611c8b5733600052600460205261192c604060002054611f6e565b611c465760405160c081018181106001600160401b03821117610a5457604052818152602081018381526040820160008152606083016000815260808401916000835260a085019360008552336000526004602052604060002095518051906001600160401b038211610a545781906119a58954611f6e565b601f8111611bf3575b50602090601f8311600114611b8e57600092611b83575b50508160011b916000199060031b1c19161786555b51805160018701916001600160401b038211610a54576119fa8354611f6e565b601f8111611b3b575b50602090601f8311600114611aa7579282600596937f029a886814235a877cf2ff5df3c674a946b17782bf260ca120b7b951a6d35cc69b999693611a8d9b9996600092611a9c575b50508160011b916000199060031b1c19161790555b51600286015551600385015551600484015551910155610f07604051928392604084526040840190612089565b82810360208401523395612089565b015190508d80611a4b565b90601f1983169184600052816000209260005b818110611b235750937f029a886814235a877cf2ff5df3c674a946b17782bf260ca120b7b951a6d35cc69b999693611a8d9b9996936001938360059b9810611b0a575b505050811b019055611a60565b015160001960f88460031b161c191690558d8080611afd565b92936020600181928786015181550195019301611aba565b836000526020600020601f840160051c81019160208510611b79575b601f0160051c01905b818110611b6d5750611a03565b60008155600101611b60565b9091508190611b57565b015190508a806119c5565b60008a81528281209350601f198516905b818110611bdb5750908460019594939210611bc2575b505050811b0186556119da565b015160001960f88460031b161c191690558a8080611bb5565b92936020600181928786015181550195019301611b9f565b909150886000526020600020601f840160051c81019160208510611c3c575b90601f859493920160051c01905b818110611c2d57506119ae565b60008155849350600101611c20565b9091508190611c12565b60405162461bcd60e51b815260206004820152601960248201527f53656c6c657220616c72656164792072656769737465726564000000000000006044820152606490fd5b60405162461bcd60e51b815260206004820152601760248201527f50726f66696c65205552492069732072657175697265640000000000000000006044820152606490fd5b60405162461bcd60e51b815260206004820152601760248201527f53656c6c6572206e616d652069732072657175697265640000000000000000006044820152606490fd5b34610171576000366003190112610171576020600b54604051908152f35b34610171576020366003190112610171576001600160a01b03611d54611f42565b16600090815260056020526040902080546001600160a01b031690611d7b90600101611fe5565b90611d986040519283928352604060208401526040830190612089565b0390f35b3461017157604036600319011261017157611db5611f58565b600435600052600760205260406000209060018060a01b0316600052602052602060ff604060002054166040519015158152f35b34610171576020366003190112610171576001600160a01b03611e0a611f42565b169081600052600460205260026040600020015415611ef45750600081815260046020526040902060058101546002909101541115611e9e578060005260046020526005604060002001611e5e8154612120565b90558060005260046020527f0d2a39a6fc73e40b10a3ce1af8481f31b1454fc9a86710f826bef0dc3f812d6c6020600560406000200154604051908152a2005b60405162461bcd60e51b815260206004820152602860248201527f526174696e672063616e6e6f742065786365656420636f6e6669726d65642070604482015267757263686173657360c01b6064820152608490fd5b62461bcd60e51b8152602060048201526024808201527f53656c6c6572206d757374206861766520636f6e6669726d65642070757263686044820152636173657360e01b6064820152608490fd5b600435906001600160a01b038216820361017157565b602435906001600160a01b038216820361017157565b90600182811c92168015611f9e575b6020831014611f8857565b634e487b7160e01b600052602260045260246000fd5b91607f1691611f7d565b61010081019081106001600160401b03821117610a5457604052565b90601f801991011681019081106001600160401b03821117610a5457604052565b9060405191826000825492611ff984611f6e565b80845293600181169081156120675750600114612020575b5061201e92500383611fc4565b565b90506000929192526020600020906000915b81831061204b57505090602061201e9282010138612011565b6020919350806001915483858901015201910190918492612032565b90506020925061201e94915060ff191682840152151560051b82010138612011565b919082519283825260005b8481106120b5575050826000602080949584010152601f8019910116010190565b80602080928401015182828601015201612094565b81601f82011215610171578035906001600160401b038211610a5457604051926120fe601f8401601f191660200185611fc4565b8284526020838301011161017157816000926020809301838601378301015290565b60001981146104595760010190565b90816020910312610171575180151581036101715790565b93919095949295845260c0602085015260009080549061216682611f6e565b918260c08801526001811690816000146121e757506001146121ad575b505060408401959095526001600160a01b039081166060840152166080820152600160a090910152565b6000908152602081209092505b8183106121d0575050830160e0018160a0612183565b805460e084880101526020909201916001016121ba565b60ff191660e08881019190915292151560051b8701909201925083915060a09050612183565b8181029291811591840414171561045957565b9190820391821161045957565b9190820180921161045957565b6000546001600160a01b0316330361224e57565b63118cdaa760e01b6000523360045260246000fdfea2646970667358221220885f347fa447fea7a2d517db72dfbf667851604bfaab661ca6ab79a8b26a18d364736f6c634300081c0033",
          "opcodes": "PUSH1 0x80 CALLVALUE PUSH2 0xEB JUMPI PUSH1 0x1F PUSH2 0x23A0 CODESIZE DUP2 SWAP1 SUB SWAP2 DUP3 ADD PUSH1 0x1F NOT AND DUP4 ADD SWAP2 PUSH1 0x1 PUSH1 0x1 PUSH1 0x40 SHL SUB DUP4 GT DUP5 DUP5 LT OR PUSH2 0xF0 JUMPI DUP1 DUP5 SWAP3 PUSH1 0x20 SWAP5 PUSH1 0x40 MSTORE DUP4 CODECOPY DUP2 ADD SUB SLT PUSH2 0xEB JUMPI MLOAD PUSH1 0x1 PUSH1 0x1 PUSH1 0xA0 SHL SUB DUP2 AND SWAP1 DUP2 SWAP1 SUB PUSH2 0xEB JUMPI CALLER ISZERO PUSH2 0xD5 JUMPI PUSH1 0x0 DUP1 SLOAD CALLER PUSH1 0x1 PUSH1 0x1 PUSH1 0xA0 SHL SUB NOT DUP3 AND DUP2 OR DUP4 SSTORE PUSH1 0x40 MLOAD SWAP4 SWAP3 SWAP1 SWAP2 PUSH1 0x1 PUSH1 0x1 PUSH1 0xA0 SHL SUB AND SWAP1 PUSH32 0x8BE0079C531659141344CD1FD0A4F28419497F9722A3DAAFE3B4186F6B6457E0 SWAP1 DUP1 LOG3 PUSH1 0x0 PUSH1 0x2 SSTORE PUSH1 0x5 PUSH1 0xA SSTORE PUSH1 0x3 PUSH1 0xB SSTORE PUSH1 0xA PUSH1 0xC SSTORE PUSH1 0x0 PUSH1 0xD SSTORE PUSH1 0x1 DUP1 PUSH1 0xA0 SHL SUB NOT PUSH1 0x1 SLOAD AND OR PUSH1 0x1 SSTORE PUSH2 0x2299 SWAP1 DUP2 PUSH2 0x107 DUP3 CODECOPY RETURN JUMPDEST PUSH4 0x1E4FBDF7 PUSH1 0xE0 SHL PUSH1 0x0 MSTORE PUSH1 0x0 PUSH1 0x4 MSTORE PUSH1 0x24 PUSH1 0x0 REVERT JUMPDEST PUSH1 0x0 DUP1 REVERT JUMPDEST PUSH4 0x4E487B71 PUSH1 0xE0 SHL PUSH1 0x0 MSTORE PUSH1 0x41 PUSH1 0x4 MSTORE PUSH1 0x24 PUSH1 0x0 REVERT INVALID PUSH1 0x80 DUP1 PUSH1 0x40 MSTORE PUSH1 0x4 CALLDATASIZE LT ISZERO PUSH2 0x13 JUMPI PUSH1 0x0 DUP1 REVERT JUMPDEST PUSH1 0x0 CALLDATALOAD PUSH1 0xE0 SHR SWAP1 DUP2 PUSH4 0x9F5D7AC EQ PUSH2 0x1DE9 JUMPI POP DUP1 PUSH4 0xF0C3FC4 EQ PUSH2 0x1D9C JUMPI DUP1 PUSH4 0x1205DE47 EQ PUSH2 0x1D33 JUMPI DUP1 PUSH4 0x15908D51 EQ PUSH2 0x1D15 JUMPI DUP1 PUSH4 0x318FD93D EQ PUSH2 0x18B7 JUMPI DUP1 PUSH4 0x38E76A03 EQ PUSH2 0x15D3 JUMPI DUP1 PUSH4 0x476343EE EQ PUSH2 0x154D JUMPI DUP1 PUSH4 0x5E00D856 EQ PUSH2 0x152F JUMPI DUP1 PUSH4 0x60C6D8AE EQ PUSH2 0x1511 JUMPI DUP1 PUSH4 0x6D47AB72 EQ PUSH2 0x1475 JUMPI DUP1 PUSH4 0x715018A6 EQ PUSH2 0x141C JUMPI DUP1 PUSH4 0x7ACC0B20 EQ PUSH2 0x135D JUMPI DUP1 PUSH4 0x876CA09F EQ PUSH2 0x1151 JUMPI DUP1 PUSH4 0x8DA5CB5B EQ PUSH2 0x1128 JUMPI DUP1 PUSH4 0x9833DCFA EQ PUSH2 0xCA0 JUMPI DUP1 PUSH4 0xA001ECDD EQ PUSH2 0xC82 JUMPI DUP1 PUSH4 0xA1422209 EQ PUSH2 0x6D9 JUMPI DUP1 PUSH4 0xA98AD46C EQ PUSH2 0x6B0 JUMPI DUP1 PUSH4 0xB9DB15B4 EQ PUSH2 0x553 JUMPI DUP1 PUSH4 0xC3634DDC EQ PUSH2 0x29B JUMPI DUP1 PUSH4 0xE0F6EF87 EQ PUSH2 0x27D JUMPI DUP1 PUSH4 0xEC1A9E88 EQ PUSH2 0x24C JUMPI DUP1 PUSH4 0xF2FDE38B EQ PUSH2 0x1C3 JUMPI DUP1 PUSH4 0xF6139F03 EQ PUSH2 0x176 JUMPI PUSH4 0xFD660D68 EQ PUSH2 0x132 JUMPI PUSH1 0x0 DUP1 REVERT JUMPDEST CALLVALUE PUSH2 0x171 JUMPI PUSH1 0x20 CALLDATASIZE PUSH1 0x3 NOT ADD SLT PUSH2 0x171 JUMPI PUSH1 0x1 PUSH1 0x1 PUSH1 0xA0 SHL SUB PUSH2 0x153 PUSH2 0x1F42 JUMP JUMPDEST AND PUSH1 0x0 MSTORE PUSH1 0x6 PUSH1 0x20 MSTORE PUSH1 0x20 PUSH1 0xFF PUSH1 0x40 PUSH1 0x0 KECCAK256 SLOAD AND PUSH1 0x40 MLOAD SWAP1 ISZERO ISZERO DUP2 MSTORE RETURN JUMPDEST PUSH1 0x0 DUP1 REVERT JUMPDEST CALLVALUE PUSH2 0x171 JUMPI PUSH1 0x40 CALLDATASIZE PUSH1 0x3 NOT ADD SLT PUSH2 0x171 JUMPI PUSH2 0x18F PUSH2 0x1F58 JUMP JUMPDEST PUSH1 0x4 CALLDATALOAD PUSH1 0x0 MSTORE PUSH1 0x9 PUSH1 0x20 MSTORE PUSH1 0x40 PUSH1 0x0 KECCAK256 SWAP1 PUSH1 0x1 DUP1 PUSH1 0xA0 SHL SUB AND PUSH1 0x0 MSTORE PUSH1 0x20 MSTORE PUSH1 0x20 PUSH1 0xFF PUSH1 0x40 PUSH1 0x0 KECCAK256 SLOAD AND PUSH1 0x40 MLOAD SWAP1 ISZERO ISZERO DUP2 MSTORE RETURN JUMPDEST CALLVALUE PUSH2 0x171 JUMPI PUSH1 0x20 CALLDATASIZE PUSH1 0x3 NOT ADD SLT PUSH2 0x171 JUMPI PUSH2 0x1DC PUSH2 0x1F42 JUMP JUMPDEST PUSH2 0x1E4 PUSH2 0x223A JUMP JUMPDEST PUSH1 0x1 PUSH1 0x1 PUSH1 0xA0 SHL SUB AND DUP1 ISZERO PUSH2 0x236 JUMPI PUSH1 0x0 DUP1 SLOAD PUSH1 0x1 PUSH1 0x1 PUSH1 0xA0 SHL SUB NOT DUP2 AND DUP4 OR DUP3 SSTORE PUSH1 0x1 PUSH1 0x1 PUSH1 0xA0 SHL SUB AND SWAP1 PUSH32 0x8BE0079C531659141344CD1FD0A4F28419497F9722A3DAAFE3B4186F6B6457E0 SWAP1 DUP1 LOG3 STOP JUMPDEST PUSH4 0x1E4FBDF7 PUSH1 0xE0 SHL PUSH1 0x0 MSTORE PUSH1 0x0 PUSH1 0x4 MSTORE PUSH1 0x24 PUSH1 0x0 REVERT JUMPDEST CALLVALUE PUSH2 0x171 JUMPI PUSH1 0x20 CALLDATASIZE PUSH1 0x3 NOT ADD SLT PUSH2 0x171 JUMPI PUSH1 0x4 CALLDATALOAD PUSH1 0x0 MSTORE PUSH1 0x8 PUSH1 0x20 MSTORE PUSH1 0x20 PUSH1 0xFF PUSH1 0x40 PUSH1 0x0 KECCAK256 SLOAD AND PUSH1 0x40 MLOAD SWAP1 ISZERO ISZERO DUP2 MSTORE RETURN JUMPDEST CALLVALUE PUSH2 0x171 JUMPI PUSH1 0x0 CALLDATASIZE PUSH1 0x3 NOT ADD SLT PUSH2 0x171 JUMPI PUSH1 0x20 PUSH1 0x2 SLOAD PUSH1 0x40 MLOAD SWAP1 DUP2 MSTORE RETURN JUMPDEST CALLVALUE PUSH2 0x171 JUMPI PUSH1 0x20 CALLDATASIZE PUSH1 0x3 NOT ADD SLT PUSH2 0x171 JUMPI PUSH1 0x4 CALLDATALOAD PUSH1 0x0 DUP2 DUP2 MSTORE PUSH1 0x3 PUSH1 0x20 MSTORE PUSH1 0x40 SWAP1 KECCAK256 PUSH1 0x5 DUP2 ADD DUP1 SLOAD SWAP1 SWAP3 SWAP2 SWAP1 PUSH1 0x1 PUSH1 0x1 PUSH1 0xA0 SHL SUB AND CALLER SUB PUSH2 0x4FF JUMPI PUSH1 0x4 DUP2 ADD SWAP1 PUSH1 0xFF DUP3 SLOAD PUSH1 0xA8 SHR AND ISZERO PUSH2 0x4C3 JUMPI PUSH1 0x3 PUSH2 0x37E SWAP2 ADD SLOAD PUSH1 0x20 PUSH2 0x30B PUSH1 0x64 PUSH2 0x303 PUSH1 0xC SLOAD DUP6 PUSH2 0x220D JUMP JUMPDEST DIV DUP1 SWAP4 PUSH2 0x2220 JUMP JUMPDEST PUSH2 0x330 PUSH2 0x327 PUSH1 0x64 PUSH2 0x31F PUSH1 0xB SLOAD DUP8 PUSH2 0x220D JUMP JUMPDEST DIV DUP1 SWAP6 PUSH2 0x2220 JUMP JUMPDEST SWAP4 PUSH1 0xD SLOAD PUSH2 0x222D JUMP JUMPDEST PUSH1 0xD SSTORE DUP5 SLOAD PUSH1 0xFF PUSH1 0xA8 SHL NOT AND DUP6 SSTORE PUSH1 0x1 SLOAD DUP8 SLOAD PUSH1 0x40 MLOAD PUSH4 0xA9059CBB PUSH1 0xE0 SHL DUP2 MSTORE PUSH1 0x1 PUSH1 0x1 PUSH1 0xA0 SHL SUB SWAP2 DUP3 AND PUSH1 0x4 DUP3 ADD MSTORE PUSH1 0x24 DUP2 ADD SWAP4 SWAP1 SWAP4 MSTORE SWAP2 SWAP5 DUP6 SWAP3 SWAP1 SWAP2 AND SWAP1 DUP3 SWAP1 PUSH1 0x0 SWAP1 DUP3 SWAP1 PUSH1 0x44 DUP3 ADD SWAP1 JUMP JUMPDEST SUB SWAP3 GAS CALL SWAP1 DUP2 ISZERO PUSH2 0x49C JUMPI PUSH2 0x3D6 SWAP3 PUSH1 0x20 SWAP3 PUSH2 0x4A8 JUMPI JUMPDEST POP PUSH1 0x1 SLOAD DUP5 SLOAD PUSH1 0x40 MLOAD PUSH4 0xA9059CBB PUSH1 0xE0 SHL DUP2 MSTORE PUSH1 0x1 PUSH1 0x1 PUSH1 0xA0 SHL SUB SWAP2 DUP3 AND PUSH1 0x4 DUP3 ADD MSTORE PUSH1 0x24 DUP2 ADD SWAP4 SWAP1 SWAP4 MSTORE SWAP2 SWAP4 DUP5 SWAP3 SWAP1 SWAP2 AND SWAP1 DUP3 SWAP1 PUSH1 0x0 SWAP1 DUP3 SWAP1 PUSH1 0x44 DUP3 ADD SWAP1 JUMP JUMPDEST SUB SWAP3 GAS CALL DUP1 ISZERO PUSH2 0x49C JUMPI PUSH2 0x46F JUMPI JUMPDEST POP SLOAD PUSH1 0x1 PUSH1 0x1 PUSH1 0xA0 SHL SUB AND PUSH1 0x0 SWAP1 DUP2 MSTORE PUSH1 0x4 PUSH1 0x20 MSTORE PUSH1 0x40 SWAP1 KECCAK256 PUSH1 0x3 ADD DUP1 SLOAD PUSH1 0x1 DUP2 ADD SWAP2 SWAP1 DUP3 LT PUSH2 0x459 JUMPI SSTORE PUSH1 0x0 SWAP1 DUP2 MSTORE PUSH1 0x8 PUSH1 0x20 SWAP1 DUP2 MSTORE PUSH1 0x40 DUP1 DUP4 KECCAK256 DUP1 SLOAD PUSH1 0x1 PUSH1 0xFF NOT SWAP2 DUP3 AND DUP2 OR SWAP1 SWAP3 SSTORE PUSH1 0x9 DUP5 MSTORE DUP3 DUP6 KECCAK256 CALLER DUP7 MSTORE SWAP1 SWAP4 MSTORE SWAP3 KECCAK256 DUP1 SLOAD SWAP1 SWAP2 AND SWAP1 SWAP2 OR SWAP1 SSTORE DUP1 SLOAD PUSH1 0x1 PUSH1 0x1 PUSH1 0xA0 SHL SUB NOT AND SWAP1 SSTORE STOP JUMPDEST PUSH4 0x4E487B71 PUSH1 0xE0 SHL PUSH1 0x0 MSTORE PUSH1 0x11 PUSH1 0x4 MSTORE PUSH1 0x24 PUSH1 0x0 REVERT JUMPDEST PUSH2 0x490 SWAP1 PUSH1 0x20 RETURNDATASIZE PUSH1 0x20 GT PUSH2 0x495 JUMPI JUMPDEST PUSH2 0x488 DUP2 DUP4 PUSH2 0x1FC4 JUMP JUMPDEST DUP2 ADD SWAP1 PUSH2 0x212F JUMP JUMPDEST PUSH2 0x3E5 JUMP JUMPDEST POP RETURNDATASIZE PUSH2 0x47E JUMP JUMPDEST PUSH1 0x40 MLOAD RETURNDATASIZE PUSH1 0x0 DUP3 RETURNDATACOPY RETURNDATASIZE SWAP1 REVERT JUMPDEST PUSH2 0x4BE SWAP1 DUP4 RETURNDATASIZE DUP6 GT PUSH2 0x495 JUMPI PUSH2 0x488 DUP2 DUP4 PUSH2 0x1FC4 JUMP JUMPDEST PUSH2 0x395 JUMP JUMPDEST PUSH1 0x40 MLOAD PUSH3 0x461BCD PUSH1 0xE5 SHL DUP2 MSTORE PUSH1 0x20 PUSH1 0x4 DUP3 ADD MSTORE PUSH1 0x14 PUSH1 0x24 DUP3 ADD MSTORE PUSH20 0x283937B23AB1BA103737BA103830B4B2103337B9 PUSH1 0x61 SHL PUSH1 0x44 DUP3 ADD MSTORE PUSH1 0x64 SWAP1 REVERT JUMPDEST PUSH1 0x40 MLOAD PUSH3 0x461BCD PUSH1 0xE5 SHL DUP2 MSTORE PUSH1 0x20 PUSH1 0x4 DUP3 ADD MSTORE PUSH1 0x26 PUSH1 0x24 DUP3 ADD MSTORE PUSH32 0x4F6E6C79207468652062757965722063616E2063616E63656C20746865207075 PUSH1 0x44 DUP3 ADD MSTORE PUSH6 0x726368617365 PUSH1 0xD0 SHL PUSH1 0x64 DUP3 ADD MSTORE PUSH1 0x84 SWAP1 REVERT JUMPDEST CALLVALUE PUSH2 0x171 JUMPI PUSH1 0x20 CALLDATASIZE PUSH1 0x3 NOT ADD SLT PUSH2 0x171 JUMPI PUSH1 0x0 PUSH1 0xE0 PUSH1 0x40 MLOAD PUSH2 0x574 DUP2 PUSH2 0x1FA8 JUMP JUMPDEST DUP3 DUP2 MSTORE PUSH1 0x60 PUSH1 0x20 DUP3 ADD MSTORE PUSH1 0x60 PUSH1 0x40 DUP3 ADD MSTORE DUP3 PUSH1 0x60 DUP3 ADD MSTORE DUP3 PUSH1 0x80 DUP3 ADD MSTORE DUP3 PUSH1 0xA0 DUP3 ADD MSTORE DUP3 PUSH1 0xC0 DUP3 ADD MSTORE ADD MSTORE PUSH1 0x4 CALLDATALOAD PUSH1 0x0 MSTORE PUSH1 0x3 PUSH1 0x20 MSTORE PUSH1 0x40 PUSH1 0x0 KECCAK256 PUSH1 0x40 MLOAD PUSH2 0x5BB DUP2 PUSH2 0x1FA8 JUMP JUMPDEST DUP2 SLOAD DUP2 MSTORE PUSH2 0x5CB PUSH1 0x1 DUP4 ADD PUSH2 0x1FE5 JUMP JUMPDEST SWAP2 PUSH1 0x20 DUP3 ADD SWAP3 DUP4 MSTORE PUSH2 0x5DF PUSH1 0x2 DUP3 ADD PUSH2 0x1FE5 JUMP JUMPDEST PUSH1 0x40 DUP4 ADD SWAP1 DUP2 MSTORE PUSH1 0x3 DUP3 ADD SLOAD SWAP2 PUSH1 0x60 DUP5 ADD SWAP3 DUP4 MSTORE PUSH1 0x4 DUP2 ADD SLOAD SWAP1 PUSH1 0x80 DUP6 ADD PUSH1 0x1 DUP1 PUSH1 0xA0 SHL SUB DUP4 AND DUP2 MSTORE PUSH2 0x679 PUSH1 0xA0 DUP8 ADD SWAP3 PUSH1 0xFF DUP6 PUSH1 0xA0 SHR AND ISZERO ISZERO DUP5 MSTORE PUSH1 0xFF PUSH1 0xC0 DUP10 ADD SWAP6 PUSH1 0xA8 SHR AND ISZERO ISZERO DUP6 MSTORE PUSH1 0x5 PUSH1 0x1 DUP1 PUSH1 0xA0 SHL SUB SWAP2 ADD SLOAD AND SWAP5 PUSH1 0xE0 DUP9 ADD SWAP6 DUP7 MSTORE PUSH2 0x666 PUSH1 0x40 MLOAD SWAP10 DUP11 SWAP10 PUSH1 0x20 DUP12 MSTORE MLOAD PUSH1 0x20 DUP12 ADD MSTORE MLOAD PUSH2 0x100 PUSH1 0x40 DUP12 ADD MSTORE PUSH2 0x120 DUP11 ADD SWAP1 PUSH2 0x2089 JUMP JUMPDEST SWAP1 MLOAD DUP9 DUP3 SUB PUSH1 0x1F NOT ADD PUSH1 0x60 DUP11 ADD MSTORE PUSH2 0x2089 JUMP JUMPDEST SWAP5 MLOAD PUSH1 0x80 DUP8 ADD MSTORE MLOAD PUSH1 0x1 PUSH1 0x1 PUSH1 0xA0 SHL SUB SWAP1 DUP2 AND PUSH1 0xA0 DUP8 ADD MSTORE SWAP1 MLOAD ISZERO ISZERO PUSH1 0xC0 DUP7 ADD MSTORE SWAP1 MLOAD ISZERO ISZERO PUSH1 0xE0 DUP6 ADD MSTORE SWAP1 MLOAD AND PUSH2 0x100 DUP4 ADD MSTORE SUB SWAP1 RETURN JUMPDEST CALLVALUE PUSH2 0x171 JUMPI PUSH1 0x0 CALLDATASIZE PUSH1 0x3 NOT ADD SLT PUSH2 0x171 JUMPI PUSH1 0x1 SLOAD PUSH1 0x40 MLOAD PUSH1 0x1 PUSH1 0x1 PUSH1 0xA0 SHL SUB SWAP1 SWAP2 AND DUP2 MSTORE PUSH1 0x20 SWAP1 RETURN JUMPDEST CALLVALUE PUSH2 0x171 JUMPI PUSH1 0x60 CALLDATASIZE PUSH1 0x3 NOT ADD SLT PUSH2 0x171 JUMPI PUSH1 0x4 CALLDATALOAD PUSH1 0x1 PUSH1 0x1 PUSH1 0x40 SHL SUB DUP2 GT PUSH2 0x171 JUMPI PUSH2 0x709 SWAP1 CALLDATASIZE SWAP1 PUSH1 0x4 ADD PUSH2 0x20CA JUMP JUMPDEST PUSH1 0x24 CALLDATALOAD PUSH1 0x1 PUSH1 0x1 PUSH1 0x40 SHL SUB DUP2 GT PUSH2 0x171 JUMPI PUSH2 0x728 SWAP1 CALLDATASIZE SWAP1 PUSH1 0x4 ADD PUSH2 0x20CA JUMP JUMPDEST SWAP1 PUSH1 0x44 CALLDATALOAD SWAP2 DUP2 MLOAD ISZERO PUSH2 0xC3D JUMPI DUP1 MLOAD ISZERO PUSH2 0xBF8 JUMPI DUP3 ISZERO PUSH2 0xBA3 JUMPI CALLER PUSH1 0x0 MSTORE PUSH1 0x6 PUSH1 0x20 MSTORE PUSH1 0xFF PUSH1 0x40 PUSH1 0x0 KECCAK256 SLOAD AND PUSH2 0xB6A JUMPI CALLER PUSH1 0x0 MSTORE PUSH1 0x4 PUSH1 0x20 MSTORE PUSH2 0x76E PUSH1 0x40 PUSH1 0x0 KECCAK256 SLOAD PUSH2 0x1F6E JUMP JUMPDEST ISZERO PUSH2 0xB2D JUMPI PUSH2 0x77E PUSH1 0x2 SLOAD PUSH2 0x2120 JUMP JUMPDEST SWAP3 DUP4 PUSH1 0x2 SSTORE PUSH1 0x40 MLOAD PUSH2 0x78F DUP2 PUSH2 0x1FA8 JUMP JUMPDEST DUP5 DUP2 MSTORE PUSH1 0x20 DUP2 ADD SWAP5 DUP5 DUP7 MSTORE PUSH1 0x40 DUP3 ADD SWAP6 DUP5 DUP8 MSTORE PUSH1 0x60 DUP4 ADD SWAP1 DUP5 DUP3 MSTORE PUSH1 0x80 DUP5 ADD SWAP2 CALLER DUP4 MSTORE PUSH1 0xA0 DUP6 ADD SWAP1 PUSH1 0x0 DUP3 MSTORE PUSH1 0xC0 DUP7 ADD SWAP3 PUSH1 0x0 DUP5 MSTORE PUSH1 0xE0 DUP8 ADD SWAP6 PUSH1 0x0 DUP8 MSTORE PUSH1 0x0 MSTORE PUSH1 0x3 PUSH1 0x20 MSTORE PUSH1 0x40 PUSH1 0x0 KECCAK256 SWAP7 MLOAD DUP8 SSTORE PUSH1 0x1 DUP8 ADD SWAP1 MLOAD DUP1 MLOAD SWAP1 PUSH1 0x1 PUSH1 0x1 PUSH1 0x40 SHL SUB DUP3 GT PUSH2 0xA54 JUMPI DUP2 SWAP1 PUSH2 0x801 DUP5 SLOAD PUSH2 0x1F6E JUMP JUMPDEST PUSH1 0x1F DUP2 GT PUSH2 0xADA JUMPI JUMPDEST POP PUSH1 0x20 SWAP1 PUSH1 0x1F DUP4 GT PUSH1 0x1 EQ PUSH2 0xA75 JUMPI PUSH1 0x0 SWAP3 PUSH2 0xA6A JUMPI JUMPDEST POP POP DUP2 PUSH1 0x1 SHL SWAP2 PUSH1 0x0 NOT SWAP1 PUSH1 0x3 SHL SHR NOT AND OR SWAP1 SSTORE JUMPDEST PUSH1 0x2 DUP7 ADD SWAP10 MLOAD SWAP10 DUP11 MLOAD PUSH1 0x1 PUSH1 0x1 PUSH1 0x40 SHL SUB DUP2 GT PUSH2 0xA54 JUMPI PUSH2 0x857 DUP3 SLOAD PUSH2 0x1F6E JUMP JUMPDEST PUSH1 0x1F DUP2 GT PUSH2 0xA0C JUMPI JUMPDEST POP PUSH1 0x20 PUSH1 0x1F DUP3 GT PUSH1 0x1 EQ PUSH2 0x97D JUMPI SWAP1 DUP1 PUSH1 0x5 SWAP9 SWAP8 SWAP7 SWAP6 SWAP5 SWAP4 SWAP3 PUSH32 0x5EAC02133E64DFC54CDD55862C17226F0F3FD267B6BB867941E666603F1B8DFC SWAP15 PUSH1 0x0 SWAP3 PUSH2 0x972 JUMPI JUMPDEST POP POP DUP2 PUSH1 0x1 SHL SWAP2 PUSH1 0x0 NOT SWAP1 PUSH1 0x3 SHL SHR NOT AND OR SWAP1 SSTORE JUMPDEST MLOAD PUSH1 0x3 DUP8 ADD SSTORE SWAP2 MLOAD PUSH1 0x4 DUP7 ADD DUP1 SLOAD SWAP4 MLOAD SWAP3 MLOAD PUSH1 0x1 PUSH1 0x1 PUSH1 0xB0 SHL SUB NOT SWAP1 SWAP5 AND PUSH1 0x1 PUSH1 0x1 PUSH1 0xA0 SHL SUB SWAP3 DUP4 AND OR SWAP3 ISZERO ISZERO PUSH1 0xA0 SHL PUSH1 0xFF PUSH1 0xA0 SHL AND SWAP3 SWAP1 SWAP3 OR SWAP3 ISZERO ISZERO PUSH1 0xA8 SHL PUSH1 0xFF PUSH1 0xA8 SHL AND SWAP3 SWAP1 SWAP3 OR SWAP1 SSTORE SWAP1 MLOAD SWAP2 SWAP1 SWAP3 ADD DUP1 SLOAD PUSH1 0x1 PUSH1 0x1 PUSH1 0xA0 SHL SUB NOT AND SWAP2 SWAP1 SWAP3 AND OR SWAP1 SSTORE PUSH1 0x2 SLOAD PUSH1 0x40 MLOAD SWAP1 DUP2 MSTORE PUSH1 0xE0 PUSH1 0x20 DUP3 ADD DUP2 SWAP1 MSTORE SWAP1 SWAP4 DUP5 SWAP4 PUSH2 0x953 SWAP3 SWAP1 SWAP2 PUSH2 0x945 SWAP2 DUP7 ADD SWAP1 PUSH2 0x2089 JUMP JUMPDEST SWAP1 DUP5 DUP3 SUB PUSH1 0x40 DUP7 ADD MSTORE PUSH2 0x2089 JUMP JUMPDEST SWAP1 PUSH1 0x60 DUP4 ADD MSTORE CALLER PUSH1 0x80 DUP4 ADD MSTORE PUSH1 0x0 PUSH1 0xA0 DUP4 ADD MSTORE PUSH1 0x0 PUSH1 0xC0 DUP4 ADD MSTORE SUB SWAP1 LOG1 STOP JUMPDEST ADD MLOAD SWAP1 POP DUP15 DUP1 PUSH2 0x8A3 JUMP JUMPDEST PUSH1 0x1F NOT DUP3 AND SWAP1 DUP4 PUSH1 0x0 MSTORE DUP1 PUSH1 0x0 KECCAK256 SWAP2 PUSH1 0x0 JUMPDEST DUP2 DUP2 LT PUSH2 0x9F4 JUMPI POP SWAP2 DUP4 SWAP2 PUSH32 0x5EAC02133E64DFC54CDD55862C17226F0F3FD267B6BB867941E666603F1B8DFC SWAP16 PUSH1 0x5 SWAP12 SWAP11 SWAP10 SWAP9 SWAP8 SWAP7 SWAP6 PUSH1 0x1 SWAP6 LT PUSH2 0x9DB JUMPI JUMPDEST POP POP POP DUP2 SHL ADD SWAP1 SSTORE PUSH2 0x8B8 JUMP JUMPDEST ADD MLOAD PUSH1 0x0 NOT PUSH1 0xF8 DUP5 PUSH1 0x3 SHL AND SHR NOT AND SWAP1 SSTORE DUP15 DUP1 DUP1 PUSH2 0x9CE JUMP JUMPDEST DUP16 DUP4 ADD MLOAD DUP5 SSTORE PUSH1 0x1 SWAP1 SWAP4 ADD SWAP3 PUSH1 0x20 SWAP3 DUP4 ADD SWAP3 ADD PUSH2 0x98F JUMP JUMPDEST DUP3 PUSH1 0x0 MSTORE PUSH1 0x20 PUSH1 0x0 KECCAK256 PUSH1 0x1F DUP4 ADD PUSH1 0x5 SHR DUP2 ADD SWAP2 PUSH1 0x20 DUP5 LT PUSH2 0xA4A JUMPI JUMPDEST PUSH1 0x1F ADD PUSH1 0x5 SHR ADD SWAP1 JUMPDEST DUP2 DUP2 LT PUSH2 0xA3E JUMPI POP PUSH2 0x860 JUMP JUMPDEST PUSH1 0x0 DUP2 SSTORE PUSH1 0x1 ADD PUSH2 0xA31 JUMP JUMPDEST SWAP1 SWAP2 POP DUP2 SWAP1 PUSH2 0xA28 JUMP JUMPDEST PUSH4 0x4E487B71 PUSH1 0xE0 SHL PUSH1 0x0 MSTORE PUSH1 0x41 PUSH1 0x4 MSTORE PUSH1 0x24 PUSH1 0x0 REVERT JUMPDEST ADD MLOAD SWAP1 POP DUP14 DUP1 PUSH2 0x821 JUMP JUMPDEST PUSH1 0x0 DUP6 DUP2 MSTORE DUP3 DUP2 KECCAK256 SWAP4 POP PUSH1 0x1F NOT DUP6 AND SWAP1 JUMPDEST DUP2 DUP2 LT PUSH2 0xAC2 JUMPI POP SWAP1 DUP5 PUSH1 0x1 SWAP6 SWAP5 SWAP4 SWAP3 LT PUSH2 0xAA9 JUMPI JUMPDEST POP POP POP DUP2 SHL ADD SWAP1 SSTORE PUSH2 0x836 JUMP JUMPDEST ADD MLOAD PUSH1 0x0 NOT PUSH1 0xF8 DUP5 PUSH1 0x3 SHL AND SHR NOT AND SWAP1 SSTORE DUP14 DUP1 DUP1 PUSH2 0xA9C JUMP JUMPDEST SWAP3 SWAP4 PUSH1 0x20 PUSH1 0x1 DUP2 SWAP3 DUP8 DUP7 ADD MLOAD DUP2 SSTORE ADD SWAP6 ADD SWAP4 ADD PUSH2 0xA86 JUMP JUMPDEST SWAP1 SWAP2 POP DUP4 PUSH1 0x0 MSTORE PUSH1 0x20 PUSH1 0x0 KECCAK256 PUSH1 0x1F DUP5 ADD PUSH1 0x5 SHR DUP2 ADD SWAP2 PUSH1 0x20 DUP6 LT PUSH2 0xB23 JUMPI JUMPDEST SWAP1 PUSH1 0x1F DUP6 SWAP5 SWAP4 SWAP3 ADD PUSH1 0x5 SHR ADD SWAP1 JUMPDEST DUP2 DUP2 LT PUSH2 0xB14 JUMPI POP PUSH2 0x80A JUMP JUMPDEST PUSH1 0x0 DUP2 SSTORE DUP5 SWAP4 POP PUSH1 0x1 ADD PUSH2 0xB07 JUMP JUMPDEST SWAP1 SWAP2 POP DUP2 SWAP1 PUSH2 0xAF9 JUMP JUMPDEST PUSH1 0x40 MLOAD PUSH3 0x461BCD PUSH1 0xE5 SHL DUP2 MSTORE PUSH1 0x20 PUSH1 0x4 DUP3 ADD MSTORE PUSH1 0x15 PUSH1 0x24 DUP3 ADD MSTORE PUSH21 0x14D95B1B195C881B9BDD081C9959DA5CDD195C9959 PUSH1 0x5A SHL PUSH1 0x44 DUP3 ADD MSTORE PUSH1 0x64 SWAP1 REVERT JUMPDEST PUSH1 0x40 MLOAD PUSH3 0x461BCD PUSH1 0xE5 SHL DUP2 MSTORE PUSH1 0x20 PUSH1 0x4 DUP3 ADD MSTORE PUSH1 0x11 PUSH1 0x24 DUP3 ADD MSTORE PUSH17 0x14D95B1B195C881A5CC8189B1BD8DAD959 PUSH1 0x7A SHL PUSH1 0x44 DUP3 ADD MSTORE PUSH1 0x64 SWAP1 REVERT JUMPDEST PUSH1 0x40 MLOAD PUSH3 0x461BCD PUSH1 0xE5 SHL DUP2 MSTORE PUSH1 0x20 PUSH1 0x4 DUP3 ADD MSTORE PUSH1 0x27 PUSH1 0x24 DUP3 ADD MSTORE PUSH32 0x50726F64756374207072696365206D7573742062652067726561746572207468 PUSH1 0x44 DUP3 ADD MSTORE PUSH7 0x616E207A65726F PUSH1 0xC8 SHL PUSH1 0x64 DUP3 ADD MSTORE PUSH1 0x84 SWAP1 REVERT JUMPDEST PUSH1 0x40 MLOAD PUSH3 0x461BCD PUSH1 0xE5 SHL DUP2 MSTORE PUSH1 0x20 PUSH1 0x4 DUP3 ADD MSTORE PUSH1 0x1D PUSH1 0x24 DUP3 ADD MSTORE PUSH32 0x50726F6475637420696D6167652055524C206973207265717569726564000000 PUSH1 0x44 DUP3 ADD MSTORE PUSH1 0x64 SWAP1 REVERT JUMPDEST PUSH1 0x40 MLOAD PUSH3 0x461BCD PUSH1 0xE5 SHL DUP2 MSTORE PUSH1 0x20 PUSH1 0x4 DUP3 ADD MSTORE PUSH1 0x18 PUSH1 0x24 DUP3 ADD MSTORE PUSH32 0x50726F64756374206E616D652069732072657175697265640000000000000000 PUSH1 0x44 DUP3 ADD MSTORE PUSH1 0x64 SWAP1 REVERT JUMPDEST CALLVALUE PUSH2 0x171 JUMPI PUSH1 0x0 CALLDATASIZE PUSH1 0x3 NOT ADD SLT PUSH2 0x171 JUMPI PUSH1 0x20 PUSH1 0xA SLOAD PUSH1 0x40 MLOAD SWAP1 DUP2 MSTORE RETURN JUMPDEST CALLVALUE PUSH2 0x171 JUMPI PUSH1 0x20 CALLDATASIZE PUSH1 0x3 NOT ADD SLT PUSH2 0x171 JUMPI PUSH1 0x4 CALLDATALOAD DUP1 PUSH1 0x0 MSTORE PUSH1 0x3 PUSH1 0x20 MSTORE PUSH1 0x40 PUSH1 0x0 KECCAK256 DUP2 PUSH1 0x0 MSTORE PUSH1 0x8 PUSH1 0x20 MSTORE PUSH1 0xFF PUSH1 0x40 PUSH1 0x0 KECCAK256 SLOAD AND ISZERO PUSH2 0x10E3 JUMPI PUSH1 0x0 DUP3 DUP2 MSTORE PUSH1 0x9 PUSH1 0x20 SWAP1 DUP2 MSTORE PUSH1 0x40 DUP1 DUP4 KECCAK256 CALLER DUP5 MSTORE SWAP1 SWAP2 MSTORE SWAP1 KECCAK256 SLOAD PUSH1 0xFF AND ISZERO PUSH2 0x109F JUMPI PUSH1 0x0 DUP3 DUP2 MSTORE PUSH1 0x7 PUSH1 0x20 SWAP1 DUP2 MSTORE PUSH1 0x40 DUP1 DUP4 KECCAK256 CALLER DUP5 MSTORE SWAP1 SWAP2 MSTORE SWAP1 KECCAK256 SLOAD PUSH1 0xFF AND PUSH2 0x104A JUMPI PUSH1 0x4 SWAP2 PUSH1 0x0 MSTORE PUSH1 0x7 PUSH1 0x20 MSTORE PUSH1 0x40 PUSH1 0x0 KECCAK256 PUSH1 0x1 DUP1 PUSH1 0xA0 SHL SUB CALLER AND PUSH1 0x0 MSTORE PUSH1 0x20 MSTORE PUSH1 0x40 PUSH1 0x0 KECCAK256 PUSH1 0x1 PUSH1 0xFF NOT DUP3 SLOAD AND OR SWAP1 SSTORE ADD PUSH1 0x1 DUP1 PUSH1 0xA0 SHL SUB DUP2 SLOAD AND PUSH1 0x0 MSTORE PUSH1 0x4 PUSH1 0x20 MSTORE PUSH1 0x4 PUSH1 0x40 PUSH1 0x0 KECCAK256 ADD DUP1 SLOAD SWAP1 PUSH1 0x1 DUP3 ADD DUP1 SWAP3 GT PUSH2 0x459 JUMPI SSTORE SLOAD PUSH1 0x1 PUSH1 0x1 PUSH1 0xA0 SHL SUB AND PUSH1 0x0 DUP2 DUP2 MSTORE PUSH1 0x4 PUSH1 0x20 DUP2 SWAP1 MSTORE PUSH1 0x40 SWAP1 SWAP2 KECCAK256 ADD SLOAD PUSH1 0x3 GT ISZERO DUP1 PUSH2 0x1031 JUMPI JUMPDEST PUSH2 0xDA2 JUMPI STOP JUMPDEST PUSH1 0x40 MLOAD SWAP1 PUSH2 0xDB1 PUSH1 0x60 DUP4 PUSH2 0x1FC4 JUMP JUMPDEST PUSH1 0x2C DUP3 MSTORE PUSH32 0x4D756C7469706C65207265706F7274732077697468206E6F20636F6E6669726D PUSH1 0x20 DUP4 ADD MSTORE PUSH12 0x656420707572636861736573 PUSH1 0xA0 SHL PUSH1 0x40 DUP4 ADD MSTORE DUP1 PUSH1 0x0 MSTORE PUSH1 0x6 PUSH1 0x20 MSTORE PUSH1 0xFF PUSH1 0x40 PUSH1 0x0 KECCAK256 SLOAD AND PUSH2 0xFEC JUMPI PUSH1 0x40 MLOAD SWAP2 PUSH1 0x40 DUP4 ADD DUP4 DUP2 LT PUSH1 0x1 PUSH1 0x1 PUSH1 0x40 SHL SUB DUP3 GT OR PUSH2 0xA54 JUMPI PUSH1 0x40 SWAP1 DUP2 MSTORE DUP3 DUP5 MSTORE PUSH1 0x20 DUP1 DUP6 ADD DUP4 DUP2 MSTORE PUSH1 0x0 DUP6 DUP2 MSTORE PUSH1 0x5 SWAP1 SWAP3 MSTORE SWAP2 SWAP1 KECCAK256 SWAP4 MLOAD DUP5 SLOAD PUSH1 0x1 PUSH1 0x1 PUSH1 0xA0 SHL SUB NOT AND PUSH1 0x1 PUSH1 0x1 PUSH1 0xA0 SHL SUB SWAP2 SWAP1 SWAP2 AND OR DUP5 SSTORE MLOAD DUP1 MLOAD SWAP1 SWAP4 PUSH1 0x1 ADD SWAP1 PUSH1 0x1 PUSH1 0x1 PUSH1 0x40 SHL SUB DUP2 GT PUSH2 0xA54 JUMPI PUSH2 0xE7B DUP3 SLOAD PUSH2 0x1F6E JUMP JUMPDEST PUSH1 0x1F DUP2 GT PUSH2 0xFA4 JUMPI JUMPDEST POP PUSH1 0x20 PUSH1 0x1F DUP3 GT PUSH1 0x1 EQ PUSH2 0xF17 JUMPI SWAP1 DUP1 PUSH2 0xF07 SWAP5 SWAP4 SWAP3 PUSH32 0xD1AB8ED187C2B3794ADB1CC1433A2872E8E959A63970EDE2BEAEC4DF3F894BEF SWAP7 SWAP8 PUSH1 0x0 SWAP3 PUSH2 0xF0C JUMPI JUMPDEST POP POP DUP2 PUSH1 0x1 SHL SWAP2 PUSH1 0x0 NOT SWAP1 PUSH1 0x3 SHL SHR NOT AND OR SWAP1 SSTORE JUMPDEST DUP4 PUSH1 0x0 MSTORE PUSH1 0x6 PUSH1 0x20 MSTORE PUSH1 0x40 PUSH1 0x0 KECCAK256 PUSH1 0x1 PUSH1 0xFF NOT DUP3 SLOAD AND OR SWAP1 SSTORE PUSH1 0x40 MLOAD SWAP2 DUP3 SWAP2 PUSH1 0x20 DUP4 MSTORE PUSH1 0x20 DUP4 ADD SWAP1 PUSH2 0x2089 JUMP JUMPDEST SUB SWAP1 LOG2 STOP JUMPDEST ADD MLOAD SWAP1 POP DUP8 DUP1 PUSH2 0xEC5 JUMP JUMPDEST PUSH1 0x1F NOT DUP3 AND SWAP6 DUP4 PUSH1 0x0 MSTORE DUP2 PUSH1 0x0 KECCAK256 SWAP7 PUSH1 0x0 JUMPDEST DUP2 DUP2 LT PUSH2 0xF8C JUMPI POP SWAP7 PUSH1 0x1 SWAP3 DUP5 SWAP3 PUSH2 0xF07 SWAP8 SWAP7 SWAP6 PUSH32 0xD1AB8ED187C2B3794ADB1CC1433A2872E8E959A63970EDE2BEAEC4DF3F894BEF SWAP10 SWAP11 LT PUSH2 0xF73 JUMPI JUMPDEST POP POP POP DUP2 SHL ADD SWAP1 SSTORE PUSH2 0xEDA JUMP JUMPDEST ADD MLOAD PUSH1 0x0 NOT PUSH1 0xF8 DUP5 PUSH1 0x3 SHL AND SHR NOT AND SWAP1 SSTORE DUP8 DUP1 DUP1 PUSH2 0xF66 JUMP JUMPDEST DUP4 DUP4 ADD MLOAD DUP10 SSTORE PUSH1 0x1 SWAP1 SWAP9 ADD SWAP8 PUSH1 0x20 SWAP4 DUP5 ADD SWAP4 ADD PUSH2 0xF29 JUMP JUMPDEST DUP3 PUSH1 0x0 MSTORE PUSH1 0x20 PUSH1 0x0 KECCAK256 PUSH1 0x1F DUP4 ADD PUSH1 0x5 SHR DUP2 ADD SWAP2 PUSH1 0x20 DUP5 LT PUSH2 0xFE2 JUMPI JUMPDEST PUSH1 0x1F ADD PUSH1 0x5 SHR ADD SWAP1 JUMPDEST DUP2 DUP2 LT PUSH2 0xFD6 JUMPI POP PUSH2 0xE84 JUMP JUMPDEST PUSH1 0x0 DUP2 SSTORE PUSH1 0x1 ADD PUSH2 0xFC9 JUMP JUMPDEST SWAP1 SWAP2 POP DUP2 SWAP1 PUSH2 0xFC0 JUMP JUMPDEST PUSH1 0x40 MLOAD PUSH3 0x461BCD PUSH1 0xE5 SHL DUP2 MSTORE PUSH1 0x20 PUSH1 0x4 DUP3 ADD MSTORE PUSH1 0x19 PUSH1 0x24 DUP3 ADD MSTORE PUSH32 0x53656C6C657220697320616C726561647920626C6F636B656400000000000000 PUSH1 0x44 DUP3 ADD MSTORE PUSH1 0x64 SWAP1 REVERT JUMPDEST POP DUP1 PUSH1 0x0 MSTORE PUSH1 0x4 PUSH1 0x20 MSTORE PUSH1 0x2 PUSH1 0x40 PUSH1 0x0 KECCAK256 ADD SLOAD ISZERO PUSH2 0xD9C JUMP JUMPDEST PUSH1 0x40 MLOAD PUSH3 0x461BCD PUSH1 0xE5 SHL DUP2 MSTORE PUSH1 0x20 PUSH1 0x4 DUP3 ADD MSTORE PUSH1 0x27 PUSH1 0x24 DUP3 ADD MSTORE PUSH32 0x596F75206861766520616C7265616479207265706F7274656420746869732070 PUSH1 0x44 DUP3 ADD MSTORE PUSH7 0x75726368617365 PUSH1 0xC8 SHL PUSH1 0x64 DUP3 ADD MSTORE PUSH1 0x84 SWAP1 REVERT JUMPDEST PUSH1 0x64 PUSH1 0x40 MLOAD PUSH3 0x461BCD PUSH1 0xE5 SHL DUP2 MSTORE PUSH1 0x20 PUSH1 0x4 DUP3 ADD MSTORE PUSH1 0x20 PUSH1 0x24 DUP3 ADD MSTORE PUSH32 0x596F7520646964206E6F742063616E63656C2074686973207075726368617365 PUSH1 0x44 DUP3 ADD MSTORE REVERT JUMPDEST PUSH1 0x40 MLOAD PUSH3 0x461BCD PUSH1 0xE5 SHL DUP2 MSTORE PUSH1 0x20 PUSH1 0x4 DUP3 ADD MSTORE PUSH1 0x1E PUSH1 0x24 DUP3 ADD MSTORE PUSH32 0x507572636861736520686173206E6F74206265656E2063616E63656C65640000 PUSH1 0x44 DUP3 ADD MSTORE PUSH1 0x64 SWAP1 REVERT JUMPDEST CALLVALUE PUSH2 0x171 JUMPI PUSH1 0x0 CALLDATASIZE PUSH1 0x3 NOT ADD SLT PUSH2 0x171 JUMPI PUSH1 0x0 SLOAD PUSH1 0x40 MLOAD PUSH1 0x1 PUSH1 0x1 PUSH1 0xA0 SHL SUB SWAP1 SWAP2 AND DUP2 MSTORE PUSH1 0x20 SWAP1 RETURN JUMPDEST CALLVALUE PUSH2 0x171 JUMPI PUSH1 0x20 CALLDATASIZE PUSH1 0x3 NOT ADD SLT PUSH2 0x171 JUMPI PUSH1 0x4 CALLDATALOAD PUSH1 0x0 DUP2 DUP2 MSTORE PUSH1 0x3 PUSH1 0x20 MSTORE PUSH1 0x40 SWAP1 KECCAK256 PUSH1 0x5 DUP2 ADD DUP1 SLOAD SWAP1 SWAP2 SWAP1 PUSH1 0x1 PUSH1 0x1 PUSH1 0xA0 SHL SUB AND CALLER SUB PUSH2 0x1309 JUMPI PUSH1 0x4 DUP2 ADD SWAP2 PUSH1 0xFF DUP4 SLOAD PUSH1 0xA0 SHR AND PUSH2 0x12C4 JUMPI PUSH1 0x3 DUP3 ADD SWAP4 PUSH2 0x1218 PUSH1 0x20 DUP7 SLOAD PUSH2 0x11C5 PUSH2 0x11BC PUSH1 0x64 PUSH2 0x303 PUSH1 0xA SLOAD DUP6 PUSH2 0x220D JUMP JUMPDEST SWAP2 PUSH1 0xD SLOAD PUSH2 0x222D JUMP JUMPDEST PUSH1 0xD SSTORE DUP7 SLOAD PUSH1 0xFF PUSH1 0xA0 SHL NOT DUP2 AND PUSH1 0x1 PUSH1 0xA0 SHL OR DUP9 SSTORE PUSH1 0x1 SLOAD PUSH1 0x40 MLOAD PUSH4 0xA9059CBB PUSH1 0xE0 SHL DUP2 MSTORE PUSH1 0x1 PUSH1 0x1 PUSH1 0xA0 SHL SUB SWAP3 DUP4 AND PUSH1 0x4 DUP3 ADD MSTORE PUSH1 0x24 DUP2 ADD SWAP4 SWAP1 SWAP4 MSTORE SWAP2 SWAP4 DUP5 SWAP3 SWAP1 SWAP2 AND SWAP1 DUP3 SWAP1 PUSH1 0x0 SWAP1 DUP3 SWAP1 PUSH1 0x44 DUP3 ADD SWAP1 JUMP JUMPDEST SUB SWAP3 GAS CALL DUP1 ISZERO PUSH2 0x49C JUMPI PUSH2 0x12A7 JUMPI JUMPDEST POP PUSH1 0x1 DUP1 PUSH1 0xA0 SHL SUB DUP5 SLOAD AND PUSH1 0x0 MSTORE PUSH1 0x4 PUSH1 0x20 MSTORE PUSH1 0x2 PUSH1 0x40 PUSH1 0x0 KECCAK256 ADD SWAP2 DUP3 SLOAD SWAP5 PUSH1 0x1 DUP7 ADD DUP1 SWAP7 GT PUSH2 0x459 JUMPI SWAP5 SWAP1 SWAP3 SSTORE SWAP4 SLOAD SWAP3 SLOAD SWAP1 SLOAD PUSH1 0x40 MLOAD PUSH32 0x9620B27BE3795A0CE7111C8E7168631996E44DD6A5F7CC7234C970605378CCC8 SWAP6 SWAP1 SWAP5 DUP6 SWAP5 PUSH2 0x12A2 SWAP5 PUSH1 0x1 PUSH1 0x1 PUSH1 0xA0 SHL SUB SWAP5 DUP6 AND SWAP5 AND SWAP3 PUSH1 0x1 SWAP1 SWAP2 ADD SWAP1 DUP7 PUSH2 0x2147 JUMP JUMPDEST SUB SWAP1 LOG1 STOP JUMPDEST PUSH2 0x12BF SWAP1 PUSH1 0x20 RETURNDATASIZE PUSH1 0x20 GT PUSH2 0x495 JUMPI PUSH2 0x488 DUP2 DUP4 PUSH2 0x1FC4 JUMP JUMPDEST PUSH2 0x1227 JUMP JUMPDEST PUSH1 0x40 MLOAD PUSH3 0x461BCD PUSH1 0xE5 SHL DUP2 MSTORE PUSH1 0x20 PUSH1 0x4 DUP3 ADD MSTORE PUSH1 0x17 PUSH1 0x24 DUP3 ADD MSTORE PUSH32 0x50726F6475637420697320616C726561647920736F6C64000000000000000000 PUSH1 0x44 DUP3 ADD MSTORE PUSH1 0x64 SWAP1 REVERT JUMPDEST PUSH1 0x40 MLOAD PUSH3 0x461BCD PUSH1 0xE5 SHL DUP2 MSTORE PUSH1 0x20 PUSH1 0x4 DUP3 ADD MSTORE PUSH1 0x26 PUSH1 0x24 DUP3 ADD MSTORE PUSH32 0x4F6E6C79207468652062757965722063616E20636F6E6669726D207468652070 PUSH1 0x44 DUP3 ADD MSTORE PUSH6 0x185E5B595B9D PUSH1 0xD2 SHL PUSH1 0x64 DUP3 ADD MSTORE PUSH1 0x84 SWAP1 REVERT JUMPDEST CALLVALUE PUSH2 0x171 JUMPI PUSH1 0x20 CALLDATASIZE PUSH1 0x3 NOT ADD SLT PUSH2 0x171 JUMPI PUSH1 0x4 CALLDATALOAD PUSH1 0x0 MSTORE PUSH1 0x3 PUSH1 0x20 MSTORE PUSH1 0x40 PUSH1 0x0 KECCAK256 DUP1 SLOAD PUSH2 0x138C PUSH1 0x1 DUP4 ADD PUSH2 0x1FE5 JUMP JUMPDEST SWAP2 PUSH2 0x1399 PUSH1 0x2 DUP3 ADD PUSH2 0x1FE5 JUMP JUMPDEST PUSH1 0xFF PUSH1 0x3 DUP4 ADD SLOAD SWAP3 PUSH2 0x13E4 PUSH1 0x4 DUP3 ADD SLOAD SWAP2 PUSH1 0x5 PUSH1 0x1 DUP1 PUSH1 0xA0 SHL SUB SWAP2 ADD SLOAD AND SWAP4 PUSH2 0x13D6 PUSH1 0x40 MLOAD SWAP9 DUP10 SWAP9 DUP10 MSTORE PUSH2 0x100 PUSH1 0x20 DUP11 ADD MSTORE PUSH2 0x100 DUP10 ADD SWAP1 PUSH2 0x2089 JUMP JUMPDEST SWAP1 DUP8 DUP3 SUB PUSH1 0x40 DUP10 ADD MSTORE PUSH2 0x2089 JUMP JUMPDEST PUSH1 0x60 DUP7 ADD SWAP5 SWAP1 SWAP5 MSTORE PUSH1 0x1 PUSH1 0x1 PUSH1 0xA0 SHL SUB DUP2 AND PUSH1 0x80 DUP7 ADD MSTORE PUSH1 0xA0 DUP2 DUP2 SHR DUP4 AND ISZERO ISZERO SWAP1 DUP7 ADD MSTORE PUSH1 0xA8 SHR AND ISZERO ISZERO PUSH1 0xC0 DUP5 ADD MSTORE PUSH1 0xE0 DUP4 ADD MSTORE SUB SWAP1 RETURN JUMPDEST CALLVALUE PUSH2 0x171 JUMPI PUSH1 0x0 CALLDATASIZE PUSH1 0x3 NOT ADD SLT PUSH2 0x171 JUMPI PUSH2 0x1435 PUSH2 0x223A JUMP JUMPDEST PUSH1 0x0 DUP1 SLOAD PUSH1 0x1 PUSH1 0x1 PUSH1 0xA0 SHL SUB NOT DUP2 AND DUP3 SSTORE PUSH1 0x1 PUSH1 0x1 PUSH1 0xA0 SHL SUB AND PUSH32 0x8BE0079C531659141344CD1FD0A4F28419497F9722A3DAAFE3B4186F6B6457E0 DUP3 DUP1 LOG3 STOP JUMPDEST CALLVALUE PUSH2 0x171 JUMPI PUSH1 0x20 CALLDATASIZE PUSH1 0x3 NOT ADD SLT PUSH2 0x171 JUMPI PUSH1 0x1 PUSH1 0x1 PUSH1 0xA0 SHL SUB PUSH2 0x1496 PUSH2 0x1F42 JUMP JUMPDEST AND PUSH1 0x0 MSTORE PUSH1 0x4 PUSH1 0x20 MSTORE PUSH2 0x14EA PUSH1 0x40 PUSH1 0x0 KECCAK256 PUSH2 0x14B0 DUP2 PUSH2 0x1FE5 JUMP JUMPDEST SWAP1 PUSH2 0x14BD PUSH1 0x1 DUP3 ADD PUSH2 0x1FE5 JUMP JUMPDEST PUSH1 0x2 DUP3 ADD SLOAD SWAP2 PUSH1 0x3 DUP2 ADD SLOAD PUSH2 0x14F8 PUSH1 0x5 PUSH1 0x4 DUP5 ADD SLOAD SWAP4 ADD SLOAD SWAP4 PUSH1 0x40 MLOAD SWAP8 DUP9 SWAP8 PUSH1 0xC0 DUP10 MSTORE PUSH1 0xC0 DUP10 ADD SWAP1 PUSH2 0x2089 JUMP JUMPDEST SWAP1 DUP8 DUP3 SUB PUSH1 0x20 DUP10 ADD MSTORE PUSH2 0x2089 JUMP JUMPDEST SWAP4 PUSH1 0x40 DUP7 ADD MSTORE PUSH1 0x60 DUP6 ADD MSTORE PUSH1 0x80 DUP5 ADD MSTORE PUSH1 0xA0 DUP4 ADD MSTORE SUB SWAP1 RETURN JUMPDEST CALLVALUE PUSH2 0x171 JUMPI PUSH1 0x0 CALLDATASIZE PUSH1 0x3 NOT ADD SLT PUSH2 0x171 JUMPI PUSH1 0x20 PUSH1 0xD SLOAD PUSH1 0x40 MLOAD SWAP1 DUP2 MSTORE RETURN JUMPDEST CALLVALUE PUSH2 0x171 JUMPI PUSH1 0x0 CALLDATASIZE PUSH1 0x3 NOT ADD SLT PUSH2 0x171 JUMPI PUSH1 0x20 PUSH1 0xC SLOAD PUSH1 0x40 MLOAD SWAP1 DUP2 MSTORE RETURN JUMPDEST CALLVALUE PUSH2 0x171 JUMPI PUSH1 0x0 CALLDATASIZE PUSH1 0x3 NOT ADD SLT PUSH2 0x171 JUMPI PUSH2 0x1566 PUSH2 0x223A JUMP JUMPDEST PUSH1 0x1 SLOAD PUSH1 0x0 DUP1 SLOAD PUSH1 0xD SLOAD PUSH1 0x40 MLOAD PUSH4 0xA9059CBB PUSH1 0xE0 SHL DUP2 MSTORE PUSH1 0x1 PUSH1 0x1 PUSH1 0xA0 SHL SUB SWAP3 DUP4 AND PUSH1 0x4 DUP3 ADD MSTORE PUSH1 0x24 DUP2 ADD SWAP2 SWAP1 SWAP2 MSTORE SWAP3 PUSH1 0x20 SWAP3 DUP5 SWAP3 PUSH1 0x44 SWAP3 DUP5 SWAP3 SWAP2 AND GAS CALL DUP1 ISZERO PUSH2 0x49C JUMPI PUSH2 0x15B6 JUMPI JUMPDEST PUSH1 0x0 PUSH1 0xD SSTORE STOP JUMPDEST PUSH2 0x15CE SWAP1 PUSH1 0x20 RETURNDATASIZE PUSH1 0x20 GT PUSH2 0x495 JUMPI PUSH2 0x488 DUP2 DUP4 PUSH2 0x1FC4 JUMP JUMPDEST PUSH2 0x15AF JUMP JUMPDEST CALLVALUE PUSH2 0x171 JUMPI PUSH1 0x20 CALLDATASIZE PUSH1 0x3 NOT ADD SLT PUSH2 0x171 JUMPI PUSH1 0x4 CALLDATALOAD DUP1 PUSH1 0x0 MSTORE PUSH1 0x3 PUSH1 0x20 MSTORE PUSH1 0x40 PUSH1 0x0 KECCAK256 PUSH1 0x4 DUP2 ADD SWAP2 DUP3 SLOAD SWAP3 PUSH1 0x1 DUP1 PUSH1 0xA0 SHL SUB DUP5 AND SWAP3 DUP1 SLOAD DUP1 ISZERO ISZERO SWAP1 DUP2 PUSH2 0x18AA JUMPI JUMPDEST POP ISZERO PUSH2 0x186C JUMPI PUSH1 0x3 DUP2 ADD SWAP2 PUSH1 0x44 DUP4 SLOAD PUSH1 0x20 PUSH1 0x1 DUP1 PUSH1 0xA0 SHL SUB PUSH1 0x1 SLOAD AND PUSH1 0x40 MLOAD SWAP4 DUP5 DUP1 SWAP3 PUSH4 0x6EB1769F PUSH1 0xE1 SHL DUP3 MSTORE CALLER PUSH1 0x4 DUP4 ADD MSTORE ADDRESS PUSH1 0x24 DUP4 ADD MSTORE GAS STATICCALL SWAP2 DUP3 ISZERO PUSH2 0x49C JUMPI PUSH1 0x0 SWAP3 PUSH2 0x1838 JUMPI JUMPDEST POP GT PUSH2 0x17D8 JUMPI PUSH1 0xFF DUP7 PUSH1 0xA8 SHR AND PUSH2 0x1793 JUMPI CALLER DUP6 EQ PUSH2 0x1742 JUMPI PUSH1 0xFF PUSH1 0xA8 SHL NOT SWAP1 SWAP6 AND PUSH1 0x1 PUSH1 0xA8 SHL OR SWAP1 SWAP5 SSTORE PUSH1 0x5 DUP5 ADD DUP1 SLOAD PUSH1 0x1 PUSH1 0x1 PUSH1 0xA0 SHL SUB NOT AND CALLER SWAP1 DUP2 OR SWAP1 SWAP2 SSTORE PUSH1 0x1 SLOAD DUP3 SLOAD PUSH1 0x40 MLOAD PUSH4 0x23B872DD PUSH1 0xE0 SHL DUP2 MSTORE PUSH1 0x4 DUP2 ADD SWAP4 SWAP1 SWAP4 MSTORE ADDRESS PUSH1 0x24 DUP5 ADD MSTORE PUSH1 0x44 DUP4 ADD MSTORE SWAP1 SWAP5 SWAP1 PUSH1 0x20 SWAP1 DUP7 SWAP1 PUSH1 0x64 SWAP1 DUP3 SWAP1 PUSH1 0x0 SWAP1 PUSH1 0x1 PUSH1 0x1 PUSH1 0xA0 SHL SUB AND GAS CALL SWAP2 DUP3 ISZERO PUSH2 0x49C JUMPI PUSH32 0x64F41258F3D51A589CEA8504D1F51403F46583535A3E84E2CBE3F8D50674D00B SWAP6 PUSH2 0x12A2 SWAP4 PUSH2 0x1725 JUMPI JUMPDEST POP SLOAD SWAP4 PUSH1 0x40 MLOAD SWAP5 DUP6 SWAP5 PUSH1 0x1 CALLER SWAP5 ADD SWAP1 DUP7 PUSH2 0x2147 JUMP JUMPDEST PUSH2 0x173D SWAP1 PUSH1 0x20 RETURNDATASIZE PUSH1 0x20 GT PUSH2 0x495 JUMPI PUSH2 0x488 DUP2 DUP4 PUSH2 0x1FC4 JUMP JUMPDEST PUSH2 0x1710 JUMP JUMPDEST PUSH1 0x40 MLOAD PUSH3 0x461BCD PUSH1 0xE5 SHL DUP2 MSTORE PUSH1 0x20 PUSH1 0x4 DUP3 ADD MSTORE PUSH1 0x23 PUSH1 0x24 DUP3 ADD MSTORE PUSH32 0x53656C6C65722063616E6E6F7420627579207468656972206F776E2070726F64 PUSH1 0x44 DUP3 ADD MSTORE PUSH3 0x1D58DD PUSH1 0xEA SHL PUSH1 0x64 DUP3 ADD MSTORE PUSH1 0x84 SWAP1 REVERT JUMPDEST PUSH1 0x40 MLOAD PUSH3 0x461BCD PUSH1 0xE5 SHL DUP2 MSTORE PUSH1 0x20 PUSH1 0x4 DUP3 ADD MSTORE PUSH1 0x1B PUSH1 0x24 DUP3 ADD MSTORE PUSH32 0x50726F6475637420697320616C7265616479207061696420666F720000000000 PUSH1 0x44 DUP3 ADD MSTORE PUSH1 0x64 SWAP1 REVERT JUMPDEST PUSH1 0x40 MLOAD PUSH3 0x461BCD PUSH1 0xE5 SHL DUP2 MSTORE PUSH1 0x20 PUSH1 0x4 DUP3 ADD MSTORE PUSH1 0x32 PUSH1 0x24 DUP3 ADD MSTORE PUSH32 0x4E6F7420656E6F756768205553445420616C6C6F77616E636520746F20707572 PUSH1 0x44 DUP3 ADD MSTORE PUSH18 0x18DA185CD9481D1A1A5CC81C1C9BD91D58DD PUSH1 0x72 SHL PUSH1 0x64 DUP3 ADD MSTORE PUSH1 0x84 SWAP1 REVERT JUMPDEST SWAP1 SWAP2 POP PUSH1 0x20 DUP2 RETURNDATASIZE PUSH1 0x20 GT PUSH2 0x1864 JUMPI JUMPDEST DUP2 PUSH2 0x1854 PUSH1 0x20 SWAP4 DUP4 PUSH2 0x1FC4 JUMP JUMPDEST DUP2 ADD SUB SLT PUSH2 0x171 JUMPI MLOAD SWAP1 DUP9 PUSH2 0x165D JUMP JUMPDEST RETURNDATASIZE SWAP2 POP PUSH2 0x1847 JUMP JUMPDEST PUSH1 0x40 MLOAD PUSH3 0x461BCD PUSH1 0xE5 SHL DUP2 MSTORE PUSH1 0x20 PUSH1 0x4 DUP3 ADD MSTORE PUSH1 0x16 PUSH1 0x24 DUP3 ADD MSTORE PUSH22 0x141C9BD91D58DD08191BD95CC81B9BDD08195E1A5CDD PUSH1 0x52 SHL PUSH1 0x44 DUP3 ADD MSTORE PUSH1 0x64 SWAP1 REVERT JUMPDEST SWAP1 POP PUSH1 0x2 SLOAD LT ISZERO DUP7 PUSH2 0x1613 JUMP JUMPDEST CALLVALUE PUSH2 0x171 JUMPI PUSH1 0x40 CALLDATASIZE PUSH1 0x3 NOT ADD SLT PUSH2 0x171 JUMPI PUSH1 0x4 CALLDATALOAD PUSH1 0x1 PUSH1 0x1 PUSH1 0x40 SHL SUB DUP2 GT PUSH2 0x171 JUMPI PUSH2 0x18E7 SWAP1 CALLDATASIZE SWAP1 PUSH1 0x4 ADD PUSH2 0x20CA JUMP JUMPDEST PUSH1 0x24 CALLDATALOAD PUSH1 0x1 PUSH1 0x1 PUSH1 0x40 SHL SUB DUP2 GT PUSH2 0x171 JUMPI PUSH2 0x1906 SWAP1 CALLDATASIZE SWAP1 PUSH1 0x4 ADD PUSH2 0x20CA JUMP JUMPDEST SWAP1 DUP1 MLOAD ISZERO PUSH2 0x1CD0 JUMPI DUP2 MLOAD ISZERO PUSH2 0x1C8B JUMPI CALLER PUSH1 0x0 MSTORE PUSH1 0x4 PUSH1 0x20 MSTORE PUSH2 0x192C PUSH1 0x40 PUSH1 0x0 KECCAK256 SLOAD PUSH2 0x1F6E JUMP JUMPDEST PUSH2 0x1C46 JUMPI PUSH1 0x40 MLOAD PUSH1 0xC0 DUP2 ADD DUP2 DUP2 LT PUSH1 0x1 PUSH1 0x1 PUSH1 0x40 SHL SUB DUP3 GT OR PUSH2 0xA54 JUMPI PUSH1 0x40 MSTORE DUP2 DUP2 MSTORE PUSH1 0x20 DUP2 ADD DUP4 DUP2 MSTORE PUSH1 0x40 DUP3 ADD PUSH1 0x0 DUP2 MSTORE PUSH1 0x60 DUP4 ADD PUSH1 0x0 DUP2 MSTORE PUSH1 0x80 DUP5 ADD SWAP2 PUSH1 0x0 DUP4 MSTORE PUSH1 0xA0 DUP6 ADD SWAP4 PUSH1 0x0 DUP6 MSTORE CALLER PUSH1 0x0 MSTORE PUSH1 0x4 PUSH1 0x20 MSTORE PUSH1 0x40 PUSH1 0x0 KECCAK256 SWAP6 MLOAD DUP1 MLOAD SWAP1 PUSH1 0x1 PUSH1 0x1 PUSH1 0x40 SHL SUB DUP3 GT PUSH2 0xA54 JUMPI DUP2 SWAP1 PUSH2 0x19A5 DUP10 SLOAD PUSH2 0x1F6E JUMP JUMPDEST PUSH1 0x1F DUP2 GT PUSH2 0x1BF3 JUMPI JUMPDEST POP PUSH1 0x20 SWAP1 PUSH1 0x1F DUP4 GT PUSH1 0x1 EQ PUSH2 0x1B8E JUMPI PUSH1 0x0 SWAP3 PUSH2 0x1B83 JUMPI JUMPDEST POP POP DUP2 PUSH1 0x1 SHL SWAP2 PUSH1 0x0 NOT SWAP1 PUSH1 0x3 SHL SHR NOT AND OR DUP7 SSTORE JUMPDEST MLOAD DUP1 MLOAD PUSH1 0x1 DUP8 ADD SWAP2 PUSH1 0x1 PUSH1 0x1 PUSH1 0x40 SHL SUB DUP3 GT PUSH2 0xA54 JUMPI PUSH2 0x19FA DUP4 SLOAD PUSH2 0x1F6E JUMP JUMPDEST PUSH1 0x1F DUP2 GT PUSH2 0x1B3B JUMPI JUMPDEST POP PUSH1 0x20 SWAP1 PUSH1 0x1F DUP4 GT PUSH1 0x1 EQ PUSH2 0x1AA7 JUMPI SWAP3 DUP3 PUSH1 0x5 SWAP7 SWAP4 PUSH32 0x29A886814235A877CF2FF5DF3C674A946B17782BF260CA120B7B951A6D35CC6 SWAP12 SWAP10 SWAP7 SWAP4 PUSH2 0x1A8D SWAP12 SWAP10 SWAP7 PUSH1 0x0 SWAP3 PUSH2 0x1A9C JUMPI JUMPDEST POP POP DUP2 PUSH1 0x1 SHL SWAP2 PUSH1 0x0 NOT SWAP1 PUSH1 0x3 SHL SHR NOT AND OR SWAP1 SSTORE JUMPDEST MLOAD PUSH1 0x2 DUP7 ADD SSTORE MLOAD PUSH1 0x3 DUP6 ADD SSTORE MLOAD PUSH1 0x4 DUP5 ADD SSTORE MLOAD SWAP2 ADD SSTORE PUSH2 0xF07 PUSH1 0x40 MLOAD SWAP3 DUP4 SWAP3 PUSH1 0x40 DUP5 MSTORE PUSH1 0x40 DUP5 ADD SWAP1 PUSH2 0x2089 JUMP JUMPDEST DUP3 DUP2 SUB PUSH1 0x20 DUP5 ADD MSTORE CALLER SWAP6 PUSH2 0x2089 JUMP JUMPDEST ADD MLOAD SWAP1 POP DUP14 DUP1 PUSH2 0x1A4B JUMP JUMPDEST SWAP1 PUSH1 0x1F NOT DUP4 AND SWAP2 DUP5 PUSH1 0x0 MSTORE DUP2 PUSH1 0x0 KECCAK256 SWAP3 PUSH1 0x0 JUMPDEST DUP2 DUP2 LT PUSH2 0x1B23 JUMPI POP SWAP4 PUSH32 0x29A886814235A877CF2FF5DF3C674A946B17782BF260CA120B7B951A6D35CC6 SWAP12 SWAP10 SWAP7 SWAP4 PUSH2 0x1A8D SWAP12 SWAP10 SWAP7 SWAP4 PUSH1 0x1 SWAP4 DUP4 PUSH1 0x5 SWAP12 SWAP9 LT PUSH2 0x1B0A JUMPI JUMPDEST POP POP POP DUP2 SHL ADD SWAP1 SSTORE PUSH2 0x1A60 JUMP JUMPDEST ADD MLOAD PUSH1 0x0 NOT PUSH1 0xF8 DUP5 PUSH1 0x3 SHL AND SHR NOT AND SWAP1 SSTORE DUP14 DUP1 DUP1 PUSH2 0x1AFD JUMP JUMPDEST SWAP3 SWAP4 PUSH1 0x20 PUSH1 0x1 DUP2 SWAP3 DUP8 DUP7 ADD MLOAD DUP2 SSTORE ADD SWAP6 ADD SWAP4 ADD PUSH2 0x1ABA JUMP JUMPDEST DUP4 PUSH1 0x0 MSTORE PUSH1 0x20 PUSH1 0x0 KECCAK256 PUSH1 0x1F DUP5 ADD PUSH1 0x5 SHR DUP2 ADD SWAP2 PUSH1 0x20 DUP6 LT PUSH2 0x1B79 JUMPI JUMPDEST PUSH1 0x1F ADD PUSH1 0x5 SHR ADD SWAP1 JUMPDEST DUP2 DUP2 LT PUSH2 0x1B6D JUMPI POP PUSH2 0x1A03 JUMP JUMPDEST PUSH1 0x0 DUP2 SSTORE PUSH1 0x1 ADD PUSH2 0x1B60 JUMP JUMPDEST SWAP1 SWAP2 POP DUP2 SWAP1 PUSH2 0x1B57 JUMP JUMPDEST ADD MLOAD SWAP1 POP DUP11 DUP1 PUSH2 0x19C5 JUMP JUMPDEST PUSH1 0x0 DUP11 DUP2 MSTORE DUP3 DUP2 KECCAK256 SWAP4 POP PUSH1 0x1F NOT DUP6 AND SWAP1 JUMPDEST DUP2 DUP2 LT PUSH2 0x1BDB JUMPI POP SWAP1 DUP5 PUSH1 0x1 SWAP6 SWAP5 SWAP4 SWAP3 LT PUSH2 0x1BC2 JUMPI JUMPDEST POP POP POP DUP2 SHL ADD DUP7 SSTORE PUSH2 0x19DA JUMP JUMPDEST ADD MLOAD PUSH1 0x0 NOT PUSH1 0xF8 DUP5 PUSH1 0x3 SHL AND SHR NOT AND SWAP1 SSTORE DUP11 DUP1 DUP1 PUSH2 0x1BB5 JUMP JUMPDEST SWAP3 SWAP4 PUSH1 0x20 PUSH1 0x1 DUP2 SWAP3 DUP8 DUP7 ADD MLOAD DUP2 SSTORE ADD SWAP6 ADD SWAP4 ADD PUSH2 0x1B9F JUMP JUMPDEST SWAP1 SWAP2 POP DUP9 PUSH1 0x0 MSTORE PUSH1 0x20 PUSH1 0x0 KECCAK256 PUSH1 0x1F DUP5 ADD PUSH1 0x5 SHR DUP2 ADD SWAP2 PUSH1 0x20 DUP6 LT PUSH2 0x1C3C JUMPI JUMPDEST SWAP1 PUSH1 0x1F DUP6 SWAP5 SWAP4 SWAP3 ADD PUSH1 0x5 SHR ADD SWAP1 JUMPDEST DUP2 DUP2 LT PUSH2 0x1C2D JUMPI POP PUSH2 0x19AE JUMP JUMPDEST PUSH1 0x0 DUP2 SSTORE DUP5 SWAP4 POP PUSH1 0x1 ADD PUSH2 0x1C20 JUMP JUMPDEST SWAP1 SWAP2 POP DUP2 SWAP1 PUSH2 0x1C12 JUMP JUMPDEST PUSH1 0x40 MLOAD PUSH3 0x461BCD PUSH1 0xE5 SHL DUP2 MSTORE PUSH1 0x20 PUSH1 0x4 DUP3 ADD MSTORE PUSH1 0x19 PUSH1 0x24 DUP3 ADD MSTORE PUSH32 0x53656C6C657220616C7265616479207265676973746572656400000000000000 PUSH1 0x44 DUP3 ADD MSTORE PUSH1 0x64 SWAP1 REVERT JUMPDEST PUSH1 0x40 MLOAD PUSH3 0x461BCD PUSH1 0xE5 SHL DUP2 MSTORE PUSH1 0x20 PUSH1 0x4 DUP3 ADD MSTORE PUSH1 0x17 PUSH1 0x24 DUP3 ADD MSTORE PUSH32 0x50726F66696C6520555249206973207265717569726564000000000000000000 PUSH1 0x44 DUP3 ADD MSTORE PUSH1 0x64 SWAP1 REVERT JUMPDEST PUSH1 0x40 MLOAD PUSH3 0x461BCD PUSH1 0xE5 SHL DUP2 MSTORE PUSH1 0x20 PUSH1 0x4 DUP3 ADD MSTORE PUSH1 0x17 PUSH1 0x24 DUP3 ADD MSTORE PUSH32 0x53656C6C6572206E616D65206973207265717569726564000000000000000000 PUSH1 0x44 DUP3 ADD MSTORE PUSH1 0x64 SWAP1 REVERT JUMPDEST CALLVALUE PUSH2 0x171 JUMPI PUSH1 0x0 CALLDATASIZE PUSH1 0x3 NOT ADD SLT PUSH2 0x171 JUMPI PUSH1 0x20 PUSH1 0xB SLOAD PUSH1 0x40 MLOAD SWAP1 DUP2 MSTORE RETURN JUMPDEST CALLVALUE PUSH2 0x171 JUMPI PUSH1 0x20 CALLDATASIZE PUSH1 0x3 NOT ADD SLT PUSH2 0x171 JUMPI PUSH1 0x1 PUSH1 0x1 PUSH1 0xA0 SHL SUB PUSH2 0x1D54 PUSH2 0x1F42 JUMP JUMPDEST AND PUSH1 0x0 SWAP1 DUP2 MSTORE PUSH1 0x5 PUSH1 0x20 MSTORE PUSH1 0x40 SWAP1 KECCAK256 DUP1 SLOAD PUSH1 0x1 PUSH1 0x1 PUSH1 0xA0 SHL SUB AND SWAP1 PUSH2 0x1D7B SWAP1 PUSH1 0x1 ADD PUSH2 0x1FE5 JUMP JUMPDEST SWAP1 PUSH2 0x1D98 PUSH1 0x40 MLOAD SWAP3 DUP4 SWAP3 DUP4 MSTORE PUSH1 0x40 PUSH1 0x20 DUP5 ADD MSTORE PUSH1 0x40 DUP4 ADD SWAP1 PUSH2 0x2089 JUMP JUMPDEST SUB SWAP1 RETURN JUMPDEST CALLVALUE PUSH2 0x171 JUMPI PUSH1 0x40 CALLDATASIZE PUSH1 0x3 NOT ADD SLT PUSH2 0x171 JUMPI PUSH2 0x1DB5 PUSH2 0x1F58 JUMP JUMPDEST PUSH1 0x4 CALLDATALOAD PUSH1 0x0 MSTORE PUSH1 0x7 PUSH1 0x20 MSTORE PUSH1 0x40 PUSH1 0x0 KECCAK256 SWAP1 PUSH1 0x1 DUP1 PUSH1 0xA0 SHL SUB AND PUSH1 0x0 MSTORE PUSH1 0x20 MSTORE PUSH1 0x20 PUSH1 0xFF PUSH1 0x40 PUSH1 0x0 KECCAK256 SLOAD AND PUSH1 0x40 MLOAD SWAP1 ISZERO ISZERO DUP2 MSTORE RETURN JUMPDEST CALLVALUE PUSH2 0x171 JUMPI PUSH1 0x20 CALLDATASIZE PUSH1 0x3 NOT ADD SLT PUSH2 0x171 JUMPI PUSH1 0x1 PUSH1 0x1 PUSH1 0xA0 SHL SUB PUSH2 0x1E0A PUSH2 0x1F42 JUMP JUMPDEST AND SWAP1 DUP2 PUSH1 0x0 MSTORE PUSH1 0x4 PUSH1 0x20 MSTORE PUSH1 0x2 PUSH1 0x40 PUSH1 0x0 KECCAK256 ADD SLOAD ISZERO PUSH2 0x1EF4 JUMPI POP PUSH1 0x0 DUP2 DUP2 MSTORE PUSH1 0x4 PUSH1 0x20 MSTORE PUSH1 0x40 SWAP1 KECCAK256 PUSH1 0x5 DUP2 ADD SLOAD PUSH1 0x2 SWAP1 SWAP2 ADD SLOAD GT ISZERO PUSH2 0x1E9E JUMPI DUP1 PUSH1 0x0 MSTORE PUSH1 0x4 PUSH1 0x20 MSTORE PUSH1 0x5 PUSH1 0x40 PUSH1 0x0 KECCAK256 ADD PUSH2 0x1E5E DUP2 SLOAD PUSH2 0x2120 JUMP JUMPDEST SWAP1 SSTORE DUP1 PUSH1 0x0 MSTORE PUSH1 0x4 PUSH1 0x20 MSTORE PUSH32 0xD2A39A6FC73E40B10A3CE1AF8481F31B1454FC9A86710F826BEF0DC3F812D6C PUSH1 0x20 PUSH1 0x5 PUSH1 0x40 PUSH1 0x0 KECCAK256 ADD SLOAD PUSH1 0x40 MLOAD SWAP1 DUP2 MSTORE LOG2 STOP JUMPDEST PUSH1 0x40 MLOAD PUSH3 0x461BCD PUSH1 0xE5 SHL DUP2 MSTORE PUSH1 0x20 PUSH1 0x4 DUP3 ADD MSTORE PUSH1 0x28 PUSH1 0x24 DUP3 ADD MSTORE PUSH32 0x526174696E672063616E6E6F742065786365656420636F6E6669726D65642070 PUSH1 0x44 DUP3 ADD MSTORE PUSH8 0x7572636861736573 PUSH1 0xC0 SHL PUSH1 0x64 DUP3 ADD MSTORE PUSH1 0x84 SWAP1 REVERT JUMPDEST PUSH3 0x461BCD PUSH1 0xE5 SHL DUP2 MSTORE PUSH1 0x20 PUSH1 0x4 DUP3 ADD MSTORE PUSH1 0x24 DUP1 DUP3 ADD MSTORE PUSH32 0x53656C6C6572206D757374206861766520636F6E6669726D6564207075726368 PUSH1 0x44 DUP3 ADD MSTORE PUSH4 0x61736573 PUSH1 0xE0 SHL PUSH1 0x64 DUP3 ADD MSTORE PUSH1 0x84 SWAP1 REVERT JUMPDEST PUSH1 0x4 CALLDATALOAD SWAP1 PUSH1 0x1 PUSH1 0x1 PUSH1 0xA0 SHL SUB DUP3 AND DUP3 SUB PUSH2 0x171 JUMPI JUMP JUMPDEST PUSH1 0x24 CALLDATALOAD SWAP1 PUSH1 0x1 PUSH1 0x1 PUSH1 0xA0 SHL SUB DUP3 AND DUP3 SUB PUSH2 0x171 JUMPI JUMP JUMPDEST SWAP1 PUSH1 0x1 DUP3 DUP2 SHR SWAP3 AND DUP1 ISZERO PUSH2 0x1F9E JUMPI JUMPDEST PUSH1 0x20 DUP4 LT EQ PUSH2 0x1F88 JUMPI JUMP JUMPDEST PUSH4 0x4E487B71 PUSH1 0xE0 SHL PUSH1 0x0 MSTORE PUSH1 0x22 PUSH1 0x4 MSTORE PUSH1 0x24 PUSH1 0x0 REVERT JUMPDEST SWAP2 PUSH1 0x7F AND SWAP2 PUSH2 0x1F7D JUMP JUMPDEST PUSH2 0x100 DUP2 ADD SWAP1 DUP2 LT PUSH1 0x1 PUSH1 0x1 PUSH1 0x40 SHL SUB DUP3 GT OR PUSH2 0xA54 JUMPI PUSH1 0x40 MSTORE JUMP JUMPDEST SWAP1 PUSH1 0x1F DUP1 NOT SWAP2 ADD AND DUP2 ADD SWAP1 DUP2 LT PUSH1 0x1 PUSH1 0x1 PUSH1 0x40 SHL SUB DUP3 GT OR PUSH2 0xA54 JUMPI PUSH1 0x40 MSTORE JUMP JUMPDEST SWAP1 PUSH1 0x40 MLOAD SWAP2 DUP3 PUSH1 0x0 DUP3 SLOAD SWAP3 PUSH2 0x1FF9 DUP5 PUSH2 0x1F6E JUMP JUMPDEST DUP1 DUP5 MSTORE SWAP4 PUSH1 0x1 DUP2 AND SWAP1 DUP2 ISZERO PUSH2 0x2067 JUMPI POP PUSH1 0x1 EQ PUSH2 0x2020 JUMPI JUMPDEST POP PUSH2 0x201E SWAP3 POP SUB DUP4 PUSH2 0x1FC4 JUMP JUMPDEST JUMP JUMPDEST SWAP1 POP PUSH1 0x0 SWAP3 SWAP2 SWAP3 MSTORE PUSH1 0x20 PUSH1 0x0 KECCAK256 SWAP1 PUSH1 0x0 SWAP2 JUMPDEST DUP2 DUP4 LT PUSH2 0x204B JUMPI POP POP SWAP1 PUSH1 0x20 PUSH2 0x201E SWAP3 DUP3 ADD ADD CODESIZE PUSH2 0x2011 JUMP JUMPDEST PUSH1 0x20 SWAP2 SWAP4 POP DUP1 PUSH1 0x1 SWAP2 SLOAD DUP4 DUP6 DUP10 ADD ADD MSTORE ADD SWAP2 ADD SWAP1 SWAP2 DUP5 SWAP3 PUSH2 0x2032 JUMP JUMPDEST SWAP1 POP PUSH1 0x20 SWAP3 POP PUSH2 0x201E SWAP5 SWAP2 POP PUSH1 0xFF NOT AND DUP3 DUP5 ADD MSTORE ISZERO ISZERO PUSH1 0x5 SHL DUP3 ADD ADD CODESIZE PUSH2 0x2011 JUMP JUMPDEST SWAP2 SWAP1 DUP3 MLOAD SWAP3 DUP4 DUP3 MSTORE PUSH1 0x0 JUMPDEST DUP5 DUP2 LT PUSH2 0x20B5 JUMPI POP POP DUP3 PUSH1 0x0 PUSH1 0x20 DUP1 SWAP5 SWAP6 DUP5 ADD ADD MSTORE PUSH1 0x1F DUP1 NOT SWAP2 ADD AND ADD ADD SWAP1 JUMP JUMPDEST DUP1 PUSH1 0x20 DUP1 SWAP3 DUP5 ADD ADD MLOAD DUP3 DUP3 DUP7 ADD ADD MSTORE ADD PUSH2 0x2094 JUMP JUMPDEST DUP2 PUSH1 0x1F DUP3 ADD SLT ISZERO PUSH2 0x171 JUMPI DUP1 CALLDATALOAD SWAP1 PUSH1 0x1 PUSH1 0x1 PUSH1 0x40 SHL SUB DUP3 GT PUSH2 0xA54 JUMPI PUSH1 0x40 MLOAD SWAP3 PUSH2 0x20FE PUSH1 0x1F DUP5 ADD PUSH1 0x1F NOT AND PUSH1 0x20 ADD DUP6 PUSH2 0x1FC4 JUMP JUMPDEST DUP3 DUP5 MSTORE PUSH1 0x20 DUP4 DUP4 ADD ADD GT PUSH2 0x171 JUMPI DUP2 PUSH1 0x0 SWAP3 PUSH1 0x20 DUP1 SWAP4 ADD DUP4 DUP7 ADD CALLDATACOPY DUP4 ADD ADD MSTORE SWAP1 JUMP JUMPDEST PUSH1 0x0 NOT DUP2 EQ PUSH2 0x459 JUMPI PUSH1 0x1 ADD SWAP1 JUMP JUMPDEST SWAP1 DUP2 PUSH1 0x20 SWAP2 SUB SLT PUSH2 0x171 JUMPI MLOAD DUP1 ISZERO ISZERO DUP2 SUB PUSH2 0x171 JUMPI SWAP1 JUMP JUMPDEST SWAP4 SWAP2 SWAP1 SWAP6 SWAP5 SWAP3 SWAP6 DUP5 MSTORE PUSH1 0xC0 PUSH1 0x20 DUP6 ADD MSTORE PUSH1 0x0 SWAP1 DUP1 SLOAD SWAP1 PUSH2 0x2166 DUP3 PUSH2 0x1F6E JUMP JUMPDEST SWAP2 DUP3 PUSH1 0xC0 DUP9 ADD MSTORE PUSH1 0x1 DUP2 AND SWAP1 DUP2 PUSH1 0x0 EQ PUSH2 0x21E7 JUMPI POP PUSH1 0x1 EQ PUSH2 0x21AD JUMPI JUMPDEST POP POP PUSH1 0x40 DUP5 ADD SWAP6 SWAP1 SWAP6 MSTORE PUSH1 0x1 PUSH1 0x1 PUSH1 0xA0 SHL SUB SWAP1 DUP2 AND PUSH1 0x60 DUP5 ADD MSTORE AND PUSH1 0x80 DUP3 ADD MSTORE PUSH1 0x1 PUSH1 0xA0 SWAP1 SWAP2 ADD MSTORE JUMP JUMPDEST PUSH1 0x0 SWAP1 DUP2 MSTORE PUSH1 0x20 DUP2 KECCAK256 SWAP1 SWAP3 POP JUMPDEST DUP2 DUP4 LT PUSH2 0x21D0 JUMPI POP POP DUP4 ADD PUSH1 0xE0 ADD DUP2 PUSH1 0xA0 PUSH2 0x2183 JUMP JUMPDEST DUP1 SLOAD PUSH1 0xE0 DUP5 DUP9 ADD ADD MSTORE PUSH1 0x20 SWAP1 SWAP3 ADD SWAP2 PUSH1 0x1 ADD PUSH2 0x21BA JUMP JUMPDEST PUSH1 0xFF NOT AND PUSH1 0xE0 DUP9 DUP2 ADD SWAP2 SWAP1 SWAP2 MSTORE SWAP3 ISZERO ISZERO PUSH1 0x5 SHL DUP8 ADD SWAP1 SWAP3 ADD SWAP3 POP DUP4 SWAP2 POP PUSH1 0xA0 SWAP1 POP PUSH2 0x2183 JUMP JUMPDEST DUP2 DUP2 MUL SWAP3 SWAP2 DUP2 ISZERO SWAP2 DUP5 DIV EQ OR ISZERO PUSH2 0x459 JUMPI JUMP JUMPDEST SWAP2 SWAP1 DUP3 SUB SWAP2 DUP3 GT PUSH2 0x459 JUMPI JUMP JUMPDEST SWAP2 SWAP1 DUP3 ADD DUP1 SWAP3 GT PUSH2 0x459 JUMPI JUMP JUMPDEST PUSH1 0x0 SLOAD PUSH1 0x1 PUSH1 0x1 PUSH1 0xA0 SHL SUB AND CALLER SUB PUSH2 0x224E JUMPI JUMP JUMPDEST PUSH4 0x118CDAA7 PUSH1 0xE0 SHL PUSH1 0x0 MSTORE CALLER PUSH1 0x4 MSTORE PUSH1 0x24 PUSH1 0x0 REVERT INVALID LOG2 PUSH5 0x6970667358 0x22 SLT KECCAK256 DUP9 PUSH0 CALLVALUE PUSH32 0xA447FEA7A2D517DB72DFBF667851604BFAAB661CA6AB79A8B26A18D364736F6C PUSH4 0x4300081C STOP CALLER "
        },
        "methodIdentifiers": {
          "blockedSellers(address)": "1205de47",
          "buyerCanceled(uint256,address)": "f6139f03",
          "cancelPurchase(uint256)": "c3634ddc",
          "canceledPurchases(uint256)": "ec1a9e88",
          "cancellationPenaltyPercentage()": "5e00d856",
          "confirmPayment(uint256)": "876ca09f",
          "createProduct(string,string,uint256)": "a1422209",
          "feePercentage()": "a001ecdd",
          "getProduct(uint256)": "b9db15b4",
          "hasReported(uint256,address)": "0f0c3fc4",
          "isSellerBlocked(address)": "fd660d68",
          "owner()": "8da5cb5b",
          "penaltyPercentage()": "15908d51",
          "productCount()": "e0f6ef87",
          "products(uint256)": "7acc0b20",
          "purchaseProduct(uint256)": "38e76a03",
          "rateSeller(address)": "09f5d7ac",
          "registerSeller(string,string)": "318fd93d",
          "renounceOwnership()": "715018a6",
          "reportCanceledPurchase(uint256)": "9833dcfa",
          "sellers(address)": "6d47ab72",
          "totalFeesCollected()": "60c6d8ae",
          "transferOwnership(address)": "f2fde38b",
          "usdtToken()": "a98ad46c",
          "withdrawFees()": "476343ee"
        }
      }
    }
  }
}