{
  "contracts/ECommerce.sol": {
    "ECommerce": {
      "abi": [
        {
          "inputs": [
            {
              "internalType": "address",
              "name": "_usdtTokenAddress",
              "type": "address"
            }
          ],
          "stateMutability": "nonpayable",
          "type": "constructor"
        },
        {
          "inputs": [
            {
              "internalType": "address",
              "name": "owner",
              "type": "address"
            }
          ],
          "name": "OwnableInvalidOwner",
          "type": "error"
        },
        {
          "inputs": [
            {
              "internalType": "address",
              "name": "account",
              "type": "address"
            }
          ],
          "name": "OwnableUnauthorizedAccount",
          "type": "error"
        },
        {
          "anonymous": false,
          "inputs": [
            {
              "indexed": true,
              "internalType": "address",
              "name": "previousOwner",
              "type": "address"
            },
            {
              "indexed": true,
              "internalType": "address",
              "name": "newOwner",
              "type": "address"
            }
          ],
          "name": "OwnershipTransferred",
          "type": "event"
        },
        {
          "anonymous": false,
          "inputs": [
            {
              "indexed": false,
              "internalType": "uint256",
              "name": "id",
              "type": "uint256"
            },
            {
              "indexed": false,
              "internalType": "string",
              "name": "name",
              "type": "string"
            },
            {
              "indexed": false,
              "internalType": "uint256",
              "name": "price",
              "type": "uint256"
            },
            {
              "indexed": false,
              "internalType": "address payable",
              "name": "seller",
              "type": "address"
            },
            {
              "indexed": false,
              "internalType": "address payable",
              "name": "buyer",
              "type": "address"
            },
            {
              "indexed": false,
              "internalType": "bool",
              "name": "isSold",
              "type": "bool"
            }
          ],
          "name": "PaymentConfirmed",
          "type": "event"
        },
        {
          "anonymous": false,
          "inputs": [
            {
              "indexed": false,
              "internalType": "uint256",
              "name": "id",
              "type": "uint256"
            },
            {
              "indexed": false,
              "internalType": "string",
              "name": "name",
              "type": "string"
            },
            {
              "indexed": false,
              "internalType": "string",
              "name": "imageUrl",
              "type": "string"
            },
            {
              "indexed": false,
              "internalType": "uint256",
              "name": "price",
              "type": "uint256"
            },
            {
              "indexed": false,
              "internalType": "address payable",
              "name": "seller",
              "type": "address"
            },
            {
              "indexed": false,
              "internalType": "string",
              "name": "sellerName",
              "type": "string"
            },
            {
              "indexed": false,
              "internalType": "bool",
              "name": "isSold",
              "type": "bool"
            },
            {
              "indexed": false,
              "internalType": "bool",
              "name": "isPaid",
              "type": "bool"
            }
          ],
          "name": "ProductCreated",
          "type": "event"
        },
        {
          "anonymous": false,
          "inputs": [
            {
              "indexed": false,
              "internalType": "uint256",
              "name": "id",
              "type": "uint256"
            },
            {
              "indexed": false,
              "internalType": "string",
              "name": "name",
              "type": "string"
            },
            {
              "indexed": false,
              "internalType": "uint256",
              "name": "price",
              "type": "uint256"
            },
            {
              "indexed": false,
              "internalType": "address payable",
              "name": "seller",
              "type": "address"
            },
            {
              "indexed": false,
              "internalType": "address payable",
              "name": "buyer",
              "type": "address"
            },
            {
              "indexed": false,
              "internalType": "bool",
              "name": "isPaid",
              "type": "bool"
            }
          ],
          "name": "ProductPurchased",
          "type": "event"
        },
        {
          "anonymous": false,
          "inputs": [
            {
              "indexed": true,
              "internalType": "address",
              "name": "sellerAddress",
              "type": "address"
            },
            {
              "indexed": false,
              "internalType": "string",
              "name": "reason",
              "type": "string"
            }
          ],
          "name": "SellerBlocked",
          "type": "event"
        },
        {
          "anonymous": false,
          "inputs": [
            {
              "indexed": true,
              "internalType": "address",
              "name": "sellerAddress",
              "type": "address"
            },
            {
              "indexed": false,
              "internalType": "uint256",
              "name": "rating",
              "type": "uint256"
            }
          ],
          "name": "SellerRated",
          "type": "event"
        },
        {
          "anonymous": false,
          "inputs": [
            {
              "indexed": true,
              "internalType": "address",
              "name": "sellerAddress",
              "type": "address"
            },
            {
              "indexed": false,
              "internalType": "string",
              "name": "name",
              "type": "string"
            },
            {
              "indexed": false,
              "internalType": "string",
              "name": "profileURI",
              "type": "string"
            }
          ],
          "name": "SellerRegistered",
          "type": "event"
        },
        {
          "inputs": [
            {
              "internalType": "address",
              "name": "",
              "type": "address"
            }
          ],
          "name": "blockedSellers",
          "outputs": [
            {
              "internalType": "address",
              "name": "sellerAddress",
              "type": "address"
            },
            {
              "internalType": "string",
              "name": "reason",
              "type": "string"
            }
          ],
          "stateMutability": "view",
          "type": "function"
        },
        {
          "inputs": [
            {
              "internalType": "uint256",
              "name": "",
              "type": "uint256"
            },
            {
              "internalType": "address",
              "name": "",
              "type": "address"
            }
          ],
          "name": "buyerCanceled",
          "outputs": [
            {
              "internalType": "bool",
              "name": "",
              "type": "bool"
            }
          ],
          "stateMutability": "view",
          "type": "function"
        },
        {
          "inputs": [
            {
              "internalType": "uint256",
              "name": "_id",
              "type": "uint256"
            }
          ],
          "name": "cancelPurchase",
          "outputs": [],
          "stateMutability": "nonpayable",
          "type": "function"
        },
        {
          "inputs": [
            {
              "internalType": "uint256",
              "name": "",
              "type": "uint256"
            }
          ],
          "name": "canceledPurchases",
          "outputs": [
            {
              "internalType": "bool",
              "name": "",
              "type": "bool"
            }
          ],
          "stateMutability": "view",
          "type": "function"
        },
        {
          "inputs": [],
          "name": "cancellationPenaltyPercentage",
          "outputs": [
            {
              "internalType": "uint256",
              "name": "",
              "type": "uint256"
            }
          ],
          "stateMutability": "view",
          "type": "function"
        },
        {
          "inputs": [
            {
              "internalType": "uint256",
              "name": "_id",
              "type": "uint256"
            }
          ],
          "name": "confirmPayment",
          "outputs": [],
          "stateMutability": "nonpayable",
          "type": "function"
        },
        {
          "inputs": [
            {
              "internalType": "string",
              "name": "_name",
              "type": "string"
            },
            {
              "internalType": "string",
              "name": "_imageUrl",
              "type": "string"
            },
            {
              "internalType": "uint256",
              "name": "_price",
              "type": "uint256"
            },
            {
              "internalType": "string",
              "name": "_description",
              "type": "string"
            }
          ],
          "name": "createProduct",
          "outputs": [],
          "stateMutability": "nonpayable",
          "type": "function"
        },
        {
          "inputs": [],
          "name": "feePercentage",
          "outputs": [
            {
              "internalType": "uint256",
              "name": "",
              "type": "uint256"
            }
          ],
          "stateMutability": "view",
          "type": "function"
        },
        {
          "inputs": [
            {
              "internalType": "uint256",
              "name": "_id",
              "type": "uint256"
            }
          ],
          "name": "getProduct",
          "outputs": [
            {
              "components": [
                {
                  "internalType": "uint256",
                  "name": "id",
                  "type": "uint256"
                },
                {
                  "internalType": "string",
                  "name": "name",
                  "type": "string"
                },
                {
                  "internalType": "string",
                  "name": "imageUrl",
                  "type": "string"
                },
                {
                  "internalType": "uint256",
                  "name": "price",
                  "type": "uint256"
                },
                {
                  "internalType": "address payable",
                  "name": "seller",
                  "type": "address"
                },
                {
                  "internalType": "string",
                  "name": "sellerName",
                  "type": "string"
                },
                {
                  "internalType": "bool",
                  "name": "isSold",
                  "type": "bool"
                },
                {
                  "internalType": "bool",
                  "name": "isPaid",
                  "type": "bool"
                },
                {
                  "internalType": "address payable",
                  "name": "buyer",
                  "type": "address"
                },
                {
                  "internalType": "string",
                  "name": "description",
                  "type": "string"
                }
              ],
              "internalType": "struct ECommerce.Product",
              "name": "",
              "type": "tuple"
            }
          ],
          "stateMutability": "view",
          "type": "function"
        },
        {
          "inputs": [
            {
              "internalType": "uint256",
              "name": "_id",
              "type": "uint256"
            }
          ],
          "name": "getSellerDetails",
          "outputs": [
            {
              "components": [
                {
                  "internalType": "string",
                  "name": "location",
                  "type": "string"
                },
                {
                  "internalType": "string",
                  "name": "phoneNumber",
                  "type": "string"
                }
              ],
              "internalType": "struct ECommerce.SellerContact",
              "name": "",
              "type": "tuple"
            }
          ],
          "stateMutability": "view",
          "type": "function"
        },
        {
          "inputs": [
            {
              "internalType": "uint256",
              "name": "",
              "type": "uint256"
            },
            {
              "internalType": "address",
              "name": "",
              "type": "address"
            }
          ],
          "name": "hasReported",
          "outputs": [
            {
              "internalType": "bool",
              "name": "",
              "type": "bool"
            }
          ],
          "stateMutability": "view",
          "type": "function"
        },
        {
          "inputs": [
            {
              "internalType": "address",
              "name": "",
              "type": "address"
            }
          ],
          "name": "isSellerBlocked",
          "outputs": [
            {
              "internalType": "bool",
              "name": "",
              "type": "bool"
            }
          ],
          "stateMutability": "view",
          "type": "function"
        },
        {
          "inputs": [],
          "name": "owner",
          "outputs": [
            {
              "internalType": "address",
              "name": "",
              "type": "address"
            }
          ],
          "stateMutability": "view",
          "type": "function"
        },
        {
          "inputs": [],
          "name": "penaltyPercentage",
          "outputs": [
            {
              "internalType": "uint256",
              "name": "",
              "type": "uint256"
            }
          ],
          "stateMutability": "view",
          "type": "function"
        },
        {
          "inputs": [],
          "name": "productCount",
          "outputs": [
            {
              "internalType": "uint256",
              "name": "",
              "type": "uint256"
            }
          ],
          "stateMutability": "view",
          "type": "function"
        },
        {
          "inputs": [
            {
              "internalType": "uint256",
              "name": "",
              "type": "uint256"
            }
          ],
          "name": "products",
          "outputs": [
            {
              "internalType": "uint256",
              "name": "id",
              "type": "uint256"
            },
            {
              "internalType": "string",
              "name": "name",
              "type": "string"
            },
            {
              "internalType": "string",
              "name": "imageUrl",
              "type": "string"
            },
            {
              "internalType": "uint256",
              "name": "price",
              "type": "uint256"
            },
            {
              "internalType": "address payable",
              "name": "seller",
              "type": "address"
            },
            {
              "internalType": "string",
              "name": "sellerName",
              "type": "string"
            },
            {
              "internalType": "bool",
              "name": "isSold",
              "type": "bool"
            },
            {
              "internalType": "bool",
              "name": "isPaid",
              "type": "bool"
            },
            {
              "internalType": "address payable",
              "name": "buyer",
              "type": "address"
            },
            {
              "internalType": "string",
              "name": "description",
              "type": "string"
            }
          ],
          "stateMutability": "view",
          "type": "function"
        },
        {
          "inputs": [
            {
              "internalType": "uint256",
              "name": "_id",
              "type": "uint256"
            }
          ],
          "name": "purchaseProduct",
          "outputs": [],
          "stateMutability": "nonpayable",
          "type": "function"
        },
        {
          "inputs": [
            {
              "internalType": "address",
              "name": "_seller",
              "type": "address"
            }
          ],
          "name": "rateSeller",
          "outputs": [],
          "stateMutability": "nonpayable",
          "type": "function"
        },
        {
          "inputs": [
            {
              "internalType": "string",
              "name": "_name",
              "type": "string"
            },
            {
              "internalType": "string",
              "name": "_profileURI",
              "type": "string"
            },
            {
              "internalType": "string",
              "name": "_location",
              "type": "string"
            },
            {
              "internalType": "string",
              "name": "_phoneNumber",
              "type": "string"
            }
          ],
          "name": "registerSeller",
          "outputs": [],
          "stateMutability": "nonpayable",
          "type": "function"
        },
        {
          "inputs": [],
          "name": "renounceOwnership",
          "outputs": [],
          "stateMutability": "nonpayable",
          "type": "function"
        },
        {
          "inputs": [
            {
              "internalType": "uint256",
              "name": "_id",
              "type": "uint256"
            }
          ],
          "name": "reportCanceledPurchase",
          "outputs": [],
          "stateMutability": "nonpayable",
          "type": "function"
        },
        {
          "inputs": [
            {
              "internalType": "address",
              "name": "",
              "type": "address"
            }
          ],
          "name": "sellerContacts",
          "outputs": [
            {
              "internalType": "string",
              "name": "location",
              "type": "string"
            },
            {
              "internalType": "string",
              "name": "phoneNumber",
              "type": "string"
            }
          ],
          "stateMutability": "view",
          "type": "function"
        },
        {
          "inputs": [
            {
              "internalType": "address",
              "name": "",
              "type": "address"
            }
          ],
          "name": "sellers",
          "outputs": [
            {
              "internalType": "string",
              "name": "name",
              "type": "string"
            },
            {
              "internalType": "string",
              "name": "profileURI",
              "type": "string"
            },
            {
              "internalType": "uint256",
              "name": "confirmedPurchases",
              "type": "uint256"
            },
            {
              "internalType": "uint256",
              "name": "canceledPurchases",
              "type": "uint256"
            },
            {
              "internalType": "uint256",
              "name": "reportedPurchases",
              "type": "uint256"
            },
            {
              "internalType": "uint256",
              "name": "rating",
              "type": "uint256"
            }
          ],
          "stateMutability": "view",
          "type": "function"
        },
        {
          "inputs": [],
          "name": "totalFeesCollected",
          "outputs": [
            {
              "internalType": "uint256",
              "name": "",
              "type": "uint256"
            }
          ],
          "stateMutability": "view",
          "type": "function"
        },
        {
          "inputs": [
            {
              "internalType": "address",
              "name": "newOwner",
              "type": "address"
            }
          ],
          "name": "transferOwnership",
          "outputs": [],
          "stateMutability": "nonpayable",
          "type": "function"
        },
        {
          "inputs": [],
          "name": "usdtToken",
          "outputs": [
            {
              "internalType": "contract IERC20",
              "name": "",
              "type": "address"
            }
          ],
          "stateMutability": "view",
          "type": "function"
        },
        {
          "inputs": [],
          "name": "withdrawFees",
          "outputs": [],
          "stateMutability": "nonpayable",
          "type": "function"
        }
      ],
      "evm": {
        "bytecode": {
          "linkReferences": {},
          "object": "6080346100eb57601f612c2e38819003918201601f19168301916001600160401b038311848410176100f0578084926020946040528339810103126100eb57516001600160a01b038116908190036100eb5733156100d55760008054336001600160a01b0319821681178355604051939290916001600160a01b0316907f8be0079c531659141344cd1fd0a4f28419497f9722a3daafe3b4186f6b6457e09080a360006002556005600b556003600c55600a600d556000600e5560018060a01b03196001541617600155612b2790816101078239f35b631e4fbdf760e01b600052600060045260246000fd5b600080fd5b634e487b7160e01b600052604160045260246000fdfe608080604052600436101561001357600080fd5b60003560e01c90816309f5d7ac146125f1575080630f0c3fc4146125a45780631205de471461253f57806312c8919614611d0a57806315908d5114611cec57806315c24ed91461158a5780632d24077d146113e557806338e76a0314611142578063476343ee146110bc5780635e00d8561461109e57806360c6d8ae14611080578063633c3b0d1461102c5780636d47ab7214610f90578063715018a614610f375780637acc0b2014610e3e578063876ca09f14610c3b5780638da5cb5b14610c125780639833dcfa14610784578063a001ecdd14610766578063a98ad46c1461073d578063b9db15b41461056f578063c3634ddc146102b1578063e0f6ef8714610293578063ec1a9e8814610262578063f2fde38b146101d9578063f6139f031461018c5763fd660d681461014857600080fd5b34610187576020366003190112610187576001600160a01b0361016961274a565b166000526007602052602060ff604060002054166040519015158152f35b600080fd5b34610187576040366003190112610187576101a5612760565b600435600052600a60205260406000209060018060a01b0316600052602052602060ff604060002054166040519015158152f35b34610187576020366003190112610187576101f261274a565b6101fa612ac8565b6001600160a01b0316801561024c57600080546001600160a01b03198116831782556001600160a01b0316907f8be0079c531659141344cd1fd0a4f28419497f9722a3daafe3b4186f6b6457e09080a3005b631e4fbdf760e01b600052600060045260246000fd5b34610187576020366003190112610187576004356000526009602052602060ff604060002054166040519015158152f35b34610187576000366003190112610187576020600254604051908152f35b3461018757602036600319011261018757600435806000526003602052604060002090600682019182543360018060a01b038260101c160361051b5760081c60ff16156104df576103916003820154602061031b6064610313600d5485612a9b565b048093612aae565b610340610337606461032f600c5487612a9b565b048095612aae565b93600e54612abb565b600e55865461ff00198116885560015460405163a9059cbb60e01b81526001600160a01b0360109390931c831660048201526024810193909352919485929190911690829060009082906044820190565b03925af19081156104b8576103f0926020926104c4575b506001546004948501805460405163a9059cbb60e01b81526001600160a01b039182169781019790975260248701939093529493849290911690829060009082906044820190565b03925af180156104b85761048b575b50546001600160a01b0316600090815260046020526040902060030180546001810191908210610475575560009081526009602090815260408083208054600160ff199182168117909255600a8452828520338652909352922080549091169091179055805462010000600160b01b0319169055005b634e487b7160e01b600052601160045260246000fd5b6104ac9060203d6020116104b1575b6104a481836127e7565b810190612a42565b6103ff565b503d61049a565b6040513d6000823e3d90fd5b6104da90833d85116104b1576104a481836127e7565b6103a8565b60405162461bcd60e51b8152602060048201526014602482015273283937b23ab1ba103737ba103830b4b2103337b960611b6044820152606490fd5b60405162461bcd60e51b815260206004820152602660248201527f4f6e6c79207468652062757965722063616e2063616e63656c2074686520707560448201526572636861736560d01b6064820152608490fd5b34610187576020366003190112610187576060610120604051610591816127b0565b60008152826020820152826040820152600083820152600060808201528260a0820152600060c0820152600060e08201526000610100820152015260043560005260036020526101606040600020610739604051916105ef836127b0565b805483526105ff60018201612808565b926020810193845261061360028301612808565b6040820190815260038301546060830190815260048401546001600160a01b0316608084019081529193906107049061064e60058401612808565b60a086019081526006840154946106dc60c088019860ff881615158a526106c961069d600760e08c019960ff8c60081c1615158b526101008d019b60018060a01b039060101c168c5201612808565b9961012081019a8b526040519e8f9e8f92602084525160208401525191610140604082015201906128ac565b90518c8203601f190160608e01526128ac565b925160808b0152516001600160a01b031660a08a015251888203601f190160c08a01526128ac565b9351151560e0870152511515610100860152516001600160a01b031661012085015251838203601f19016101408501526128ac565b0390f35b34610187576000366003190112610187576001546040516001600160a01b039091168152602090f35b34610187576000366003190112610187576020600b54604051908152f35b3461018757602036600319011261018757600435806000526003602052604060002081600052600960205260ff6040600020541615610bcd576000828152600a6020908152604080832033845290915290205460ff1615610b8957600082815260086020908152604080832033845290915290205460ff16610b34576004916000526008602052604060002060018060a01b0333166000526020526040600020600160ff198254161790550160018060a01b0381541660005260046020526004604060002001805490600182018092116104755755546001600160a01b0316600081815260046020819052604090912001546003111580610b1b575b61088657005b604051906108956060836127e7565b602c82527f4d756c7469706c65207265706f7274732077697468206e6f20636f6e6669726d60208301526b65642070757263686173657360a01b604083015280600052600760205260ff60406000205416610ad657604051916108f7836127cc565b8183526020808401828152600084815260069092526040909120935184546001600160a01b0319166001600160a01b03919091161784555180519093600101906001600160401b038111610ac05761094f8254612776565b601f8111610a78575b506020601f82116001146109eb5790806109db9493927fd1ab8ed187c2b3794adb1cc1433a2872e8e959a63970ede2beaec4df3f894bef96976000926109e0575b50508160011b916000199060031b1c19161790555b8360005260076020526040600020600160ff198254161790556040519182916020835260208301906128ac565b0390a2005b015190508780610999565b601f1982169583600052816000209660005b818110610a6057509660019284926109db9796957fd1ab8ed187c2b3794adb1cc1433a2872e8e959a63970ede2beaec4df3f894bef999a10610a47575b505050811b0190556109ae565b015160001960f88460031b161c19169055878080610a3a565b838301518955600190980197602093840193016109fd565b826000526020600020601f830160051c81019160208410610ab6575b601f0160051c01905b818110610aaa5750610958565b60008155600101610a9d565b9091508190610a94565b634e487b7160e01b600052604160045260246000fd5b60405162461bcd60e51b815260206004820152601960248201527f53656c6c657220697320616c726561647920626c6f636b6564000000000000006044820152606490fd5b5080600052600460205260026040600020015415610880565b60405162461bcd60e51b815260206004820152602760248201527f596f75206861766520616c7265616479207265706f72746564207468697320706044820152667572636861736560c81b6064820152608490fd5b606460405162461bcd60e51b815260206004820152602060248201527f596f7520646964206e6f742063616e63656c20746869732070757263686173656044820152fd5b60405162461bcd60e51b815260206004820152601e60248201527f507572636861736520686173206e6f74206265656e2063616e63656c656400006044820152606490fd5b34610187576000366003190112610187576000546040516001600160a01b039091168152602090f35b3461018757602036600319011261018757600435806000526003602052604060002090600682019182543360018060a01b038260101c1603610dea5760ff16610da5576003810192835492610cab610ca26064610c9a600b5488612a9b565b048096612aae565b94600e54612abb565b600e55815460ff191660019081178355546004848101805460405163a9059cbb60e01b81526001600160a01b0391821693810193909352602483019790975295909160209183916044918391600091165af180156104b857610d88575b5060018060a01b03845416600052600460205260026040600020019182549460018601809611610475577f9620b27be3795a0ce7111c8e7168631996e44dd6a5f7cc7234c970605378ccc896600196610d8395555490868060a01b0390541691868060a01b03905460101c1692604051968796019086612a5a565b0390a1005b610da09060203d6020116104b1576104a481836127e7565b610d08565b60405162461bcd60e51b815260206004820152601760248201527f50726f6475637420697320616c726561647920736f6c640000000000000000006044820152606490fd5b60405162461bcd60e51b815260206004820152602660248201527f4f6e6c79207468652062757965722063616e20636f6e6669726d207468652070604482015265185e5b595b9d60d21b6064820152608490fd5b3461018757602036600319011261018757600435600052600360205260406000208054610739610e7060018401612808565b92610e7d60028201612808565b60038201546004830154610efb91906001600160a01b0316610ea160058601612808565b90610ee3610eb6600760068901549801612808565b95610ed56040519b8c9b8c5261014060208d01526101408c01906128ac565b908a820360408c01526128ac565b926060890152608088015286820360a08801526128ac565b60ff808416151560c0870152600884901c16151560e086015260109290921c6001600160a01b03166101008501528382036101208501526128ac565b3461018757600036600319011261018757610f50612ac8565b600080546001600160a01b0319811682556001600160a01b03167f8be0079c531659141344cd1fd0a4f28419497f9722a3daafe3b4186f6b6457e08280a3005b34610187576020366003190112610187576001600160a01b03610fb161274a565b1660005260046020526110056040600020610fcb81612808565b90610fd860018201612808565b6002820154916003810154611013600560048401549301549360405197889760c0895260c08901906128ac565b9087820360208901526128ac565b9360408601526060850152608084015260a08301520390f35b34610187576020366003190112610187576001600160a01b0361104d61274a565b1660005260056020526040600020611070600161106983612808565b9201612808565b9061073960405192839283612943565b34610187576000366003190112610187576020600e54604051908152f35b34610187576000366003190112610187576020600d54604051908152f35b34610187576000366003190112610187576110d5612ac8565b60015460008054600e5460405163a9059cbb60e01b81526001600160a01b0392831660048201526024810191909152926020928492604492849291165af180156104b857611125575b6000600e55005b61113d9060203d6020116104b1576104a481836127e7565b61111e565b346101875760203660031901126101875760043580600052600360205260406000209060018060a01b0360048301541690611188835480151590816113d8575b506129fd565b600383018054600154604051636eb1769f60e11b81523360048201523060248201529190602090839060449082906001600160a01b03165afa9182156104b8576000926113a4575b5011611344576006840193845460ff8160081c166112ff573385146112ae57610100600160b01b0319163360101b62010000600160b01b03161761010017909455600093602060018060a01b03600154166064845460405198899384926323b872dd60e01b845233600485015230602485015260448401525af19182156104b8577f64f41258f3d51a589cea8504d1f51403f46583535a3e84e2cbe3f8d50674d00b95610d8393611291575b50549360405194859460013394019086612a5a565b6112a99060203d6020116104b1576104a481836127e7565b61127c565b60405162461bcd60e51b815260206004820152602360248201527f53656c6c65722063616e6e6f7420627579207468656972206f776e2070726f646044820152621d58dd60ea1b6064820152608490fd5b60405162461bcd60e51b815260206004820152601b60248201527f50726f6475637420697320616c7265616479207061696420666f7200000000006044820152606490fd5b60405162461bcd60e51b815260206004820152603260248201527f4e6f7420656e6f756768205553445420616c6c6f77616e636520746f2070757260448201527118da185cd9481d1a1a5cc81c1c9bd91d58dd60721b6064820152608490fd5b9091506020813d6020116113d0575b816113c0602093836127e7565b81010312610187575190866111d0565b3d91506113b3565b9050600254101585611182565b346101875760203660031901126101875760606020604051611406816127cc565b82815201526004356000526003602052604060002061142f8154801515908161157d57506129fd565b600681015433601082901c6001600160a01b0316036115295760081c60ff16156114cc57600460018060a01b039101541660005260056020526114b96040600020610739611496600160405193611485856127cc565b61148e81612808565b855201612808565b6020830190815260405193849360208552516040602086015260608501906128ac565b9051838203601f190160408501526128ac565b60405162461bcd60e51b815260206004820152602f60248201527f50726f64756374206d757374206265207061696420666f7220746f207669657760448201526e2073656c6c65722064657461696c7360881b6064820152608490fd5b60405162461bcd60e51b815260206004820152602660248201527f4f6e6c79207468652062757965722063616e20766965772073656c6c65722064604482015265657461696c7360d01b6064820152608490fd5b9050600254101583611182565b34610187576080366003190112610187576004356001600160401b038111610187576115ba9036906004016128ed565b6024356001600160401b038111610187576115d99036906004016128ed565b6044356001600160401b038111610187576115f89036906004016128ed565b916064356001600160401b038111610187576116189036906004016128ed565b91815115611ca757805115611c6257835115611c2657825115611be15733600052600460205261164c604060002054612776565b611b9c576040519360c085018581106001600160401b03821117610ac05760405282855260208501948286526040810160008152606082016000815260808301906000825260a084019260008452336000526004602052604060002094518051906001600160401b038211610ac05781906116c78854612776565b601f8111611b49575b50602090601f8311600114611ae457600092611ad9575b50508160011b916000199060031b1c19161785555b600185019951998a516001600160401b038111610ac05761171d8254612776565b601f8111611a91575b506020601f8211600114611a1f578190600598999a9b9c9d600092611a14575b50508160011b916000199060031b1c19161790555b516002860155516003850155516004840155519101556040519061177e826127cc565b815260208101938452336000526005602052604060002090518051906001600160401b038211610ac0576117b28354612776565b601f81116119cc575b50602090601f831160011461196257600193929160009183611957575b5050600019600383901b1c191690831b1781555b0192519283516001600160401b038111610ac05761180a8254612776565b601f811161190f575b506020601f82116001146118825790806109db9493927f029a886814235a877cf2ff5df3c674a946b17782bf260ca120b7b951a6d35cc69697600092611877575b50508160011b916000199060031b1c19161790555b604051918291339583612943565b015190508780611854565b601f1982169583600052816000209660005b8181106118f757509660019284926109db9796957f029a886814235a877cf2ff5df3c674a946b17782bf260ca120b7b951a6d35cc6999a106118de575b505050811b019055611869565b015160001960f88460031b161c191690558780806118d1565b83830151895560019098019760209384019301611894565b826000526020600020601f830160051c8101916020841061194d575b601f0160051c01905b8181106119415750611813565b60008155600101611934565b909150819061192b565b0151905087806117d8565b90601f1983169184600052816000209260005b8181106119b4575091600195949291838795931061199b575b505050811b0181556117ec565b015160001960f88460031b161c1916905587808061198e565b92936020600181928786015181550195019301611975565b836000526020600020601f840160051c81019160208510611a0a575b601f0160051c01905b8181106119fe57506117bb565b600081556001016119f1565b90915081906119e8565b015190508d80611746565b601f1982169c83600052816000209d60005b818110611a745750916005999a9b9c9d9e91846001959410611a5b575b505050811b01905561175b565b015160001960f88460031b161c191690558d8080611a4e565b919e8f60016020928684930151815501940192019e91929e611a31565b826000526020600020601f830160051c81019160208410611acf575b601f0160051c01905b818110611ac35750611726565b60008155600101611ab6565b9091508190611aad565b015190508c806116e7565b60008981528281209350601f198516905b818110611b315750908460019594939210611b18575b505050811b0185556116fc565b015160001960f88460031b161c191690558c8080611b0b565b92936020600181928786015181550195019301611af5565b909150876000526020600020601f840160051c81019160208510611b92575b90601f859493920160051c01905b818110611b8357506116d0565b60008155849350600101611b76565b9091508190611b68565b60405162461bcd60e51b815260206004820152601960248201527f53656c6c657220616c72656164792072656769737465726564000000000000006044820152606490fd5b60405162461bcd60e51b815260206004820152601860248201527f50686f6e65206e756d62657220697320726571756972656400000000000000006044820152606490fd5b60405162461bcd60e51b8152602060048201526014602482015273131bd8d85d1a5bdb881a5cc81c995c5d5a5c995960621b6044820152606490fd5b60405162461bcd60e51b815260206004820152601760248201527f50726f66696c65205552492069732072657175697265640000000000000000006044820152606490fd5b60405162461bcd60e51b815260206004820152601760248201527f53656c6c6572206e616d652069732072657175697265640000000000000000006044820152606490fd5b34610187576000366003190112610187576020600c54604051908152f35b34610187576080366003190112610187576004356001600160401b03811161018757611d3a9036906004016128ed565b6024356001600160401b03811161018757611d599036906004016128ed565b90604435916064356001600160401b03811161018757611d7d9036906004016128ed565b8251156124fa578151156124b55783156124605733600052600760205260ff6040600020541661242757336000526004602052611dbe604060002054612776565b156123ea57611dce60025461296b565b80600255336000526004602052604060002060405191611ded836127b0565b8083526020830186815260408401928684526060850190898252611e176080870191338352612808565b9160a0870192835260c08701956000875260e088019460008652610100890196600088526101208a019a8b5260005260036020526040600020985189556001890190518051906001600160401b038211610ac0578190611e778454612776565b601f8111612397575b50602090601f831160011461233257600092612327575b50508160011b916000199060031b1c19161790555b51805160028901916001600160401b038211610ac0578190611ece8454612776565b601f81116122d4575b50602090601f831160011461226f57600092612264575b50508160011b916000199060031b1c19161790555b516003870155516004860180546001600160a01b0319166001600160a01b039290921691909117905551805160058601916001600160401b038211610ac057611f4c8354612776565b601f811161221c575b50602090601f83116001146121ab579180611fd59694926007999896946000926121a0575b50508160011b916000199060031b1c19161790555b91516006850180549351925162010000600160b01b0360109190911b1661ff0093151560081b9390931691151560ff166001600160b01b03199094169390931717179055565b0190518051906001600160401b038211610ac057611ff38354612776565b601f8111612158575b50602090601f83116001146120cb5791806120ad94927f3affc4e431f993cddab04d3ad4fc278bd89b8267b52d6df20f056551372a0e0b98946000926120c0575b50508160011b916000199060031b1c19161790555b60025492336000526004602052612094604060002091612086604051978897885261010060208901526101008801906128ac565b9086820360408801526128ac565b91606085015233608085015283820360a085015261297a565b600060c0830152600060e08301520390a1005b01519050888061203d565b90601f1983169184600052816000209260005b81811061214057509260019285927f3affc4e431f993cddab04d3ad4fc278bd89b8267b52d6df20f056551372a0e0b9a966120ad989610612127575b505050811b019055612052565b015160001960f88460031b161c1916905588808061211a565b929360206001819287860151815501950193016120de565b836000526020600020601f840160051c81019160208510612196575b601f0160051c01905b81811061218a5750611ffc565b6000815560010161217d565b9091508190612174565b015190508d80611f7a565b90601f1983169184600052816000209260005b818110612204575092600192859260079b9a9896611fd59a9896106121eb575b505050811b019055611f8f565b015160001960f88460031b161c191690558d80806121de565b929360206001819287860151815501950193016121be565b836000526020600020601f840160051c8101916020851061225a575b601f0160051c01905b81811061224e5750611f55565b60008155600101612241565b9091508190612238565b015190508e80611eee565b60008581528281209350601f198516905b8181106122bc57509084600195949392106122a3575b505050811b019055611f03565b015160001960f88460031b161c191690558e8080612296565b92936020600181928786015181550195019301612280565b909150836000526020600020601f840160051c8101916020851061231d575b90601f859493920160051c01905b81811061230e5750611ed7565b60008155849350600101612301565b90915081906122f3565b015190508f80611e97565b60008581528281209350601f198516905b81811061237f5750908460019594939210612366575b505050811b019055611eac565b015160001960f88460031b161c191690558f8080612359565b92936020600181928786015181550195019301612343565b909150836000526020600020601f840160051c810191602085106123e0575b90601f859493920160051c01905b8181106123d15750611e80565b600081558493506001016123c4565b90915081906123b6565b60405162461bcd60e51b815260206004820152601560248201527414d95b1b195c881b9bdd081c9959da5cdd195c9959605a1b6044820152606490fd5b60405162461bcd60e51b815260206004820152601160248201527014d95b1b195c881a5cc8189b1bd8dad959607a1b6044820152606490fd5b60405162461bcd60e51b815260206004820152602760248201527f50726f64756374207072696365206d7573742062652067726561746572207468604482015266616e207a65726f60c81b6064820152608490fd5b60405162461bcd60e51b815260206004820152601d60248201527f50726f6475637420696d6167652055524c2069732072657175697265640000006044820152606490fd5b60405162461bcd60e51b815260206004820152601860248201527f50726f64756374206e616d6520697320726571756972656400000000000000006044820152606490fd5b34610187576020366003190112610187576001600160a01b0361256061274a565b16600090815260066020526040902080546001600160a01b03169061258790600101612808565b9061073960405192839283526040602084015260408301906128ac565b34610187576040366003190112610187576125bd612760565b600435600052600860205260406000209060018060a01b0316600052602052602060ff604060002054166040519015158152f35b34610187576020366003190112610187576001600160a01b0361261261274a565b1690816000526004602052600260406000200154156126fc57506000818152600460205260409020600581015460029091015411156126a6578060005260046020526005604060002001612666815461296b565b90558060005260046020527f0d2a39a6fc73e40b10a3ce1af8481f31b1454fc9a86710f826bef0dc3f812d6c6020600560406000200154604051908152a2005b60405162461bcd60e51b815260206004820152602860248201527f526174696e672063616e6e6f742065786365656420636f6e6669726d65642070604482015267757263686173657360c01b6064820152608490fd5b62461bcd60e51b8152602060048201526024808201527f53656c6c6572206d757374206861766520636f6e6669726d65642070757263686044820152636173657360e01b6064820152608490fd5b600435906001600160a01b038216820361018757565b602435906001600160a01b038216820361018757565b90600182811c921680156127a6575b602083101461279057565b634e487b7160e01b600052602260045260246000fd5b91607f1691612785565b61014081019081106001600160401b03821117610ac057604052565b604081019081106001600160401b03821117610ac057604052565b90601f801991011681019081106001600160401b03821117610ac057604052565b906040519182600082549261281c84612776565b808452936001811690811561288a5750600114612843575b50612841925003836127e7565b565b90506000929192526020600020906000915b81831061286e5750509060206128419282010138612834565b6020919350806001915483858901015201910190918492612855565b90506020925061284194915060ff191682840152151560051b82010138612834565b919082519283825260005b8481106128d8575050826000602080949584010152601f8019910116010190565b806020809284010151828286010152016128b7565b81601f82011215610187578035906001600160401b038211610ac05760405192612921601f8401601f1916602001856127e7565b8284526020838301011161018757816000926020809301838601378301015290565b909161295a612968936040845260408401906128ac565b9160208184039101526128ac565b90565b60001981146104755760010190565b6000929181549161298a83612776565b80835292600181169081156129e057506001146129a657505050565b60009081526020812093945091925b8383106129c6575060209250010190565b6001816020929493945483858701015201910191906129b5565b915050602093945060ff929192191683830152151560051b010190565b15612a0457565b60405162461bcd60e51b8152602060048201526016602482015275141c9bd91d58dd08191bd95cc81b9bdd08195e1a5cdd60521b6044820152606490fd5b90816020910312610187575180151581036101875790565b9193612a7b60019560a095989793855260c0602086015260c085019061297a565b9660408401528480851b031660608301528380841b031660808201520152565b8181029291811591840414171561047557565b9190820391821161047557565b9190820180921161047557565b6000546001600160a01b03163303612adc57565b63118cdaa760e01b6000523360045260246000fdfea26469706673582212206e13b672b117cc937f43c4e4fb65c4802638ef80c1b54bb9cd21c130c0497c5164736f6c634300081c0033",
          "opcodes": "PUSH1 0x80 CALLVALUE PUSH2 0xEB JUMPI PUSH1 0x1F PUSH2 0x2C2E CODESIZE DUP2 SWAP1 SUB SWAP2 DUP3 ADD PUSH1 0x1F NOT AND DUP4 ADD SWAP2 PUSH1 0x1 PUSH1 0x1 PUSH1 0x40 SHL SUB DUP4 GT DUP5 DUP5 LT OR PUSH2 0xF0 JUMPI DUP1 DUP5 SWAP3 PUSH1 0x20 SWAP5 PUSH1 0x40 MSTORE DUP4 CODECOPY DUP2 ADD SUB SLT PUSH2 0xEB JUMPI MLOAD PUSH1 0x1 PUSH1 0x1 PUSH1 0xA0 SHL SUB DUP2 AND SWAP1 DUP2 SWAP1 SUB PUSH2 0xEB JUMPI CALLER ISZERO PUSH2 0xD5 JUMPI PUSH1 0x0 DUP1 SLOAD CALLER PUSH1 0x1 PUSH1 0x1 PUSH1 0xA0 SHL SUB NOT DUP3 AND DUP2 OR DUP4 SSTORE PUSH1 0x40 MLOAD SWAP4 SWAP3 SWAP1 SWAP2 PUSH1 0x1 PUSH1 0x1 PUSH1 0xA0 SHL SUB AND SWAP1 PUSH32 0x8BE0079C531659141344CD1FD0A4F28419497F9722A3DAAFE3B4186F6B6457E0 SWAP1 DUP1 LOG3 PUSH1 0x0 PUSH1 0x2 SSTORE PUSH1 0x5 PUSH1 0xB SSTORE PUSH1 0x3 PUSH1 0xC SSTORE PUSH1 0xA PUSH1 0xD SSTORE PUSH1 0x0 PUSH1 0xE SSTORE PUSH1 0x1 DUP1 PUSH1 0xA0 SHL SUB NOT PUSH1 0x1 SLOAD AND OR PUSH1 0x1 SSTORE PUSH2 0x2B27 SWAP1 DUP2 PUSH2 0x107 DUP3 CODECOPY RETURN JUMPDEST PUSH4 0x1E4FBDF7 PUSH1 0xE0 SHL PUSH1 0x0 MSTORE PUSH1 0x0 PUSH1 0x4 MSTORE PUSH1 0x24 PUSH1 0x0 REVERT JUMPDEST PUSH1 0x0 DUP1 REVERT JUMPDEST PUSH4 0x4E487B71 PUSH1 0xE0 SHL PUSH1 0x0 MSTORE PUSH1 0x41 PUSH1 0x4 MSTORE PUSH1 0x24 PUSH1 0x0 REVERT INVALID PUSH1 0x80 DUP1 PUSH1 0x40 MSTORE PUSH1 0x4 CALLDATASIZE LT ISZERO PUSH2 0x13 JUMPI PUSH1 0x0 DUP1 REVERT JUMPDEST PUSH1 0x0 CALLDATALOAD PUSH1 0xE0 SHR SWAP1 DUP2 PUSH4 0x9F5D7AC EQ PUSH2 0x25F1 JUMPI POP DUP1 PUSH4 0xF0C3FC4 EQ PUSH2 0x25A4 JUMPI DUP1 PUSH4 0x1205DE47 EQ PUSH2 0x253F JUMPI DUP1 PUSH4 0x12C89196 EQ PUSH2 0x1D0A JUMPI DUP1 PUSH4 0x15908D51 EQ PUSH2 0x1CEC JUMPI DUP1 PUSH4 0x15C24ED9 EQ PUSH2 0x158A JUMPI DUP1 PUSH4 0x2D24077D EQ PUSH2 0x13E5 JUMPI DUP1 PUSH4 0x38E76A03 EQ PUSH2 0x1142 JUMPI DUP1 PUSH4 0x476343EE EQ PUSH2 0x10BC JUMPI DUP1 PUSH4 0x5E00D856 EQ PUSH2 0x109E JUMPI DUP1 PUSH4 0x60C6D8AE EQ PUSH2 0x1080 JUMPI DUP1 PUSH4 0x633C3B0D EQ PUSH2 0x102C JUMPI DUP1 PUSH4 0x6D47AB72 EQ PUSH2 0xF90 JUMPI DUP1 PUSH4 0x715018A6 EQ PUSH2 0xF37 JUMPI DUP1 PUSH4 0x7ACC0B20 EQ PUSH2 0xE3E JUMPI DUP1 PUSH4 0x876CA09F EQ PUSH2 0xC3B JUMPI DUP1 PUSH4 0x8DA5CB5B EQ PUSH2 0xC12 JUMPI DUP1 PUSH4 0x9833DCFA EQ PUSH2 0x784 JUMPI DUP1 PUSH4 0xA001ECDD EQ PUSH2 0x766 JUMPI DUP1 PUSH4 0xA98AD46C EQ PUSH2 0x73D JUMPI DUP1 PUSH4 0xB9DB15B4 EQ PUSH2 0x56F JUMPI DUP1 PUSH4 0xC3634DDC EQ PUSH2 0x2B1 JUMPI DUP1 PUSH4 0xE0F6EF87 EQ PUSH2 0x293 JUMPI DUP1 PUSH4 0xEC1A9E88 EQ PUSH2 0x262 JUMPI DUP1 PUSH4 0xF2FDE38B EQ PUSH2 0x1D9 JUMPI DUP1 PUSH4 0xF6139F03 EQ PUSH2 0x18C JUMPI PUSH4 0xFD660D68 EQ PUSH2 0x148 JUMPI PUSH1 0x0 DUP1 REVERT JUMPDEST CALLVALUE PUSH2 0x187 JUMPI PUSH1 0x20 CALLDATASIZE PUSH1 0x3 NOT ADD SLT PUSH2 0x187 JUMPI PUSH1 0x1 PUSH1 0x1 PUSH1 0xA0 SHL SUB PUSH2 0x169 PUSH2 0x274A JUMP JUMPDEST AND PUSH1 0x0 MSTORE PUSH1 0x7 PUSH1 0x20 MSTORE PUSH1 0x20 PUSH1 0xFF PUSH1 0x40 PUSH1 0x0 KECCAK256 SLOAD AND PUSH1 0x40 MLOAD SWAP1 ISZERO ISZERO DUP2 MSTORE RETURN JUMPDEST PUSH1 0x0 DUP1 REVERT JUMPDEST CALLVALUE PUSH2 0x187 JUMPI PUSH1 0x40 CALLDATASIZE PUSH1 0x3 NOT ADD SLT PUSH2 0x187 JUMPI PUSH2 0x1A5 PUSH2 0x2760 JUMP JUMPDEST PUSH1 0x4 CALLDATALOAD PUSH1 0x0 MSTORE PUSH1 0xA PUSH1 0x20 MSTORE PUSH1 0x40 PUSH1 0x0 KECCAK256 SWAP1 PUSH1 0x1 DUP1 PUSH1 0xA0 SHL SUB AND PUSH1 0x0 MSTORE PUSH1 0x20 MSTORE PUSH1 0x20 PUSH1 0xFF PUSH1 0x40 PUSH1 0x0 KECCAK256 SLOAD AND PUSH1 0x40 MLOAD SWAP1 ISZERO ISZERO DUP2 MSTORE RETURN JUMPDEST CALLVALUE PUSH2 0x187 JUMPI PUSH1 0x20 CALLDATASIZE PUSH1 0x3 NOT ADD SLT PUSH2 0x187 JUMPI PUSH2 0x1F2 PUSH2 0x274A JUMP JUMPDEST PUSH2 0x1FA PUSH2 0x2AC8 JUMP JUMPDEST PUSH1 0x1 PUSH1 0x1 PUSH1 0xA0 SHL SUB AND DUP1 ISZERO PUSH2 0x24C JUMPI PUSH1 0x0 DUP1 SLOAD PUSH1 0x1 PUSH1 0x1 PUSH1 0xA0 SHL SUB NOT DUP2 AND DUP4 OR DUP3 SSTORE PUSH1 0x1 PUSH1 0x1 PUSH1 0xA0 SHL SUB AND SWAP1 PUSH32 0x8BE0079C531659141344CD1FD0A4F28419497F9722A3DAAFE3B4186F6B6457E0 SWAP1 DUP1 LOG3 STOP JUMPDEST PUSH4 0x1E4FBDF7 PUSH1 0xE0 SHL PUSH1 0x0 MSTORE PUSH1 0x0 PUSH1 0x4 MSTORE PUSH1 0x24 PUSH1 0x0 REVERT JUMPDEST CALLVALUE PUSH2 0x187 JUMPI PUSH1 0x20 CALLDATASIZE PUSH1 0x3 NOT ADD SLT PUSH2 0x187 JUMPI PUSH1 0x4 CALLDATALOAD PUSH1 0x0 MSTORE PUSH1 0x9 PUSH1 0x20 MSTORE PUSH1 0x20 PUSH1 0xFF PUSH1 0x40 PUSH1 0x0 KECCAK256 SLOAD AND PUSH1 0x40 MLOAD SWAP1 ISZERO ISZERO DUP2 MSTORE RETURN JUMPDEST CALLVALUE PUSH2 0x187 JUMPI PUSH1 0x0 CALLDATASIZE PUSH1 0x3 NOT ADD SLT PUSH2 0x187 JUMPI PUSH1 0x20 PUSH1 0x2 SLOAD PUSH1 0x40 MLOAD SWAP1 DUP2 MSTORE RETURN JUMPDEST CALLVALUE PUSH2 0x187 JUMPI PUSH1 0x20 CALLDATASIZE PUSH1 0x3 NOT ADD SLT PUSH2 0x187 JUMPI PUSH1 0x4 CALLDATALOAD DUP1 PUSH1 0x0 MSTORE PUSH1 0x3 PUSH1 0x20 MSTORE PUSH1 0x40 PUSH1 0x0 KECCAK256 SWAP1 PUSH1 0x6 DUP3 ADD SWAP2 DUP3 SLOAD CALLER PUSH1 0x1 DUP1 PUSH1 0xA0 SHL SUB DUP3 PUSH1 0x10 SHR AND SUB PUSH2 0x51B JUMPI PUSH1 0x8 SHR PUSH1 0xFF AND ISZERO PUSH2 0x4DF JUMPI PUSH2 0x391 PUSH1 0x3 DUP3 ADD SLOAD PUSH1 0x20 PUSH2 0x31B PUSH1 0x64 PUSH2 0x313 PUSH1 0xD SLOAD DUP6 PUSH2 0x2A9B JUMP JUMPDEST DIV DUP1 SWAP4 PUSH2 0x2AAE JUMP JUMPDEST PUSH2 0x340 PUSH2 0x337 PUSH1 0x64 PUSH2 0x32F PUSH1 0xC SLOAD DUP8 PUSH2 0x2A9B JUMP JUMPDEST DIV DUP1 SWAP6 PUSH2 0x2AAE JUMP JUMPDEST SWAP4 PUSH1 0xE SLOAD PUSH2 0x2ABB JUMP JUMPDEST PUSH1 0xE SSTORE DUP7 SLOAD PUSH2 0xFF00 NOT DUP2 AND DUP9 SSTORE PUSH1 0x1 SLOAD PUSH1 0x40 MLOAD PUSH4 0xA9059CBB PUSH1 0xE0 SHL DUP2 MSTORE PUSH1 0x1 PUSH1 0x1 PUSH1 0xA0 SHL SUB PUSH1 0x10 SWAP4 SWAP1 SWAP4 SHR DUP4 AND PUSH1 0x4 DUP3 ADD MSTORE PUSH1 0x24 DUP2 ADD SWAP4 SWAP1 SWAP4 MSTORE SWAP2 SWAP5 DUP6 SWAP3 SWAP2 SWAP1 SWAP2 AND SWAP1 DUP3 SWAP1 PUSH1 0x0 SWAP1 DUP3 SWAP1 PUSH1 0x44 DUP3 ADD SWAP1 JUMP JUMPDEST SUB SWAP3 GAS CALL SWAP1 DUP2 ISZERO PUSH2 0x4B8 JUMPI PUSH2 0x3F0 SWAP3 PUSH1 0x20 SWAP3 PUSH2 0x4C4 JUMPI JUMPDEST POP PUSH1 0x1 SLOAD PUSH1 0x4 SWAP5 DUP6 ADD DUP1 SLOAD PUSH1 0x40 MLOAD PUSH4 0xA9059CBB PUSH1 0xE0 SHL DUP2 MSTORE PUSH1 0x1 PUSH1 0x1 PUSH1 0xA0 SHL SUB SWAP2 DUP3 AND SWAP8 DUP2 ADD SWAP8 SWAP1 SWAP8 MSTORE PUSH1 0x24 DUP8 ADD SWAP4 SWAP1 SWAP4 MSTORE SWAP5 SWAP4 DUP5 SWAP3 SWAP1 SWAP2 AND SWAP1 DUP3 SWAP1 PUSH1 0x0 SWAP1 DUP3 SWAP1 PUSH1 0x44 DUP3 ADD SWAP1 JUMP JUMPDEST SUB SWAP3 GAS CALL DUP1 ISZERO PUSH2 0x4B8 JUMPI PUSH2 0x48B JUMPI JUMPDEST POP SLOAD PUSH1 0x1 PUSH1 0x1 PUSH1 0xA0 SHL SUB AND PUSH1 0x0 SWAP1 DUP2 MSTORE PUSH1 0x4 PUSH1 0x20 MSTORE PUSH1 0x40 SWAP1 KECCAK256 PUSH1 0x3 ADD DUP1 SLOAD PUSH1 0x1 DUP2 ADD SWAP2 SWAP1 DUP3 LT PUSH2 0x475 JUMPI SSTORE PUSH1 0x0 SWAP1 DUP2 MSTORE PUSH1 0x9 PUSH1 0x20 SWAP1 DUP2 MSTORE PUSH1 0x40 DUP1 DUP4 KECCAK256 DUP1 SLOAD PUSH1 0x1 PUSH1 0xFF NOT SWAP2 DUP3 AND DUP2 OR SWAP1 SWAP3 SSTORE PUSH1 0xA DUP5 MSTORE DUP3 DUP6 KECCAK256 CALLER DUP7 MSTORE SWAP1 SWAP4 MSTORE SWAP3 KECCAK256 DUP1 SLOAD SWAP1 SWAP2 AND SWAP1 SWAP2 OR SWAP1 SSTORE DUP1 SLOAD PUSH3 0x10000 PUSH1 0x1 PUSH1 0xB0 SHL SUB NOT AND SWAP1 SSTORE STOP JUMPDEST PUSH4 0x4E487B71 PUSH1 0xE0 SHL PUSH1 0x0 MSTORE PUSH1 0x11 PUSH1 0x4 MSTORE PUSH1 0x24 PUSH1 0x0 REVERT JUMPDEST PUSH2 0x4AC SWAP1 PUSH1 0x20 RETURNDATASIZE PUSH1 0x20 GT PUSH2 0x4B1 JUMPI JUMPDEST PUSH2 0x4A4 DUP2 DUP4 PUSH2 0x27E7 JUMP JUMPDEST DUP2 ADD SWAP1 PUSH2 0x2A42 JUMP JUMPDEST PUSH2 0x3FF JUMP JUMPDEST POP RETURNDATASIZE PUSH2 0x49A JUMP JUMPDEST PUSH1 0x40 MLOAD RETURNDATASIZE PUSH1 0x0 DUP3 RETURNDATACOPY RETURNDATASIZE SWAP1 REVERT JUMPDEST PUSH2 0x4DA SWAP1 DUP4 RETURNDATASIZE DUP6 GT PUSH2 0x4B1 JUMPI PUSH2 0x4A4 DUP2 DUP4 PUSH2 0x27E7 JUMP JUMPDEST PUSH2 0x3A8 JUMP JUMPDEST PUSH1 0x40 MLOAD PUSH3 0x461BCD PUSH1 0xE5 SHL DUP2 MSTORE PUSH1 0x20 PUSH1 0x4 DUP3 ADD MSTORE PUSH1 0x14 PUSH1 0x24 DUP3 ADD MSTORE PUSH20 0x283937B23AB1BA103737BA103830B4B2103337B9 PUSH1 0x61 SHL PUSH1 0x44 DUP3 ADD MSTORE PUSH1 0x64 SWAP1 REVERT JUMPDEST PUSH1 0x40 MLOAD PUSH3 0x461BCD PUSH1 0xE5 SHL DUP2 MSTORE PUSH1 0x20 PUSH1 0x4 DUP3 ADD MSTORE PUSH1 0x26 PUSH1 0x24 DUP3 ADD MSTORE PUSH32 0x4F6E6C79207468652062757965722063616E2063616E63656C20746865207075 PUSH1 0x44 DUP3 ADD MSTORE PUSH6 0x726368617365 PUSH1 0xD0 SHL PUSH1 0x64 DUP3 ADD MSTORE PUSH1 0x84 SWAP1 REVERT JUMPDEST CALLVALUE PUSH2 0x187 JUMPI PUSH1 0x20 CALLDATASIZE PUSH1 0x3 NOT ADD SLT PUSH2 0x187 JUMPI PUSH1 0x60 PUSH2 0x120 PUSH1 0x40 MLOAD PUSH2 0x591 DUP2 PUSH2 0x27B0 JUMP JUMPDEST PUSH1 0x0 DUP2 MSTORE DUP3 PUSH1 0x20 DUP3 ADD MSTORE DUP3 PUSH1 0x40 DUP3 ADD MSTORE PUSH1 0x0 DUP4 DUP3 ADD MSTORE PUSH1 0x0 PUSH1 0x80 DUP3 ADD MSTORE DUP3 PUSH1 0xA0 DUP3 ADD MSTORE PUSH1 0x0 PUSH1 0xC0 DUP3 ADD MSTORE PUSH1 0x0 PUSH1 0xE0 DUP3 ADD MSTORE PUSH1 0x0 PUSH2 0x100 DUP3 ADD MSTORE ADD MSTORE PUSH1 0x4 CALLDATALOAD PUSH1 0x0 MSTORE PUSH1 0x3 PUSH1 0x20 MSTORE PUSH2 0x160 PUSH1 0x40 PUSH1 0x0 KECCAK256 PUSH2 0x739 PUSH1 0x40 MLOAD SWAP2 PUSH2 0x5EF DUP4 PUSH2 0x27B0 JUMP JUMPDEST DUP1 SLOAD DUP4 MSTORE PUSH2 0x5FF PUSH1 0x1 DUP3 ADD PUSH2 0x2808 JUMP JUMPDEST SWAP3 PUSH1 0x20 DUP2 ADD SWAP4 DUP5 MSTORE PUSH2 0x613 PUSH1 0x2 DUP4 ADD PUSH2 0x2808 JUMP JUMPDEST PUSH1 0x40 DUP3 ADD SWAP1 DUP2 MSTORE PUSH1 0x3 DUP4 ADD SLOAD PUSH1 0x60 DUP4 ADD SWAP1 DUP2 MSTORE PUSH1 0x4 DUP5 ADD SLOAD PUSH1 0x1 PUSH1 0x1 PUSH1 0xA0 SHL SUB AND PUSH1 0x80 DUP5 ADD SWAP1 DUP2 MSTORE SWAP2 SWAP4 SWAP1 PUSH2 0x704 SWAP1 PUSH2 0x64E PUSH1 0x5 DUP5 ADD PUSH2 0x2808 JUMP JUMPDEST PUSH1 0xA0 DUP7 ADD SWAP1 DUP2 MSTORE PUSH1 0x6 DUP5 ADD SLOAD SWAP5 PUSH2 0x6DC PUSH1 0xC0 DUP9 ADD SWAP9 PUSH1 0xFF DUP9 AND ISZERO ISZERO DUP11 MSTORE PUSH2 0x6C9 PUSH2 0x69D PUSH1 0x7 PUSH1 0xE0 DUP13 ADD SWAP10 PUSH1 0xFF DUP13 PUSH1 0x8 SHR AND ISZERO ISZERO DUP12 MSTORE PUSH2 0x100 DUP14 ADD SWAP12 PUSH1 0x1 DUP1 PUSH1 0xA0 SHL SUB SWAP1 PUSH1 0x10 SHR AND DUP13 MSTORE ADD PUSH2 0x2808 JUMP JUMPDEST SWAP10 PUSH2 0x120 DUP2 ADD SWAP11 DUP12 MSTORE PUSH1 0x40 MLOAD SWAP15 DUP16 SWAP15 DUP16 SWAP3 PUSH1 0x20 DUP5 MSTORE MLOAD PUSH1 0x20 DUP5 ADD MSTORE MLOAD SWAP2 PUSH2 0x140 PUSH1 0x40 DUP3 ADD MSTORE ADD SWAP1 PUSH2 0x28AC JUMP JUMPDEST SWAP1 MLOAD DUP13 DUP3 SUB PUSH1 0x1F NOT ADD PUSH1 0x60 DUP15 ADD MSTORE PUSH2 0x28AC JUMP JUMPDEST SWAP3 MLOAD PUSH1 0x80 DUP12 ADD MSTORE MLOAD PUSH1 0x1 PUSH1 0x1 PUSH1 0xA0 SHL SUB AND PUSH1 0xA0 DUP11 ADD MSTORE MLOAD DUP9 DUP3 SUB PUSH1 0x1F NOT ADD PUSH1 0xC0 DUP11 ADD MSTORE PUSH2 0x28AC JUMP JUMPDEST SWAP4 MLOAD ISZERO ISZERO PUSH1 0xE0 DUP8 ADD MSTORE MLOAD ISZERO ISZERO PUSH2 0x100 DUP7 ADD MSTORE MLOAD PUSH1 0x1 PUSH1 0x1 PUSH1 0xA0 SHL SUB AND PUSH2 0x120 DUP6 ADD MSTORE MLOAD DUP4 DUP3 SUB PUSH1 0x1F NOT ADD PUSH2 0x140 DUP6 ADD MSTORE PUSH2 0x28AC JUMP JUMPDEST SUB SWAP1 RETURN JUMPDEST CALLVALUE PUSH2 0x187 JUMPI PUSH1 0x0 CALLDATASIZE PUSH1 0x3 NOT ADD SLT PUSH2 0x187 JUMPI PUSH1 0x1 SLOAD PUSH1 0x40 MLOAD PUSH1 0x1 PUSH1 0x1 PUSH1 0xA0 SHL SUB SWAP1 SWAP2 AND DUP2 MSTORE PUSH1 0x20 SWAP1 RETURN JUMPDEST CALLVALUE PUSH2 0x187 JUMPI PUSH1 0x0 CALLDATASIZE PUSH1 0x3 NOT ADD SLT PUSH2 0x187 JUMPI PUSH1 0x20 PUSH1 0xB SLOAD PUSH1 0x40 MLOAD SWAP1 DUP2 MSTORE RETURN JUMPDEST CALLVALUE PUSH2 0x187 JUMPI PUSH1 0x20 CALLDATASIZE PUSH1 0x3 NOT ADD SLT PUSH2 0x187 JUMPI PUSH1 0x4 CALLDATALOAD DUP1 PUSH1 0x0 MSTORE PUSH1 0x3 PUSH1 0x20 MSTORE PUSH1 0x40 PUSH1 0x0 KECCAK256 DUP2 PUSH1 0x0 MSTORE PUSH1 0x9 PUSH1 0x20 MSTORE PUSH1 0xFF PUSH1 0x40 PUSH1 0x0 KECCAK256 SLOAD AND ISZERO PUSH2 0xBCD JUMPI PUSH1 0x0 DUP3 DUP2 MSTORE PUSH1 0xA PUSH1 0x20 SWAP1 DUP2 MSTORE PUSH1 0x40 DUP1 DUP4 KECCAK256 CALLER DUP5 MSTORE SWAP1 SWAP2 MSTORE SWAP1 KECCAK256 SLOAD PUSH1 0xFF AND ISZERO PUSH2 0xB89 JUMPI PUSH1 0x0 DUP3 DUP2 MSTORE PUSH1 0x8 PUSH1 0x20 SWAP1 DUP2 MSTORE PUSH1 0x40 DUP1 DUP4 KECCAK256 CALLER DUP5 MSTORE SWAP1 SWAP2 MSTORE SWAP1 KECCAK256 SLOAD PUSH1 0xFF AND PUSH2 0xB34 JUMPI PUSH1 0x4 SWAP2 PUSH1 0x0 MSTORE PUSH1 0x8 PUSH1 0x20 MSTORE PUSH1 0x40 PUSH1 0x0 KECCAK256 PUSH1 0x1 DUP1 PUSH1 0xA0 SHL SUB CALLER AND PUSH1 0x0 MSTORE PUSH1 0x20 MSTORE PUSH1 0x40 PUSH1 0x0 KECCAK256 PUSH1 0x1 PUSH1 0xFF NOT DUP3 SLOAD AND OR SWAP1 SSTORE ADD PUSH1 0x1 DUP1 PUSH1 0xA0 SHL SUB DUP2 SLOAD AND PUSH1 0x0 MSTORE PUSH1 0x4 PUSH1 0x20 MSTORE PUSH1 0x4 PUSH1 0x40 PUSH1 0x0 KECCAK256 ADD DUP1 SLOAD SWAP1 PUSH1 0x1 DUP3 ADD DUP1 SWAP3 GT PUSH2 0x475 JUMPI SSTORE SLOAD PUSH1 0x1 PUSH1 0x1 PUSH1 0xA0 SHL SUB AND PUSH1 0x0 DUP2 DUP2 MSTORE PUSH1 0x4 PUSH1 0x20 DUP2 SWAP1 MSTORE PUSH1 0x40 SWAP1 SWAP2 KECCAK256 ADD SLOAD PUSH1 0x3 GT ISZERO DUP1 PUSH2 0xB1B JUMPI JUMPDEST PUSH2 0x886 JUMPI STOP JUMPDEST PUSH1 0x40 MLOAD SWAP1 PUSH2 0x895 PUSH1 0x60 DUP4 PUSH2 0x27E7 JUMP JUMPDEST PUSH1 0x2C DUP3 MSTORE PUSH32 0x4D756C7469706C65207265706F7274732077697468206E6F20636F6E6669726D PUSH1 0x20 DUP4 ADD MSTORE PUSH12 0x656420707572636861736573 PUSH1 0xA0 SHL PUSH1 0x40 DUP4 ADD MSTORE DUP1 PUSH1 0x0 MSTORE PUSH1 0x7 PUSH1 0x20 MSTORE PUSH1 0xFF PUSH1 0x40 PUSH1 0x0 KECCAK256 SLOAD AND PUSH2 0xAD6 JUMPI PUSH1 0x40 MLOAD SWAP2 PUSH2 0x8F7 DUP4 PUSH2 0x27CC JUMP JUMPDEST DUP2 DUP4 MSTORE PUSH1 0x20 DUP1 DUP5 ADD DUP3 DUP2 MSTORE PUSH1 0x0 DUP5 DUP2 MSTORE PUSH1 0x6 SWAP1 SWAP3 MSTORE PUSH1 0x40 SWAP1 SWAP2 KECCAK256 SWAP4 MLOAD DUP5 SLOAD PUSH1 0x1 PUSH1 0x1 PUSH1 0xA0 SHL SUB NOT AND PUSH1 0x1 PUSH1 0x1 PUSH1 0xA0 SHL SUB SWAP2 SWAP1 SWAP2 AND OR DUP5 SSTORE MLOAD DUP1 MLOAD SWAP1 SWAP4 PUSH1 0x1 ADD SWAP1 PUSH1 0x1 PUSH1 0x1 PUSH1 0x40 SHL SUB DUP2 GT PUSH2 0xAC0 JUMPI PUSH2 0x94F DUP3 SLOAD PUSH2 0x2776 JUMP JUMPDEST PUSH1 0x1F DUP2 GT PUSH2 0xA78 JUMPI JUMPDEST POP PUSH1 0x20 PUSH1 0x1F DUP3 GT PUSH1 0x1 EQ PUSH2 0x9EB JUMPI SWAP1 DUP1 PUSH2 0x9DB SWAP5 SWAP4 SWAP3 PUSH32 0xD1AB8ED187C2B3794ADB1CC1433A2872E8E959A63970EDE2BEAEC4DF3F894BEF SWAP7 SWAP8 PUSH1 0x0 SWAP3 PUSH2 0x9E0 JUMPI JUMPDEST POP POP DUP2 PUSH1 0x1 SHL SWAP2 PUSH1 0x0 NOT SWAP1 PUSH1 0x3 SHL SHR NOT AND OR SWAP1 SSTORE JUMPDEST DUP4 PUSH1 0x0 MSTORE PUSH1 0x7 PUSH1 0x20 MSTORE PUSH1 0x40 PUSH1 0x0 KECCAK256 PUSH1 0x1 PUSH1 0xFF NOT DUP3 SLOAD AND OR SWAP1 SSTORE PUSH1 0x40 MLOAD SWAP2 DUP3 SWAP2 PUSH1 0x20 DUP4 MSTORE PUSH1 0x20 DUP4 ADD SWAP1 PUSH2 0x28AC JUMP JUMPDEST SUB SWAP1 LOG2 STOP JUMPDEST ADD MLOAD SWAP1 POP DUP8 DUP1 PUSH2 0x999 JUMP JUMPDEST PUSH1 0x1F NOT DUP3 AND SWAP6 DUP4 PUSH1 0x0 MSTORE DUP2 PUSH1 0x0 KECCAK256 SWAP7 PUSH1 0x0 JUMPDEST DUP2 DUP2 LT PUSH2 0xA60 JUMPI POP SWAP7 PUSH1 0x1 SWAP3 DUP5 SWAP3 PUSH2 0x9DB SWAP8 SWAP7 SWAP6 PUSH32 0xD1AB8ED187C2B3794ADB1CC1433A2872E8E959A63970EDE2BEAEC4DF3F894BEF SWAP10 SWAP11 LT PUSH2 0xA47 JUMPI JUMPDEST POP POP POP DUP2 SHL ADD SWAP1 SSTORE PUSH2 0x9AE JUMP JUMPDEST ADD MLOAD PUSH1 0x0 NOT PUSH1 0xF8 DUP5 PUSH1 0x3 SHL AND SHR NOT AND SWAP1 SSTORE DUP8 DUP1 DUP1 PUSH2 0xA3A JUMP JUMPDEST DUP4 DUP4 ADD MLOAD DUP10 SSTORE PUSH1 0x1 SWAP1 SWAP9 ADD SWAP8 PUSH1 0x20 SWAP4 DUP5 ADD SWAP4 ADD PUSH2 0x9FD JUMP JUMPDEST DUP3 PUSH1 0x0 MSTORE PUSH1 0x20 PUSH1 0x0 KECCAK256 PUSH1 0x1F DUP4 ADD PUSH1 0x5 SHR DUP2 ADD SWAP2 PUSH1 0x20 DUP5 LT PUSH2 0xAB6 JUMPI JUMPDEST PUSH1 0x1F ADD PUSH1 0x5 SHR ADD SWAP1 JUMPDEST DUP2 DUP2 LT PUSH2 0xAAA JUMPI POP PUSH2 0x958 JUMP JUMPDEST PUSH1 0x0 DUP2 SSTORE PUSH1 0x1 ADD PUSH2 0xA9D JUMP JUMPDEST SWAP1 SWAP2 POP DUP2 SWAP1 PUSH2 0xA94 JUMP JUMPDEST PUSH4 0x4E487B71 PUSH1 0xE0 SHL PUSH1 0x0 MSTORE PUSH1 0x41 PUSH1 0x4 MSTORE PUSH1 0x24 PUSH1 0x0 REVERT JUMPDEST PUSH1 0x40 MLOAD PUSH3 0x461BCD PUSH1 0xE5 SHL DUP2 MSTORE PUSH1 0x20 PUSH1 0x4 DUP3 ADD MSTORE PUSH1 0x19 PUSH1 0x24 DUP3 ADD MSTORE PUSH32 0x53656C6C657220697320616C726561647920626C6F636B656400000000000000 PUSH1 0x44 DUP3 ADD MSTORE PUSH1 0x64 SWAP1 REVERT JUMPDEST POP DUP1 PUSH1 0x0 MSTORE PUSH1 0x4 PUSH1 0x20 MSTORE PUSH1 0x2 PUSH1 0x40 PUSH1 0x0 KECCAK256 ADD SLOAD ISZERO PUSH2 0x880 JUMP JUMPDEST PUSH1 0x40 MLOAD PUSH3 0x461BCD PUSH1 0xE5 SHL DUP2 MSTORE PUSH1 0x20 PUSH1 0x4 DUP3 ADD MSTORE PUSH1 0x27 PUSH1 0x24 DUP3 ADD MSTORE PUSH32 0x596F75206861766520616C7265616479207265706F7274656420746869732070 PUSH1 0x44 DUP3 ADD MSTORE PUSH7 0x75726368617365 PUSH1 0xC8 SHL PUSH1 0x64 DUP3 ADD MSTORE PUSH1 0x84 SWAP1 REVERT JUMPDEST PUSH1 0x64 PUSH1 0x40 MLOAD PUSH3 0x461BCD PUSH1 0xE5 SHL DUP2 MSTORE PUSH1 0x20 PUSH1 0x4 DUP3 ADD MSTORE PUSH1 0x20 PUSH1 0x24 DUP3 ADD MSTORE PUSH32 0x596F7520646964206E6F742063616E63656C2074686973207075726368617365 PUSH1 0x44 DUP3 ADD MSTORE REVERT JUMPDEST PUSH1 0x40 MLOAD PUSH3 0x461BCD PUSH1 0xE5 SHL DUP2 MSTORE PUSH1 0x20 PUSH1 0x4 DUP3 ADD MSTORE PUSH1 0x1E PUSH1 0x24 DUP3 ADD MSTORE PUSH32 0x507572636861736520686173206E6F74206265656E2063616E63656C65640000 PUSH1 0x44 DUP3 ADD MSTORE PUSH1 0x64 SWAP1 REVERT JUMPDEST CALLVALUE PUSH2 0x187 JUMPI PUSH1 0x0 CALLDATASIZE PUSH1 0x3 NOT ADD SLT PUSH2 0x187 JUMPI PUSH1 0x0 SLOAD PUSH1 0x40 MLOAD PUSH1 0x1 PUSH1 0x1 PUSH1 0xA0 SHL SUB SWAP1 SWAP2 AND DUP2 MSTORE PUSH1 0x20 SWAP1 RETURN JUMPDEST CALLVALUE PUSH2 0x187 JUMPI PUSH1 0x20 CALLDATASIZE PUSH1 0x3 NOT ADD SLT PUSH2 0x187 JUMPI PUSH1 0x4 CALLDATALOAD DUP1 PUSH1 0x0 MSTORE PUSH1 0x3 PUSH1 0x20 MSTORE PUSH1 0x40 PUSH1 0x0 KECCAK256 SWAP1 PUSH1 0x6 DUP3 ADD SWAP2 DUP3 SLOAD CALLER PUSH1 0x1 DUP1 PUSH1 0xA0 SHL SUB DUP3 PUSH1 0x10 SHR AND SUB PUSH2 0xDEA JUMPI PUSH1 0xFF AND PUSH2 0xDA5 JUMPI PUSH1 0x3 DUP2 ADD SWAP3 DUP4 SLOAD SWAP3 PUSH2 0xCAB PUSH2 0xCA2 PUSH1 0x64 PUSH2 0xC9A PUSH1 0xB SLOAD DUP9 PUSH2 0x2A9B JUMP JUMPDEST DIV DUP1 SWAP7 PUSH2 0x2AAE JUMP JUMPDEST SWAP5 PUSH1 0xE SLOAD PUSH2 0x2ABB JUMP JUMPDEST PUSH1 0xE SSTORE DUP2 SLOAD PUSH1 0xFF NOT AND PUSH1 0x1 SWAP1 DUP2 OR DUP4 SSTORE SLOAD PUSH1 0x4 DUP5 DUP2 ADD DUP1 SLOAD PUSH1 0x40 MLOAD PUSH4 0xA9059CBB PUSH1 0xE0 SHL DUP2 MSTORE PUSH1 0x1 PUSH1 0x1 PUSH1 0xA0 SHL SUB SWAP2 DUP3 AND SWAP4 DUP2 ADD SWAP4 SWAP1 SWAP4 MSTORE PUSH1 0x24 DUP4 ADD SWAP8 SWAP1 SWAP8 MSTORE SWAP6 SWAP1 SWAP2 PUSH1 0x20 SWAP2 DUP4 SWAP2 PUSH1 0x44 SWAP2 DUP4 SWAP2 PUSH1 0x0 SWAP2 AND GAS CALL DUP1 ISZERO PUSH2 0x4B8 JUMPI PUSH2 0xD88 JUMPI JUMPDEST POP PUSH1 0x1 DUP1 PUSH1 0xA0 SHL SUB DUP5 SLOAD AND PUSH1 0x0 MSTORE PUSH1 0x4 PUSH1 0x20 MSTORE PUSH1 0x2 PUSH1 0x40 PUSH1 0x0 KECCAK256 ADD SWAP2 DUP3 SLOAD SWAP5 PUSH1 0x1 DUP7 ADD DUP1 SWAP7 GT PUSH2 0x475 JUMPI PUSH32 0x9620B27BE3795A0CE7111C8E7168631996E44DD6A5F7CC7234C970605378CCC8 SWAP7 PUSH1 0x1 SWAP7 PUSH2 0xD83 SWAP6 SSTORE SLOAD SWAP1 DUP7 DUP1 PUSH1 0xA0 SHL SUB SWAP1 SLOAD AND SWAP2 DUP7 DUP1 PUSH1 0xA0 SHL SUB SWAP1 SLOAD PUSH1 0x10 SHR AND SWAP3 PUSH1 0x40 MLOAD SWAP7 DUP8 SWAP7 ADD SWAP1 DUP7 PUSH2 0x2A5A JUMP JUMPDEST SUB SWAP1 LOG1 STOP JUMPDEST PUSH2 0xDA0 SWAP1 PUSH1 0x20 RETURNDATASIZE PUSH1 0x20 GT PUSH2 0x4B1 JUMPI PUSH2 0x4A4 DUP2 DUP4 PUSH2 0x27E7 JUMP JUMPDEST PUSH2 0xD08 JUMP JUMPDEST PUSH1 0x40 MLOAD PUSH3 0x461BCD PUSH1 0xE5 SHL DUP2 MSTORE PUSH1 0x20 PUSH1 0x4 DUP3 ADD MSTORE PUSH1 0x17 PUSH1 0x24 DUP3 ADD MSTORE PUSH32 0x50726F6475637420697320616C726561647920736F6C64000000000000000000 PUSH1 0x44 DUP3 ADD MSTORE PUSH1 0x64 SWAP1 REVERT JUMPDEST PUSH1 0x40 MLOAD PUSH3 0x461BCD PUSH1 0xE5 SHL DUP2 MSTORE PUSH1 0x20 PUSH1 0x4 DUP3 ADD MSTORE PUSH1 0x26 PUSH1 0x24 DUP3 ADD MSTORE PUSH32 0x4F6E6C79207468652062757965722063616E20636F6E6669726D207468652070 PUSH1 0x44 DUP3 ADD MSTORE PUSH6 0x185E5B595B9D PUSH1 0xD2 SHL PUSH1 0x64 DUP3 ADD MSTORE PUSH1 0x84 SWAP1 REVERT JUMPDEST CALLVALUE PUSH2 0x187 JUMPI PUSH1 0x20 CALLDATASIZE PUSH1 0x3 NOT ADD SLT PUSH2 0x187 JUMPI PUSH1 0x4 CALLDATALOAD PUSH1 0x0 MSTORE PUSH1 0x3 PUSH1 0x20 MSTORE PUSH1 0x40 PUSH1 0x0 KECCAK256 DUP1 SLOAD PUSH2 0x739 PUSH2 0xE70 PUSH1 0x1 DUP5 ADD PUSH2 0x2808 JUMP JUMPDEST SWAP3 PUSH2 0xE7D PUSH1 0x2 DUP3 ADD PUSH2 0x2808 JUMP JUMPDEST PUSH1 0x3 DUP3 ADD SLOAD PUSH1 0x4 DUP4 ADD SLOAD PUSH2 0xEFB SWAP2 SWAP1 PUSH1 0x1 PUSH1 0x1 PUSH1 0xA0 SHL SUB AND PUSH2 0xEA1 PUSH1 0x5 DUP7 ADD PUSH2 0x2808 JUMP JUMPDEST SWAP1 PUSH2 0xEE3 PUSH2 0xEB6 PUSH1 0x7 PUSH1 0x6 DUP10 ADD SLOAD SWAP9 ADD PUSH2 0x2808 JUMP JUMPDEST SWAP6 PUSH2 0xED5 PUSH1 0x40 MLOAD SWAP12 DUP13 SWAP12 DUP13 MSTORE PUSH2 0x140 PUSH1 0x20 DUP14 ADD MSTORE PUSH2 0x140 DUP13 ADD SWAP1 PUSH2 0x28AC JUMP JUMPDEST SWAP1 DUP11 DUP3 SUB PUSH1 0x40 DUP13 ADD MSTORE PUSH2 0x28AC JUMP JUMPDEST SWAP3 PUSH1 0x60 DUP10 ADD MSTORE PUSH1 0x80 DUP9 ADD MSTORE DUP7 DUP3 SUB PUSH1 0xA0 DUP9 ADD MSTORE PUSH2 0x28AC JUMP JUMPDEST PUSH1 0xFF DUP1 DUP5 AND ISZERO ISZERO PUSH1 0xC0 DUP8 ADD MSTORE PUSH1 0x8 DUP5 SWAP1 SHR AND ISZERO ISZERO PUSH1 0xE0 DUP7 ADD MSTORE PUSH1 0x10 SWAP3 SWAP1 SWAP3 SHR PUSH1 0x1 PUSH1 0x1 PUSH1 0xA0 SHL SUB AND PUSH2 0x100 DUP6 ADD MSTORE DUP4 DUP3 SUB PUSH2 0x120 DUP6 ADD MSTORE PUSH2 0x28AC JUMP JUMPDEST CALLVALUE PUSH2 0x187 JUMPI PUSH1 0x0 CALLDATASIZE PUSH1 0x3 NOT ADD SLT PUSH2 0x187 JUMPI PUSH2 0xF50 PUSH2 0x2AC8 JUMP JUMPDEST PUSH1 0x0 DUP1 SLOAD PUSH1 0x1 PUSH1 0x1 PUSH1 0xA0 SHL SUB NOT DUP2 AND DUP3 SSTORE PUSH1 0x1 PUSH1 0x1 PUSH1 0xA0 SHL SUB AND PUSH32 0x8BE0079C531659141344CD1FD0A4F28419497F9722A3DAAFE3B4186F6B6457E0 DUP3 DUP1 LOG3 STOP JUMPDEST CALLVALUE PUSH2 0x187 JUMPI PUSH1 0x20 CALLDATASIZE PUSH1 0x3 NOT ADD SLT PUSH2 0x187 JUMPI PUSH1 0x1 PUSH1 0x1 PUSH1 0xA0 SHL SUB PUSH2 0xFB1 PUSH2 0x274A JUMP JUMPDEST AND PUSH1 0x0 MSTORE PUSH1 0x4 PUSH1 0x20 MSTORE PUSH2 0x1005 PUSH1 0x40 PUSH1 0x0 KECCAK256 PUSH2 0xFCB DUP2 PUSH2 0x2808 JUMP JUMPDEST SWAP1 PUSH2 0xFD8 PUSH1 0x1 DUP3 ADD PUSH2 0x2808 JUMP JUMPDEST PUSH1 0x2 DUP3 ADD SLOAD SWAP2 PUSH1 0x3 DUP2 ADD SLOAD PUSH2 0x1013 PUSH1 0x5 PUSH1 0x4 DUP5 ADD SLOAD SWAP4 ADD SLOAD SWAP4 PUSH1 0x40 MLOAD SWAP8 DUP9 SWAP8 PUSH1 0xC0 DUP10 MSTORE PUSH1 0xC0 DUP10 ADD SWAP1 PUSH2 0x28AC JUMP JUMPDEST SWAP1 DUP8 DUP3 SUB PUSH1 0x20 DUP10 ADD MSTORE PUSH2 0x28AC JUMP JUMPDEST SWAP4 PUSH1 0x40 DUP7 ADD MSTORE PUSH1 0x60 DUP6 ADD MSTORE PUSH1 0x80 DUP5 ADD MSTORE PUSH1 0xA0 DUP4 ADD MSTORE SUB SWAP1 RETURN JUMPDEST CALLVALUE PUSH2 0x187 JUMPI PUSH1 0x20 CALLDATASIZE PUSH1 0x3 NOT ADD SLT PUSH2 0x187 JUMPI PUSH1 0x1 PUSH1 0x1 PUSH1 0xA0 SHL SUB PUSH2 0x104D PUSH2 0x274A JUMP JUMPDEST AND PUSH1 0x0 MSTORE PUSH1 0x5 PUSH1 0x20 MSTORE PUSH1 0x40 PUSH1 0x0 KECCAK256 PUSH2 0x1070 PUSH1 0x1 PUSH2 0x1069 DUP4 PUSH2 0x2808 JUMP JUMPDEST SWAP3 ADD PUSH2 0x2808 JUMP JUMPDEST SWAP1 PUSH2 0x739 PUSH1 0x40 MLOAD SWAP3 DUP4 SWAP3 DUP4 PUSH2 0x2943 JUMP JUMPDEST CALLVALUE PUSH2 0x187 JUMPI PUSH1 0x0 CALLDATASIZE PUSH1 0x3 NOT ADD SLT PUSH2 0x187 JUMPI PUSH1 0x20 PUSH1 0xE SLOAD PUSH1 0x40 MLOAD SWAP1 DUP2 MSTORE RETURN JUMPDEST CALLVALUE PUSH2 0x187 JUMPI PUSH1 0x0 CALLDATASIZE PUSH1 0x3 NOT ADD SLT PUSH2 0x187 JUMPI PUSH1 0x20 PUSH1 0xD SLOAD PUSH1 0x40 MLOAD SWAP1 DUP2 MSTORE RETURN JUMPDEST CALLVALUE PUSH2 0x187 JUMPI PUSH1 0x0 CALLDATASIZE PUSH1 0x3 NOT ADD SLT PUSH2 0x187 JUMPI PUSH2 0x10D5 PUSH2 0x2AC8 JUMP JUMPDEST PUSH1 0x1 SLOAD PUSH1 0x0 DUP1 SLOAD PUSH1 0xE SLOAD PUSH1 0x40 MLOAD PUSH4 0xA9059CBB PUSH1 0xE0 SHL DUP2 MSTORE PUSH1 0x1 PUSH1 0x1 PUSH1 0xA0 SHL SUB SWAP3 DUP4 AND PUSH1 0x4 DUP3 ADD MSTORE PUSH1 0x24 DUP2 ADD SWAP2 SWAP1 SWAP2 MSTORE SWAP3 PUSH1 0x20 SWAP3 DUP5 SWAP3 PUSH1 0x44 SWAP3 DUP5 SWAP3 SWAP2 AND GAS CALL DUP1 ISZERO PUSH2 0x4B8 JUMPI PUSH2 0x1125 JUMPI JUMPDEST PUSH1 0x0 PUSH1 0xE SSTORE STOP JUMPDEST PUSH2 0x113D SWAP1 PUSH1 0x20 RETURNDATASIZE PUSH1 0x20 GT PUSH2 0x4B1 JUMPI PUSH2 0x4A4 DUP2 DUP4 PUSH2 0x27E7 JUMP JUMPDEST PUSH2 0x111E JUMP JUMPDEST CALLVALUE PUSH2 0x187 JUMPI PUSH1 0x20 CALLDATASIZE PUSH1 0x3 NOT ADD SLT PUSH2 0x187 JUMPI PUSH1 0x4 CALLDATALOAD DUP1 PUSH1 0x0 MSTORE PUSH1 0x3 PUSH1 0x20 MSTORE PUSH1 0x40 PUSH1 0x0 KECCAK256 SWAP1 PUSH1 0x1 DUP1 PUSH1 0xA0 SHL SUB PUSH1 0x4 DUP4 ADD SLOAD AND SWAP1 PUSH2 0x1188 DUP4 SLOAD DUP1 ISZERO ISZERO SWAP1 DUP2 PUSH2 0x13D8 JUMPI JUMPDEST POP PUSH2 0x29FD JUMP JUMPDEST PUSH1 0x3 DUP4 ADD DUP1 SLOAD PUSH1 0x1 SLOAD PUSH1 0x40 MLOAD PUSH4 0x6EB1769F PUSH1 0xE1 SHL DUP2 MSTORE CALLER PUSH1 0x4 DUP3 ADD MSTORE ADDRESS PUSH1 0x24 DUP3 ADD MSTORE SWAP2 SWAP1 PUSH1 0x20 SWAP1 DUP4 SWAP1 PUSH1 0x44 SWAP1 DUP3 SWAP1 PUSH1 0x1 PUSH1 0x1 PUSH1 0xA0 SHL SUB AND GAS STATICCALL SWAP2 DUP3 ISZERO PUSH2 0x4B8 JUMPI PUSH1 0x0 SWAP3 PUSH2 0x13A4 JUMPI JUMPDEST POP GT PUSH2 0x1344 JUMPI PUSH1 0x6 DUP5 ADD SWAP4 DUP5 SLOAD PUSH1 0xFF DUP2 PUSH1 0x8 SHR AND PUSH2 0x12FF JUMPI CALLER DUP6 EQ PUSH2 0x12AE JUMPI PUSH2 0x100 PUSH1 0x1 PUSH1 0xB0 SHL SUB NOT AND CALLER PUSH1 0x10 SHL PUSH3 0x10000 PUSH1 0x1 PUSH1 0xB0 SHL SUB AND OR PUSH2 0x100 OR SWAP1 SWAP5 SSTORE PUSH1 0x0 SWAP4 PUSH1 0x20 PUSH1 0x1 DUP1 PUSH1 0xA0 SHL SUB PUSH1 0x1 SLOAD AND PUSH1 0x64 DUP5 SLOAD PUSH1 0x40 MLOAD SWAP9 DUP10 SWAP4 DUP5 SWAP3 PUSH4 0x23B872DD PUSH1 0xE0 SHL DUP5 MSTORE CALLER PUSH1 0x4 DUP6 ADD MSTORE ADDRESS PUSH1 0x24 DUP6 ADD MSTORE PUSH1 0x44 DUP5 ADD MSTORE GAS CALL SWAP2 DUP3 ISZERO PUSH2 0x4B8 JUMPI PUSH32 0x64F41258F3D51A589CEA8504D1F51403F46583535A3E84E2CBE3F8D50674D00B SWAP6 PUSH2 0xD83 SWAP4 PUSH2 0x1291 JUMPI JUMPDEST POP SLOAD SWAP4 PUSH1 0x40 MLOAD SWAP5 DUP6 SWAP5 PUSH1 0x1 CALLER SWAP5 ADD SWAP1 DUP7 PUSH2 0x2A5A JUMP JUMPDEST PUSH2 0x12A9 SWAP1 PUSH1 0x20 RETURNDATASIZE PUSH1 0x20 GT PUSH2 0x4B1 JUMPI PUSH2 0x4A4 DUP2 DUP4 PUSH2 0x27E7 JUMP JUMPDEST PUSH2 0x127C JUMP JUMPDEST PUSH1 0x40 MLOAD PUSH3 0x461BCD PUSH1 0xE5 SHL DUP2 MSTORE PUSH1 0x20 PUSH1 0x4 DUP3 ADD MSTORE PUSH1 0x23 PUSH1 0x24 DUP3 ADD MSTORE PUSH32 0x53656C6C65722063616E6E6F7420627579207468656972206F776E2070726F64 PUSH1 0x44 DUP3 ADD MSTORE PUSH3 0x1D58DD PUSH1 0xEA SHL PUSH1 0x64 DUP3 ADD MSTORE PUSH1 0x84 SWAP1 REVERT JUMPDEST PUSH1 0x40 MLOAD PUSH3 0x461BCD PUSH1 0xE5 SHL DUP2 MSTORE PUSH1 0x20 PUSH1 0x4 DUP3 ADD MSTORE PUSH1 0x1B PUSH1 0x24 DUP3 ADD MSTORE PUSH32 0x50726F6475637420697320616C7265616479207061696420666F720000000000 PUSH1 0x44 DUP3 ADD MSTORE PUSH1 0x64 SWAP1 REVERT JUMPDEST PUSH1 0x40 MLOAD PUSH3 0x461BCD PUSH1 0xE5 SHL DUP2 MSTORE PUSH1 0x20 PUSH1 0x4 DUP3 ADD MSTORE PUSH1 0x32 PUSH1 0x24 DUP3 ADD MSTORE PUSH32 0x4E6F7420656E6F756768205553445420616C6C6F77616E636520746F20707572 PUSH1 0x44 DUP3 ADD MSTORE PUSH18 0x18DA185CD9481D1A1A5CC81C1C9BD91D58DD PUSH1 0x72 SHL PUSH1 0x64 DUP3 ADD MSTORE PUSH1 0x84 SWAP1 REVERT JUMPDEST SWAP1 SWAP2 POP PUSH1 0x20 DUP2 RETURNDATASIZE PUSH1 0x20 GT PUSH2 0x13D0 JUMPI JUMPDEST DUP2 PUSH2 0x13C0 PUSH1 0x20 SWAP4 DUP4 PUSH2 0x27E7 JUMP JUMPDEST DUP2 ADD SUB SLT PUSH2 0x187 JUMPI MLOAD SWAP1 DUP7 PUSH2 0x11D0 JUMP JUMPDEST RETURNDATASIZE SWAP2 POP PUSH2 0x13B3 JUMP JUMPDEST SWAP1 POP PUSH1 0x2 SLOAD LT ISZERO DUP6 PUSH2 0x1182 JUMP JUMPDEST CALLVALUE PUSH2 0x187 JUMPI PUSH1 0x20 CALLDATASIZE PUSH1 0x3 NOT ADD SLT PUSH2 0x187 JUMPI PUSH1 0x60 PUSH1 0x20 PUSH1 0x40 MLOAD PUSH2 0x1406 DUP2 PUSH2 0x27CC JUMP JUMPDEST DUP3 DUP2 MSTORE ADD MSTORE PUSH1 0x4 CALLDATALOAD PUSH1 0x0 MSTORE PUSH1 0x3 PUSH1 0x20 MSTORE PUSH1 0x40 PUSH1 0x0 KECCAK256 PUSH2 0x142F DUP2 SLOAD DUP1 ISZERO ISZERO SWAP1 DUP2 PUSH2 0x157D JUMPI POP PUSH2 0x29FD JUMP JUMPDEST PUSH1 0x6 DUP2 ADD SLOAD CALLER PUSH1 0x10 DUP3 SWAP1 SHR PUSH1 0x1 PUSH1 0x1 PUSH1 0xA0 SHL SUB AND SUB PUSH2 0x1529 JUMPI PUSH1 0x8 SHR PUSH1 0xFF AND ISZERO PUSH2 0x14CC JUMPI PUSH1 0x4 PUSH1 0x1 DUP1 PUSH1 0xA0 SHL SUB SWAP2 ADD SLOAD AND PUSH1 0x0 MSTORE PUSH1 0x5 PUSH1 0x20 MSTORE PUSH2 0x14B9 PUSH1 0x40 PUSH1 0x0 KECCAK256 PUSH2 0x739 PUSH2 0x1496 PUSH1 0x1 PUSH1 0x40 MLOAD SWAP4 PUSH2 0x1485 DUP6 PUSH2 0x27CC JUMP JUMPDEST PUSH2 0x148E DUP2 PUSH2 0x2808 JUMP JUMPDEST DUP6 MSTORE ADD PUSH2 0x2808 JUMP JUMPDEST PUSH1 0x20 DUP4 ADD SWAP1 DUP2 MSTORE PUSH1 0x40 MLOAD SWAP4 DUP5 SWAP4 PUSH1 0x20 DUP6 MSTORE MLOAD PUSH1 0x40 PUSH1 0x20 DUP7 ADD MSTORE PUSH1 0x60 DUP6 ADD SWAP1 PUSH2 0x28AC JUMP JUMPDEST SWAP1 MLOAD DUP4 DUP3 SUB PUSH1 0x1F NOT ADD PUSH1 0x40 DUP6 ADD MSTORE PUSH2 0x28AC JUMP JUMPDEST PUSH1 0x40 MLOAD PUSH3 0x461BCD PUSH1 0xE5 SHL DUP2 MSTORE PUSH1 0x20 PUSH1 0x4 DUP3 ADD MSTORE PUSH1 0x2F PUSH1 0x24 DUP3 ADD MSTORE PUSH32 0x50726F64756374206D757374206265207061696420666F7220746F2076696577 PUSH1 0x44 DUP3 ADD MSTORE PUSH15 0x2073656C6C65722064657461696C73 PUSH1 0x88 SHL PUSH1 0x64 DUP3 ADD MSTORE PUSH1 0x84 SWAP1 REVERT JUMPDEST PUSH1 0x40 MLOAD PUSH3 0x461BCD PUSH1 0xE5 SHL DUP2 MSTORE PUSH1 0x20 PUSH1 0x4 DUP3 ADD MSTORE PUSH1 0x26 PUSH1 0x24 DUP3 ADD MSTORE PUSH32 0x4F6E6C79207468652062757965722063616E20766965772073656C6C65722064 PUSH1 0x44 DUP3 ADD MSTORE PUSH6 0x657461696C73 PUSH1 0xD0 SHL PUSH1 0x64 DUP3 ADD MSTORE PUSH1 0x84 SWAP1 REVERT JUMPDEST SWAP1 POP PUSH1 0x2 SLOAD LT ISZERO DUP4 PUSH2 0x1182 JUMP JUMPDEST CALLVALUE PUSH2 0x187 JUMPI PUSH1 0x80 CALLDATASIZE PUSH1 0x3 NOT ADD SLT PUSH2 0x187 JUMPI PUSH1 0x4 CALLDATALOAD PUSH1 0x1 PUSH1 0x1 PUSH1 0x40 SHL SUB DUP2 GT PUSH2 0x187 JUMPI PUSH2 0x15BA SWAP1 CALLDATASIZE SWAP1 PUSH1 0x4 ADD PUSH2 0x28ED JUMP JUMPDEST PUSH1 0x24 CALLDATALOAD PUSH1 0x1 PUSH1 0x1 PUSH1 0x40 SHL SUB DUP2 GT PUSH2 0x187 JUMPI PUSH2 0x15D9 SWAP1 CALLDATASIZE SWAP1 PUSH1 0x4 ADD PUSH2 0x28ED JUMP JUMPDEST PUSH1 0x44 CALLDATALOAD PUSH1 0x1 PUSH1 0x1 PUSH1 0x40 SHL SUB DUP2 GT PUSH2 0x187 JUMPI PUSH2 0x15F8 SWAP1 CALLDATASIZE SWAP1 PUSH1 0x4 ADD PUSH2 0x28ED JUMP JUMPDEST SWAP2 PUSH1 0x64 CALLDATALOAD PUSH1 0x1 PUSH1 0x1 PUSH1 0x40 SHL SUB DUP2 GT PUSH2 0x187 JUMPI PUSH2 0x1618 SWAP1 CALLDATASIZE SWAP1 PUSH1 0x4 ADD PUSH2 0x28ED JUMP JUMPDEST SWAP2 DUP2 MLOAD ISZERO PUSH2 0x1CA7 JUMPI DUP1 MLOAD ISZERO PUSH2 0x1C62 JUMPI DUP4 MLOAD ISZERO PUSH2 0x1C26 JUMPI DUP3 MLOAD ISZERO PUSH2 0x1BE1 JUMPI CALLER PUSH1 0x0 MSTORE PUSH1 0x4 PUSH1 0x20 MSTORE PUSH2 0x164C PUSH1 0x40 PUSH1 0x0 KECCAK256 SLOAD PUSH2 0x2776 JUMP JUMPDEST PUSH2 0x1B9C JUMPI PUSH1 0x40 MLOAD SWAP4 PUSH1 0xC0 DUP6 ADD DUP6 DUP2 LT PUSH1 0x1 PUSH1 0x1 PUSH1 0x40 SHL SUB DUP3 GT OR PUSH2 0xAC0 JUMPI PUSH1 0x40 MSTORE DUP3 DUP6 MSTORE PUSH1 0x20 DUP6 ADD SWAP5 DUP3 DUP7 MSTORE PUSH1 0x40 DUP2 ADD PUSH1 0x0 DUP2 MSTORE PUSH1 0x60 DUP3 ADD PUSH1 0x0 DUP2 MSTORE PUSH1 0x80 DUP4 ADD SWAP1 PUSH1 0x0 DUP3 MSTORE PUSH1 0xA0 DUP5 ADD SWAP3 PUSH1 0x0 DUP5 MSTORE CALLER PUSH1 0x0 MSTORE PUSH1 0x4 PUSH1 0x20 MSTORE PUSH1 0x40 PUSH1 0x0 KECCAK256 SWAP5 MLOAD DUP1 MLOAD SWAP1 PUSH1 0x1 PUSH1 0x1 PUSH1 0x40 SHL SUB DUP3 GT PUSH2 0xAC0 JUMPI DUP2 SWAP1 PUSH2 0x16C7 DUP9 SLOAD PUSH2 0x2776 JUMP JUMPDEST PUSH1 0x1F DUP2 GT PUSH2 0x1B49 JUMPI JUMPDEST POP PUSH1 0x20 SWAP1 PUSH1 0x1F DUP4 GT PUSH1 0x1 EQ PUSH2 0x1AE4 JUMPI PUSH1 0x0 SWAP3 PUSH2 0x1AD9 JUMPI JUMPDEST POP POP DUP2 PUSH1 0x1 SHL SWAP2 PUSH1 0x0 NOT SWAP1 PUSH1 0x3 SHL SHR NOT AND OR DUP6 SSTORE JUMPDEST PUSH1 0x1 DUP6 ADD SWAP10 MLOAD SWAP10 DUP11 MLOAD PUSH1 0x1 PUSH1 0x1 PUSH1 0x40 SHL SUB DUP2 GT PUSH2 0xAC0 JUMPI PUSH2 0x171D DUP3 SLOAD PUSH2 0x2776 JUMP JUMPDEST PUSH1 0x1F DUP2 GT PUSH2 0x1A91 JUMPI JUMPDEST POP PUSH1 0x20 PUSH1 0x1F DUP3 GT PUSH1 0x1 EQ PUSH2 0x1A1F JUMPI DUP2 SWAP1 PUSH1 0x5 SWAP9 SWAP10 SWAP11 SWAP12 SWAP13 SWAP14 PUSH1 0x0 SWAP3 PUSH2 0x1A14 JUMPI JUMPDEST POP POP DUP2 PUSH1 0x1 SHL SWAP2 PUSH1 0x0 NOT SWAP1 PUSH1 0x3 SHL SHR NOT AND OR SWAP1 SSTORE JUMPDEST MLOAD PUSH1 0x2 DUP7 ADD SSTORE MLOAD PUSH1 0x3 DUP6 ADD SSTORE MLOAD PUSH1 0x4 DUP5 ADD SSTORE MLOAD SWAP2 ADD SSTORE PUSH1 0x40 MLOAD SWAP1 PUSH2 0x177E DUP3 PUSH2 0x27CC JUMP JUMPDEST DUP2 MSTORE PUSH1 0x20 DUP2 ADD SWAP4 DUP5 MSTORE CALLER PUSH1 0x0 MSTORE PUSH1 0x5 PUSH1 0x20 MSTORE PUSH1 0x40 PUSH1 0x0 KECCAK256 SWAP1 MLOAD DUP1 MLOAD SWAP1 PUSH1 0x1 PUSH1 0x1 PUSH1 0x40 SHL SUB DUP3 GT PUSH2 0xAC0 JUMPI PUSH2 0x17B2 DUP4 SLOAD PUSH2 0x2776 JUMP JUMPDEST PUSH1 0x1F DUP2 GT PUSH2 0x19CC JUMPI JUMPDEST POP PUSH1 0x20 SWAP1 PUSH1 0x1F DUP4 GT PUSH1 0x1 EQ PUSH2 0x1962 JUMPI PUSH1 0x1 SWAP4 SWAP3 SWAP2 PUSH1 0x0 SWAP2 DUP4 PUSH2 0x1957 JUMPI JUMPDEST POP POP PUSH1 0x0 NOT PUSH1 0x3 DUP4 SWAP1 SHL SHR NOT AND SWAP1 DUP4 SHL OR DUP2 SSTORE JUMPDEST ADD SWAP3 MLOAD SWAP3 DUP4 MLOAD PUSH1 0x1 PUSH1 0x1 PUSH1 0x40 SHL SUB DUP2 GT PUSH2 0xAC0 JUMPI PUSH2 0x180A DUP3 SLOAD PUSH2 0x2776 JUMP JUMPDEST PUSH1 0x1F DUP2 GT PUSH2 0x190F JUMPI JUMPDEST POP PUSH1 0x20 PUSH1 0x1F DUP3 GT PUSH1 0x1 EQ PUSH2 0x1882 JUMPI SWAP1 DUP1 PUSH2 0x9DB SWAP5 SWAP4 SWAP3 PUSH32 0x29A886814235A877CF2FF5DF3C674A946B17782BF260CA120B7B951A6D35CC6 SWAP7 SWAP8 PUSH1 0x0 SWAP3 PUSH2 0x1877 JUMPI JUMPDEST POP POP DUP2 PUSH1 0x1 SHL SWAP2 PUSH1 0x0 NOT SWAP1 PUSH1 0x3 SHL SHR NOT AND OR SWAP1 SSTORE JUMPDEST PUSH1 0x40 MLOAD SWAP2 DUP3 SWAP2 CALLER SWAP6 DUP4 PUSH2 0x2943 JUMP JUMPDEST ADD MLOAD SWAP1 POP DUP8 DUP1 PUSH2 0x1854 JUMP JUMPDEST PUSH1 0x1F NOT DUP3 AND SWAP6 DUP4 PUSH1 0x0 MSTORE DUP2 PUSH1 0x0 KECCAK256 SWAP7 PUSH1 0x0 JUMPDEST DUP2 DUP2 LT PUSH2 0x18F7 JUMPI POP SWAP7 PUSH1 0x1 SWAP3 DUP5 SWAP3 PUSH2 0x9DB SWAP8 SWAP7 SWAP6 PUSH32 0x29A886814235A877CF2FF5DF3C674A946B17782BF260CA120B7B951A6D35CC6 SWAP10 SWAP11 LT PUSH2 0x18DE JUMPI JUMPDEST POP POP POP DUP2 SHL ADD SWAP1 SSTORE PUSH2 0x1869 JUMP JUMPDEST ADD MLOAD PUSH1 0x0 NOT PUSH1 0xF8 DUP5 PUSH1 0x3 SHL AND SHR NOT AND SWAP1 SSTORE DUP8 DUP1 DUP1 PUSH2 0x18D1 JUMP JUMPDEST DUP4 DUP4 ADD MLOAD DUP10 SSTORE PUSH1 0x1 SWAP1 SWAP9 ADD SWAP8 PUSH1 0x20 SWAP4 DUP5 ADD SWAP4 ADD PUSH2 0x1894 JUMP JUMPDEST DUP3 PUSH1 0x0 MSTORE PUSH1 0x20 PUSH1 0x0 KECCAK256 PUSH1 0x1F DUP4 ADD PUSH1 0x5 SHR DUP2 ADD SWAP2 PUSH1 0x20 DUP5 LT PUSH2 0x194D JUMPI JUMPDEST PUSH1 0x1F ADD PUSH1 0x5 SHR ADD SWAP1 JUMPDEST DUP2 DUP2 LT PUSH2 0x1941 JUMPI POP PUSH2 0x1813 JUMP JUMPDEST PUSH1 0x0 DUP2 SSTORE PUSH1 0x1 ADD PUSH2 0x1934 JUMP JUMPDEST SWAP1 SWAP2 POP DUP2 SWAP1 PUSH2 0x192B JUMP JUMPDEST ADD MLOAD SWAP1 POP DUP8 DUP1 PUSH2 0x17D8 JUMP JUMPDEST SWAP1 PUSH1 0x1F NOT DUP4 AND SWAP2 DUP5 PUSH1 0x0 MSTORE DUP2 PUSH1 0x0 KECCAK256 SWAP3 PUSH1 0x0 JUMPDEST DUP2 DUP2 LT PUSH2 0x19B4 JUMPI POP SWAP2 PUSH1 0x1 SWAP6 SWAP5 SWAP3 SWAP2 DUP4 DUP8 SWAP6 SWAP4 LT PUSH2 0x199B JUMPI JUMPDEST POP POP POP DUP2 SHL ADD DUP2 SSTORE PUSH2 0x17EC JUMP JUMPDEST ADD MLOAD PUSH1 0x0 NOT PUSH1 0xF8 DUP5 PUSH1 0x3 SHL AND SHR NOT AND SWAP1 SSTORE DUP8 DUP1 DUP1 PUSH2 0x198E JUMP JUMPDEST SWAP3 SWAP4 PUSH1 0x20 PUSH1 0x1 DUP2 SWAP3 DUP8 DUP7 ADD MLOAD DUP2 SSTORE ADD SWAP6 ADD SWAP4 ADD PUSH2 0x1975 JUMP JUMPDEST DUP4 PUSH1 0x0 MSTORE PUSH1 0x20 PUSH1 0x0 KECCAK256 PUSH1 0x1F DUP5 ADD PUSH1 0x5 SHR DUP2 ADD SWAP2 PUSH1 0x20 DUP6 LT PUSH2 0x1A0A JUMPI JUMPDEST PUSH1 0x1F ADD PUSH1 0x5 SHR ADD SWAP1 JUMPDEST DUP2 DUP2 LT PUSH2 0x19FE JUMPI POP PUSH2 0x17BB JUMP JUMPDEST PUSH1 0x0 DUP2 SSTORE PUSH1 0x1 ADD PUSH2 0x19F1 JUMP JUMPDEST SWAP1 SWAP2 POP DUP2 SWAP1 PUSH2 0x19E8 JUMP JUMPDEST ADD MLOAD SWAP1 POP DUP14 DUP1 PUSH2 0x1746 JUMP JUMPDEST PUSH1 0x1F NOT DUP3 AND SWAP13 DUP4 PUSH1 0x0 MSTORE DUP2 PUSH1 0x0 KECCAK256 SWAP14 PUSH1 0x0 JUMPDEST DUP2 DUP2 LT PUSH2 0x1A74 JUMPI POP SWAP2 PUSH1 0x5 SWAP10 SWAP11 SWAP12 SWAP13 SWAP14 SWAP15 SWAP2 DUP5 PUSH1 0x1 SWAP6 SWAP5 LT PUSH2 0x1A5B JUMPI JUMPDEST POP POP POP DUP2 SHL ADD SWAP1 SSTORE PUSH2 0x175B JUMP JUMPDEST ADD MLOAD PUSH1 0x0 NOT PUSH1 0xF8 DUP5 PUSH1 0x3 SHL AND SHR NOT AND SWAP1 SSTORE DUP14 DUP1 DUP1 PUSH2 0x1A4E JUMP JUMPDEST SWAP2 SWAP15 DUP16 PUSH1 0x1 PUSH1 0x20 SWAP3 DUP7 DUP5 SWAP4 ADD MLOAD DUP2 SSTORE ADD SWAP5 ADD SWAP3 ADD SWAP15 SWAP2 SWAP3 SWAP15 PUSH2 0x1A31 JUMP JUMPDEST DUP3 PUSH1 0x0 MSTORE PUSH1 0x20 PUSH1 0x0 KECCAK256 PUSH1 0x1F DUP4 ADD PUSH1 0x5 SHR DUP2 ADD SWAP2 PUSH1 0x20 DUP5 LT PUSH2 0x1ACF JUMPI JUMPDEST PUSH1 0x1F ADD PUSH1 0x5 SHR ADD SWAP1 JUMPDEST DUP2 DUP2 LT PUSH2 0x1AC3 JUMPI POP PUSH2 0x1726 JUMP JUMPDEST PUSH1 0x0 DUP2 SSTORE PUSH1 0x1 ADD PUSH2 0x1AB6 JUMP JUMPDEST SWAP1 SWAP2 POP DUP2 SWAP1 PUSH2 0x1AAD JUMP JUMPDEST ADD MLOAD SWAP1 POP DUP13 DUP1 PUSH2 0x16E7 JUMP JUMPDEST PUSH1 0x0 DUP10 DUP2 MSTORE DUP3 DUP2 KECCAK256 SWAP4 POP PUSH1 0x1F NOT DUP6 AND SWAP1 JUMPDEST DUP2 DUP2 LT PUSH2 0x1B31 JUMPI POP SWAP1 DUP5 PUSH1 0x1 SWAP6 SWAP5 SWAP4 SWAP3 LT PUSH2 0x1B18 JUMPI JUMPDEST POP POP POP DUP2 SHL ADD DUP6 SSTORE PUSH2 0x16FC JUMP JUMPDEST ADD MLOAD PUSH1 0x0 NOT PUSH1 0xF8 DUP5 PUSH1 0x3 SHL AND SHR NOT AND SWAP1 SSTORE DUP13 DUP1 DUP1 PUSH2 0x1B0B JUMP JUMPDEST SWAP3 SWAP4 PUSH1 0x20 PUSH1 0x1 DUP2 SWAP3 DUP8 DUP7 ADD MLOAD DUP2 SSTORE ADD SWAP6 ADD SWAP4 ADD PUSH2 0x1AF5 JUMP JUMPDEST SWAP1 SWAP2 POP DUP8 PUSH1 0x0 MSTORE PUSH1 0x20 PUSH1 0x0 KECCAK256 PUSH1 0x1F DUP5 ADD PUSH1 0x5 SHR DUP2 ADD SWAP2 PUSH1 0x20 DUP6 LT PUSH2 0x1B92 JUMPI JUMPDEST SWAP1 PUSH1 0x1F DUP6 SWAP5 SWAP4 SWAP3 ADD PUSH1 0x5 SHR ADD SWAP1 JUMPDEST DUP2 DUP2 LT PUSH2 0x1B83 JUMPI POP PUSH2 0x16D0 JUMP JUMPDEST PUSH1 0x0 DUP2 SSTORE DUP5 SWAP4 POP PUSH1 0x1 ADD PUSH2 0x1B76 JUMP JUMPDEST SWAP1 SWAP2 POP DUP2 SWAP1 PUSH2 0x1B68 JUMP JUMPDEST PUSH1 0x40 MLOAD PUSH3 0x461BCD PUSH1 0xE5 SHL DUP2 MSTORE PUSH1 0x20 PUSH1 0x4 DUP3 ADD MSTORE PUSH1 0x19 PUSH1 0x24 DUP3 ADD MSTORE PUSH32 0x53656C6C657220616C7265616479207265676973746572656400000000000000 PUSH1 0x44 DUP3 ADD MSTORE PUSH1 0x64 SWAP1 REVERT JUMPDEST PUSH1 0x40 MLOAD PUSH3 0x461BCD PUSH1 0xE5 SHL DUP2 MSTORE PUSH1 0x20 PUSH1 0x4 DUP3 ADD MSTORE PUSH1 0x18 PUSH1 0x24 DUP3 ADD MSTORE PUSH32 0x50686F6E65206E756D6265722069732072657175697265640000000000000000 PUSH1 0x44 DUP3 ADD MSTORE PUSH1 0x64 SWAP1 REVERT JUMPDEST PUSH1 0x40 MLOAD PUSH3 0x461BCD PUSH1 0xE5 SHL DUP2 MSTORE PUSH1 0x20 PUSH1 0x4 DUP3 ADD MSTORE PUSH1 0x14 PUSH1 0x24 DUP3 ADD MSTORE PUSH20 0x131BD8D85D1A5BDB881A5CC81C995C5D5A5C9959 PUSH1 0x62 SHL PUSH1 0x44 DUP3 ADD MSTORE PUSH1 0x64 SWAP1 REVERT JUMPDEST PUSH1 0x40 MLOAD PUSH3 0x461BCD PUSH1 0xE5 SHL DUP2 MSTORE PUSH1 0x20 PUSH1 0x4 DUP3 ADD MSTORE PUSH1 0x17 PUSH1 0x24 DUP3 ADD MSTORE PUSH32 0x50726F66696C6520555249206973207265717569726564000000000000000000 PUSH1 0x44 DUP3 ADD MSTORE PUSH1 0x64 SWAP1 REVERT JUMPDEST PUSH1 0x40 MLOAD PUSH3 0x461BCD PUSH1 0xE5 SHL DUP2 MSTORE PUSH1 0x20 PUSH1 0x4 DUP3 ADD MSTORE PUSH1 0x17 PUSH1 0x24 DUP3 ADD MSTORE PUSH32 0x53656C6C6572206E616D65206973207265717569726564000000000000000000 PUSH1 0x44 DUP3 ADD MSTORE PUSH1 0x64 SWAP1 REVERT JUMPDEST CALLVALUE PUSH2 0x187 JUMPI PUSH1 0x0 CALLDATASIZE PUSH1 0x3 NOT ADD SLT PUSH2 0x187 JUMPI PUSH1 0x20 PUSH1 0xC SLOAD PUSH1 0x40 MLOAD SWAP1 DUP2 MSTORE RETURN JUMPDEST CALLVALUE PUSH2 0x187 JUMPI PUSH1 0x80 CALLDATASIZE PUSH1 0x3 NOT ADD SLT PUSH2 0x187 JUMPI PUSH1 0x4 CALLDATALOAD PUSH1 0x1 PUSH1 0x1 PUSH1 0x40 SHL SUB DUP2 GT PUSH2 0x187 JUMPI PUSH2 0x1D3A SWAP1 CALLDATASIZE SWAP1 PUSH1 0x4 ADD PUSH2 0x28ED JUMP JUMPDEST PUSH1 0x24 CALLDATALOAD PUSH1 0x1 PUSH1 0x1 PUSH1 0x40 SHL SUB DUP2 GT PUSH2 0x187 JUMPI PUSH2 0x1D59 SWAP1 CALLDATASIZE SWAP1 PUSH1 0x4 ADD PUSH2 0x28ED JUMP JUMPDEST SWAP1 PUSH1 0x44 CALLDATALOAD SWAP2 PUSH1 0x64 CALLDATALOAD PUSH1 0x1 PUSH1 0x1 PUSH1 0x40 SHL SUB DUP2 GT PUSH2 0x187 JUMPI PUSH2 0x1D7D SWAP1 CALLDATASIZE SWAP1 PUSH1 0x4 ADD PUSH2 0x28ED JUMP JUMPDEST DUP3 MLOAD ISZERO PUSH2 0x24FA JUMPI DUP2 MLOAD ISZERO PUSH2 0x24B5 JUMPI DUP4 ISZERO PUSH2 0x2460 JUMPI CALLER PUSH1 0x0 MSTORE PUSH1 0x7 PUSH1 0x20 MSTORE PUSH1 0xFF PUSH1 0x40 PUSH1 0x0 KECCAK256 SLOAD AND PUSH2 0x2427 JUMPI CALLER PUSH1 0x0 MSTORE PUSH1 0x4 PUSH1 0x20 MSTORE PUSH2 0x1DBE PUSH1 0x40 PUSH1 0x0 KECCAK256 SLOAD PUSH2 0x2776 JUMP JUMPDEST ISZERO PUSH2 0x23EA JUMPI PUSH2 0x1DCE PUSH1 0x2 SLOAD PUSH2 0x296B JUMP JUMPDEST DUP1 PUSH1 0x2 SSTORE CALLER PUSH1 0x0 MSTORE PUSH1 0x4 PUSH1 0x20 MSTORE PUSH1 0x40 PUSH1 0x0 KECCAK256 PUSH1 0x40 MLOAD SWAP2 PUSH2 0x1DED DUP4 PUSH2 0x27B0 JUMP JUMPDEST DUP1 DUP4 MSTORE PUSH1 0x20 DUP4 ADD DUP7 DUP2 MSTORE PUSH1 0x40 DUP5 ADD SWAP3 DUP7 DUP5 MSTORE PUSH1 0x60 DUP6 ADD SWAP1 DUP10 DUP3 MSTORE PUSH2 0x1E17 PUSH1 0x80 DUP8 ADD SWAP2 CALLER DUP4 MSTORE PUSH2 0x2808 JUMP JUMPDEST SWAP2 PUSH1 0xA0 DUP8 ADD SWAP3 DUP4 MSTORE PUSH1 0xC0 DUP8 ADD SWAP6 PUSH1 0x0 DUP8 MSTORE PUSH1 0xE0 DUP9 ADD SWAP5 PUSH1 0x0 DUP7 MSTORE PUSH2 0x100 DUP10 ADD SWAP7 PUSH1 0x0 DUP9 MSTORE PUSH2 0x120 DUP11 ADD SWAP11 DUP12 MSTORE PUSH1 0x0 MSTORE PUSH1 0x3 PUSH1 0x20 MSTORE PUSH1 0x40 PUSH1 0x0 KECCAK256 SWAP9 MLOAD DUP10 SSTORE PUSH1 0x1 DUP10 ADD SWAP1 MLOAD DUP1 MLOAD SWAP1 PUSH1 0x1 PUSH1 0x1 PUSH1 0x40 SHL SUB DUP3 GT PUSH2 0xAC0 JUMPI DUP2 SWAP1 PUSH2 0x1E77 DUP5 SLOAD PUSH2 0x2776 JUMP JUMPDEST PUSH1 0x1F DUP2 GT PUSH2 0x2397 JUMPI JUMPDEST POP PUSH1 0x20 SWAP1 PUSH1 0x1F DUP4 GT PUSH1 0x1 EQ PUSH2 0x2332 JUMPI PUSH1 0x0 SWAP3 PUSH2 0x2327 JUMPI JUMPDEST POP POP DUP2 PUSH1 0x1 SHL SWAP2 PUSH1 0x0 NOT SWAP1 PUSH1 0x3 SHL SHR NOT AND OR SWAP1 SSTORE JUMPDEST MLOAD DUP1 MLOAD PUSH1 0x2 DUP10 ADD SWAP2 PUSH1 0x1 PUSH1 0x1 PUSH1 0x40 SHL SUB DUP3 GT PUSH2 0xAC0 JUMPI DUP2 SWAP1 PUSH2 0x1ECE DUP5 SLOAD PUSH2 0x2776 JUMP JUMPDEST PUSH1 0x1F DUP2 GT PUSH2 0x22D4 JUMPI JUMPDEST POP PUSH1 0x20 SWAP1 PUSH1 0x1F DUP4 GT PUSH1 0x1 EQ PUSH2 0x226F JUMPI PUSH1 0x0 SWAP3 PUSH2 0x2264 JUMPI JUMPDEST POP POP DUP2 PUSH1 0x1 SHL SWAP2 PUSH1 0x0 NOT SWAP1 PUSH1 0x3 SHL SHR NOT AND OR SWAP1 SSTORE JUMPDEST MLOAD PUSH1 0x3 DUP8 ADD SSTORE MLOAD PUSH1 0x4 DUP7 ADD DUP1 SLOAD PUSH1 0x1 PUSH1 0x1 PUSH1 0xA0 SHL SUB NOT AND PUSH1 0x1 PUSH1 0x1 PUSH1 0xA0 SHL SUB SWAP3 SWAP1 SWAP3 AND SWAP2 SWAP1 SWAP2 OR SWAP1 SSTORE MLOAD DUP1 MLOAD PUSH1 0x5 DUP7 ADD SWAP2 PUSH1 0x1 PUSH1 0x1 PUSH1 0x40 SHL SUB DUP3 GT PUSH2 0xAC0 JUMPI PUSH2 0x1F4C DUP4 SLOAD PUSH2 0x2776 JUMP JUMPDEST PUSH1 0x1F DUP2 GT PUSH2 0x221C JUMPI JUMPDEST POP PUSH1 0x20 SWAP1 PUSH1 0x1F DUP4 GT PUSH1 0x1 EQ PUSH2 0x21AB JUMPI SWAP2 DUP1 PUSH2 0x1FD5 SWAP7 SWAP5 SWAP3 PUSH1 0x7 SWAP10 SWAP9 SWAP7 SWAP5 PUSH1 0x0 SWAP3 PUSH2 0x21A0 JUMPI JUMPDEST POP POP DUP2 PUSH1 0x1 SHL SWAP2 PUSH1 0x0 NOT SWAP1 PUSH1 0x3 SHL SHR NOT AND OR SWAP1 SSTORE JUMPDEST SWAP2 MLOAD PUSH1 0x6 DUP6 ADD DUP1 SLOAD SWAP4 MLOAD SWAP3 MLOAD PUSH3 0x10000 PUSH1 0x1 PUSH1 0xB0 SHL SUB PUSH1 0x10 SWAP2 SWAP1 SWAP2 SHL AND PUSH2 0xFF00 SWAP4 ISZERO ISZERO PUSH1 0x8 SHL SWAP4 SWAP1 SWAP4 AND SWAP2 ISZERO ISZERO PUSH1 0xFF AND PUSH1 0x1 PUSH1 0x1 PUSH1 0xB0 SHL SUB NOT SWAP1 SWAP5 AND SWAP4 SWAP1 SWAP4 OR OR OR SWAP1 SSTORE JUMP JUMPDEST ADD SWAP1 MLOAD DUP1 MLOAD SWAP1 PUSH1 0x1 PUSH1 0x1 PUSH1 0x40 SHL SUB DUP3 GT PUSH2 0xAC0 JUMPI PUSH2 0x1FF3 DUP4 SLOAD PUSH2 0x2776 JUMP JUMPDEST PUSH1 0x1F DUP2 GT PUSH2 0x2158 JUMPI JUMPDEST POP PUSH1 0x20 SWAP1 PUSH1 0x1F DUP4 GT PUSH1 0x1 EQ PUSH2 0x20CB JUMPI SWAP2 DUP1 PUSH2 0x20AD SWAP5 SWAP3 PUSH32 0x3AFFC4E431F993CDDAB04D3AD4FC278BD89B8267B52D6DF20F056551372A0E0B SWAP9 SWAP5 PUSH1 0x0 SWAP3 PUSH2 0x20C0 JUMPI JUMPDEST POP POP DUP2 PUSH1 0x1 SHL SWAP2 PUSH1 0x0 NOT SWAP1 PUSH1 0x3 SHL SHR NOT AND OR SWAP1 SSTORE JUMPDEST PUSH1 0x2 SLOAD SWAP3 CALLER PUSH1 0x0 MSTORE PUSH1 0x4 PUSH1 0x20 MSTORE PUSH2 0x2094 PUSH1 0x40 PUSH1 0x0 KECCAK256 SWAP2 PUSH2 0x2086 PUSH1 0x40 MLOAD SWAP8 DUP9 SWAP8 DUP9 MSTORE PUSH2 0x100 PUSH1 0x20 DUP10 ADD MSTORE PUSH2 0x100 DUP9 ADD SWAP1 PUSH2 0x28AC JUMP JUMPDEST SWAP1 DUP7 DUP3 SUB PUSH1 0x40 DUP9 ADD MSTORE PUSH2 0x28AC JUMP JUMPDEST SWAP2 PUSH1 0x60 DUP6 ADD MSTORE CALLER PUSH1 0x80 DUP6 ADD MSTORE DUP4 DUP3 SUB PUSH1 0xA0 DUP6 ADD MSTORE PUSH2 0x297A JUMP JUMPDEST PUSH1 0x0 PUSH1 0xC0 DUP4 ADD MSTORE PUSH1 0x0 PUSH1 0xE0 DUP4 ADD MSTORE SUB SWAP1 LOG1 STOP JUMPDEST ADD MLOAD SWAP1 POP DUP9 DUP1 PUSH2 0x203D JUMP JUMPDEST SWAP1 PUSH1 0x1F NOT DUP4 AND SWAP2 DUP5 PUSH1 0x0 MSTORE DUP2 PUSH1 0x0 KECCAK256 SWAP3 PUSH1 0x0 JUMPDEST DUP2 DUP2 LT PUSH2 0x2140 JUMPI POP SWAP3 PUSH1 0x1 SWAP3 DUP6 SWAP3 PUSH32 0x3AFFC4E431F993CDDAB04D3AD4FC278BD89B8267B52D6DF20F056551372A0E0B SWAP11 SWAP7 PUSH2 0x20AD SWAP9 SWAP7 LT PUSH2 0x2127 JUMPI JUMPDEST POP POP POP DUP2 SHL ADD SWAP1 SSTORE PUSH2 0x2052 JUMP JUMPDEST ADD MLOAD PUSH1 0x0 NOT PUSH1 0xF8 DUP5 PUSH1 0x3 SHL AND SHR NOT AND SWAP1 SSTORE DUP9 DUP1 DUP1 PUSH2 0x211A JUMP JUMPDEST SWAP3 SWAP4 PUSH1 0x20 PUSH1 0x1 DUP2 SWAP3 DUP8 DUP7 ADD MLOAD DUP2 SSTORE ADD SWAP6 ADD SWAP4 ADD PUSH2 0x20DE JUMP JUMPDEST DUP4 PUSH1 0x0 MSTORE PUSH1 0x20 PUSH1 0x0 KECCAK256 PUSH1 0x1F DUP5 ADD PUSH1 0x5 SHR DUP2 ADD SWAP2 PUSH1 0x20 DUP6 LT PUSH2 0x2196 JUMPI JUMPDEST PUSH1 0x1F ADD PUSH1 0x5 SHR ADD SWAP1 JUMPDEST DUP2 DUP2 LT PUSH2 0x218A JUMPI POP PUSH2 0x1FFC JUMP JUMPDEST PUSH1 0x0 DUP2 SSTORE PUSH1 0x1 ADD PUSH2 0x217D JUMP JUMPDEST SWAP1 SWAP2 POP DUP2 SWAP1 PUSH2 0x2174 JUMP JUMPDEST ADD MLOAD SWAP1 POP DUP14 DUP1 PUSH2 0x1F7A JUMP JUMPDEST SWAP1 PUSH1 0x1F NOT DUP4 AND SWAP2 DUP5 PUSH1 0x0 MSTORE DUP2 PUSH1 0x0 KECCAK256 SWAP3 PUSH1 0x0 JUMPDEST DUP2 DUP2 LT PUSH2 0x2204 JUMPI POP SWAP3 PUSH1 0x1 SWAP3 DUP6 SWAP3 PUSH1 0x7 SWAP12 SWAP11 SWAP9 SWAP7 PUSH2 0x1FD5 SWAP11 SWAP9 SWAP7 LT PUSH2 0x21EB JUMPI JUMPDEST POP POP POP DUP2 SHL ADD SWAP1 SSTORE PUSH2 0x1F8F JUMP JUMPDEST ADD MLOAD PUSH1 0x0 NOT PUSH1 0xF8 DUP5 PUSH1 0x3 SHL AND SHR NOT AND SWAP1 SSTORE DUP14 DUP1 DUP1 PUSH2 0x21DE JUMP JUMPDEST SWAP3 SWAP4 PUSH1 0x20 PUSH1 0x1 DUP2 SWAP3 DUP8 DUP7 ADD MLOAD DUP2 SSTORE ADD SWAP6 ADD SWAP4 ADD PUSH2 0x21BE JUMP JUMPDEST DUP4 PUSH1 0x0 MSTORE PUSH1 0x20 PUSH1 0x0 KECCAK256 PUSH1 0x1F DUP5 ADD PUSH1 0x5 SHR DUP2 ADD SWAP2 PUSH1 0x20 DUP6 LT PUSH2 0x225A JUMPI JUMPDEST PUSH1 0x1F ADD PUSH1 0x5 SHR ADD SWAP1 JUMPDEST DUP2 DUP2 LT PUSH2 0x224E JUMPI POP PUSH2 0x1F55 JUMP JUMPDEST PUSH1 0x0 DUP2 SSTORE PUSH1 0x1 ADD PUSH2 0x2241 JUMP JUMPDEST SWAP1 SWAP2 POP DUP2 SWAP1 PUSH2 0x2238 JUMP JUMPDEST ADD MLOAD SWAP1 POP DUP15 DUP1 PUSH2 0x1EEE JUMP JUMPDEST PUSH1 0x0 DUP6 DUP2 MSTORE DUP3 DUP2 KECCAK256 SWAP4 POP PUSH1 0x1F NOT DUP6 AND SWAP1 JUMPDEST DUP2 DUP2 LT PUSH2 0x22BC JUMPI POP SWAP1 DUP5 PUSH1 0x1 SWAP6 SWAP5 SWAP4 SWAP3 LT PUSH2 0x22A3 JUMPI JUMPDEST POP POP POP DUP2 SHL ADD SWAP1 SSTORE PUSH2 0x1F03 JUMP JUMPDEST ADD MLOAD PUSH1 0x0 NOT PUSH1 0xF8 DUP5 PUSH1 0x3 SHL AND SHR NOT AND SWAP1 SSTORE DUP15 DUP1 DUP1 PUSH2 0x2296 JUMP JUMPDEST SWAP3 SWAP4 PUSH1 0x20 PUSH1 0x1 DUP2 SWAP3 DUP8 DUP7 ADD MLOAD DUP2 SSTORE ADD SWAP6 ADD SWAP4 ADD PUSH2 0x2280 JUMP JUMPDEST SWAP1 SWAP2 POP DUP4 PUSH1 0x0 MSTORE PUSH1 0x20 PUSH1 0x0 KECCAK256 PUSH1 0x1F DUP5 ADD PUSH1 0x5 SHR DUP2 ADD SWAP2 PUSH1 0x20 DUP6 LT PUSH2 0x231D JUMPI JUMPDEST SWAP1 PUSH1 0x1F DUP6 SWAP5 SWAP4 SWAP3 ADD PUSH1 0x5 SHR ADD SWAP1 JUMPDEST DUP2 DUP2 LT PUSH2 0x230E JUMPI POP PUSH2 0x1ED7 JUMP JUMPDEST PUSH1 0x0 DUP2 SSTORE DUP5 SWAP4 POP PUSH1 0x1 ADD PUSH2 0x2301 JUMP JUMPDEST SWAP1 SWAP2 POP DUP2 SWAP1 PUSH2 0x22F3 JUMP JUMPDEST ADD MLOAD SWAP1 POP DUP16 DUP1 PUSH2 0x1E97 JUMP JUMPDEST PUSH1 0x0 DUP6 DUP2 MSTORE DUP3 DUP2 KECCAK256 SWAP4 POP PUSH1 0x1F NOT DUP6 AND SWAP1 JUMPDEST DUP2 DUP2 LT PUSH2 0x237F JUMPI POP SWAP1 DUP5 PUSH1 0x1 SWAP6 SWAP5 SWAP4 SWAP3 LT PUSH2 0x2366 JUMPI JUMPDEST POP POP POP DUP2 SHL ADD SWAP1 SSTORE PUSH2 0x1EAC JUMP JUMPDEST ADD MLOAD PUSH1 0x0 NOT PUSH1 0xF8 DUP5 PUSH1 0x3 SHL AND SHR NOT AND SWAP1 SSTORE DUP16 DUP1 DUP1 PUSH2 0x2359 JUMP JUMPDEST SWAP3 SWAP4 PUSH1 0x20 PUSH1 0x1 DUP2 SWAP3 DUP8 DUP7 ADD MLOAD DUP2 SSTORE ADD SWAP6 ADD SWAP4 ADD PUSH2 0x2343 JUMP JUMPDEST SWAP1 SWAP2 POP DUP4 PUSH1 0x0 MSTORE PUSH1 0x20 PUSH1 0x0 KECCAK256 PUSH1 0x1F DUP5 ADD PUSH1 0x5 SHR DUP2 ADD SWAP2 PUSH1 0x20 DUP6 LT PUSH2 0x23E0 JUMPI JUMPDEST SWAP1 PUSH1 0x1F DUP6 SWAP5 SWAP4 SWAP3 ADD PUSH1 0x5 SHR ADD SWAP1 JUMPDEST DUP2 DUP2 LT PUSH2 0x23D1 JUMPI POP PUSH2 0x1E80 JUMP JUMPDEST PUSH1 0x0 DUP2 SSTORE DUP5 SWAP4 POP PUSH1 0x1 ADD PUSH2 0x23C4 JUMP JUMPDEST SWAP1 SWAP2 POP DUP2 SWAP1 PUSH2 0x23B6 JUMP JUMPDEST PUSH1 0x40 MLOAD PUSH3 0x461BCD PUSH1 0xE5 SHL DUP2 MSTORE PUSH1 0x20 PUSH1 0x4 DUP3 ADD MSTORE PUSH1 0x15 PUSH1 0x24 DUP3 ADD MSTORE PUSH21 0x14D95B1B195C881B9BDD081C9959DA5CDD195C9959 PUSH1 0x5A SHL PUSH1 0x44 DUP3 ADD MSTORE PUSH1 0x64 SWAP1 REVERT JUMPDEST PUSH1 0x40 MLOAD PUSH3 0x461BCD PUSH1 0xE5 SHL DUP2 MSTORE PUSH1 0x20 PUSH1 0x4 DUP3 ADD MSTORE PUSH1 0x11 PUSH1 0x24 DUP3 ADD MSTORE PUSH17 0x14D95B1B195C881A5CC8189B1BD8DAD959 PUSH1 0x7A SHL PUSH1 0x44 DUP3 ADD MSTORE PUSH1 0x64 SWAP1 REVERT JUMPDEST PUSH1 0x40 MLOAD PUSH3 0x461BCD PUSH1 0xE5 SHL DUP2 MSTORE PUSH1 0x20 PUSH1 0x4 DUP3 ADD MSTORE PUSH1 0x27 PUSH1 0x24 DUP3 ADD MSTORE PUSH32 0x50726F64756374207072696365206D7573742062652067726561746572207468 PUSH1 0x44 DUP3 ADD MSTORE PUSH7 0x616E207A65726F PUSH1 0xC8 SHL PUSH1 0x64 DUP3 ADD MSTORE PUSH1 0x84 SWAP1 REVERT JUMPDEST PUSH1 0x40 MLOAD PUSH3 0x461BCD PUSH1 0xE5 SHL DUP2 MSTORE PUSH1 0x20 PUSH1 0x4 DUP3 ADD MSTORE PUSH1 0x1D PUSH1 0x24 DUP3 ADD MSTORE PUSH32 0x50726F6475637420696D6167652055524C206973207265717569726564000000 PUSH1 0x44 DUP3 ADD MSTORE PUSH1 0x64 SWAP1 REVERT JUMPDEST PUSH1 0x40 MLOAD PUSH3 0x461BCD PUSH1 0xE5 SHL DUP2 MSTORE PUSH1 0x20 PUSH1 0x4 DUP3 ADD MSTORE PUSH1 0x18 PUSH1 0x24 DUP3 ADD MSTORE PUSH32 0x50726F64756374206E616D652069732072657175697265640000000000000000 PUSH1 0x44 DUP3 ADD MSTORE PUSH1 0x64 SWAP1 REVERT JUMPDEST CALLVALUE PUSH2 0x187 JUMPI PUSH1 0x20 CALLDATASIZE PUSH1 0x3 NOT ADD SLT PUSH2 0x187 JUMPI PUSH1 0x1 PUSH1 0x1 PUSH1 0xA0 SHL SUB PUSH2 0x2560 PUSH2 0x274A JUMP JUMPDEST AND PUSH1 0x0 SWAP1 DUP2 MSTORE PUSH1 0x6 PUSH1 0x20 MSTORE PUSH1 0x40 SWAP1 KECCAK256 DUP1 SLOAD PUSH1 0x1 PUSH1 0x1 PUSH1 0xA0 SHL SUB AND SWAP1 PUSH2 0x2587 SWAP1 PUSH1 0x1 ADD PUSH2 0x2808 JUMP JUMPDEST SWAP1 PUSH2 0x739 PUSH1 0x40 MLOAD SWAP3 DUP4 SWAP3 DUP4 MSTORE PUSH1 0x40 PUSH1 0x20 DUP5 ADD MSTORE PUSH1 0x40 DUP4 ADD SWAP1 PUSH2 0x28AC JUMP JUMPDEST CALLVALUE PUSH2 0x187 JUMPI PUSH1 0x40 CALLDATASIZE PUSH1 0x3 NOT ADD SLT PUSH2 0x187 JUMPI PUSH2 0x25BD PUSH2 0x2760 JUMP JUMPDEST PUSH1 0x4 CALLDATALOAD PUSH1 0x0 MSTORE PUSH1 0x8 PUSH1 0x20 MSTORE PUSH1 0x40 PUSH1 0x0 KECCAK256 SWAP1 PUSH1 0x1 DUP1 PUSH1 0xA0 SHL SUB AND PUSH1 0x0 MSTORE PUSH1 0x20 MSTORE PUSH1 0x20 PUSH1 0xFF PUSH1 0x40 PUSH1 0x0 KECCAK256 SLOAD AND PUSH1 0x40 MLOAD SWAP1 ISZERO ISZERO DUP2 MSTORE RETURN JUMPDEST CALLVALUE PUSH2 0x187 JUMPI PUSH1 0x20 CALLDATASIZE PUSH1 0x3 NOT ADD SLT PUSH2 0x187 JUMPI PUSH1 0x1 PUSH1 0x1 PUSH1 0xA0 SHL SUB PUSH2 0x2612 PUSH2 0x274A JUMP JUMPDEST AND SWAP1 DUP2 PUSH1 0x0 MSTORE PUSH1 0x4 PUSH1 0x20 MSTORE PUSH1 0x2 PUSH1 0x40 PUSH1 0x0 KECCAK256 ADD SLOAD ISZERO PUSH2 0x26FC JUMPI POP PUSH1 0x0 DUP2 DUP2 MSTORE PUSH1 0x4 PUSH1 0x20 MSTORE PUSH1 0x40 SWAP1 KECCAK256 PUSH1 0x5 DUP2 ADD SLOAD PUSH1 0x2 SWAP1 SWAP2 ADD SLOAD GT ISZERO PUSH2 0x26A6 JUMPI DUP1 PUSH1 0x0 MSTORE PUSH1 0x4 PUSH1 0x20 MSTORE PUSH1 0x5 PUSH1 0x40 PUSH1 0x0 KECCAK256 ADD PUSH2 0x2666 DUP2 SLOAD PUSH2 0x296B JUMP JUMPDEST SWAP1 SSTORE DUP1 PUSH1 0x0 MSTORE PUSH1 0x4 PUSH1 0x20 MSTORE PUSH32 0xD2A39A6FC73E40B10A3CE1AF8481F31B1454FC9A86710F826BEF0DC3F812D6C PUSH1 0x20 PUSH1 0x5 PUSH1 0x40 PUSH1 0x0 KECCAK256 ADD SLOAD PUSH1 0x40 MLOAD SWAP1 DUP2 MSTORE LOG2 STOP JUMPDEST PUSH1 0x40 MLOAD PUSH3 0x461BCD PUSH1 0xE5 SHL DUP2 MSTORE PUSH1 0x20 PUSH1 0x4 DUP3 ADD MSTORE PUSH1 0x28 PUSH1 0x24 DUP3 ADD MSTORE PUSH32 0x526174696E672063616E6E6F742065786365656420636F6E6669726D65642070 PUSH1 0x44 DUP3 ADD MSTORE PUSH8 0x7572636861736573 PUSH1 0xC0 SHL PUSH1 0x64 DUP3 ADD MSTORE PUSH1 0x84 SWAP1 REVERT JUMPDEST PUSH3 0x461BCD PUSH1 0xE5 SHL DUP2 MSTORE PUSH1 0x20 PUSH1 0x4 DUP3 ADD MSTORE PUSH1 0x24 DUP1 DUP3 ADD MSTORE PUSH32 0x53656C6C6572206D757374206861766520636F6E6669726D6564207075726368 PUSH1 0x44 DUP3 ADD MSTORE PUSH4 0x61736573 PUSH1 0xE0 SHL PUSH1 0x64 DUP3 ADD MSTORE PUSH1 0x84 SWAP1 REVERT JUMPDEST PUSH1 0x4 CALLDATALOAD SWAP1 PUSH1 0x1 PUSH1 0x1 PUSH1 0xA0 SHL SUB DUP3 AND DUP3 SUB PUSH2 0x187 JUMPI JUMP JUMPDEST PUSH1 0x24 CALLDATALOAD SWAP1 PUSH1 0x1 PUSH1 0x1 PUSH1 0xA0 SHL SUB DUP3 AND DUP3 SUB PUSH2 0x187 JUMPI JUMP JUMPDEST SWAP1 PUSH1 0x1 DUP3 DUP2 SHR SWAP3 AND DUP1 ISZERO PUSH2 0x27A6 JUMPI JUMPDEST PUSH1 0x20 DUP4 LT EQ PUSH2 0x2790 JUMPI JUMP JUMPDEST PUSH4 0x4E487B71 PUSH1 0xE0 SHL PUSH1 0x0 MSTORE PUSH1 0x22 PUSH1 0x4 MSTORE PUSH1 0x24 PUSH1 0x0 REVERT JUMPDEST SWAP2 PUSH1 0x7F AND SWAP2 PUSH2 0x2785 JUMP JUMPDEST PUSH2 0x140 DUP2 ADD SWAP1 DUP2 LT PUSH1 0x1 PUSH1 0x1 PUSH1 0x40 SHL SUB DUP3 GT OR PUSH2 0xAC0 JUMPI PUSH1 0x40 MSTORE JUMP JUMPDEST PUSH1 0x40 DUP2 ADD SWAP1 DUP2 LT PUSH1 0x1 PUSH1 0x1 PUSH1 0x40 SHL SUB DUP3 GT OR PUSH2 0xAC0 JUMPI PUSH1 0x40 MSTORE JUMP JUMPDEST SWAP1 PUSH1 0x1F DUP1 NOT SWAP2 ADD AND DUP2 ADD SWAP1 DUP2 LT PUSH1 0x1 PUSH1 0x1 PUSH1 0x40 SHL SUB DUP3 GT OR PUSH2 0xAC0 JUMPI PUSH1 0x40 MSTORE JUMP JUMPDEST SWAP1 PUSH1 0x40 MLOAD SWAP2 DUP3 PUSH1 0x0 DUP3 SLOAD SWAP3 PUSH2 0x281C DUP5 PUSH2 0x2776 JUMP JUMPDEST DUP1 DUP5 MSTORE SWAP4 PUSH1 0x1 DUP2 AND SWAP1 DUP2 ISZERO PUSH2 0x288A JUMPI POP PUSH1 0x1 EQ PUSH2 0x2843 JUMPI JUMPDEST POP PUSH2 0x2841 SWAP3 POP SUB DUP4 PUSH2 0x27E7 JUMP JUMPDEST JUMP JUMPDEST SWAP1 POP PUSH1 0x0 SWAP3 SWAP2 SWAP3 MSTORE PUSH1 0x20 PUSH1 0x0 KECCAK256 SWAP1 PUSH1 0x0 SWAP2 JUMPDEST DUP2 DUP4 LT PUSH2 0x286E JUMPI POP POP SWAP1 PUSH1 0x20 PUSH2 0x2841 SWAP3 DUP3 ADD ADD CODESIZE PUSH2 0x2834 JUMP JUMPDEST PUSH1 0x20 SWAP2 SWAP4 POP DUP1 PUSH1 0x1 SWAP2 SLOAD DUP4 DUP6 DUP10 ADD ADD MSTORE ADD SWAP2 ADD SWAP1 SWAP2 DUP5 SWAP3 PUSH2 0x2855 JUMP JUMPDEST SWAP1 POP PUSH1 0x20 SWAP3 POP PUSH2 0x2841 SWAP5 SWAP2 POP PUSH1 0xFF NOT AND DUP3 DUP5 ADD MSTORE ISZERO ISZERO PUSH1 0x5 SHL DUP3 ADD ADD CODESIZE PUSH2 0x2834 JUMP JUMPDEST SWAP2 SWAP1 DUP3 MLOAD SWAP3 DUP4 DUP3 MSTORE PUSH1 0x0 JUMPDEST DUP5 DUP2 LT PUSH2 0x28D8 JUMPI POP POP DUP3 PUSH1 0x0 PUSH1 0x20 DUP1 SWAP5 SWAP6 DUP5 ADD ADD MSTORE PUSH1 0x1F DUP1 NOT SWAP2 ADD AND ADD ADD SWAP1 JUMP JUMPDEST DUP1 PUSH1 0x20 DUP1 SWAP3 DUP5 ADD ADD MLOAD DUP3 DUP3 DUP7 ADD ADD MSTORE ADD PUSH2 0x28B7 JUMP JUMPDEST DUP2 PUSH1 0x1F DUP3 ADD SLT ISZERO PUSH2 0x187 JUMPI DUP1 CALLDATALOAD SWAP1 PUSH1 0x1 PUSH1 0x1 PUSH1 0x40 SHL SUB DUP3 GT PUSH2 0xAC0 JUMPI PUSH1 0x40 MLOAD SWAP3 PUSH2 0x2921 PUSH1 0x1F DUP5 ADD PUSH1 0x1F NOT AND PUSH1 0x20 ADD DUP6 PUSH2 0x27E7 JUMP JUMPDEST DUP3 DUP5 MSTORE PUSH1 0x20 DUP4 DUP4 ADD ADD GT PUSH2 0x187 JUMPI DUP2 PUSH1 0x0 SWAP3 PUSH1 0x20 DUP1 SWAP4 ADD DUP4 DUP7 ADD CALLDATACOPY DUP4 ADD ADD MSTORE SWAP1 JUMP JUMPDEST SWAP1 SWAP2 PUSH2 0x295A PUSH2 0x2968 SWAP4 PUSH1 0x40 DUP5 MSTORE PUSH1 0x40 DUP5 ADD SWAP1 PUSH2 0x28AC JUMP JUMPDEST SWAP2 PUSH1 0x20 DUP2 DUP5 SUB SWAP2 ADD MSTORE PUSH2 0x28AC JUMP JUMPDEST SWAP1 JUMP JUMPDEST PUSH1 0x0 NOT DUP2 EQ PUSH2 0x475 JUMPI PUSH1 0x1 ADD SWAP1 JUMP JUMPDEST PUSH1 0x0 SWAP3 SWAP2 DUP2 SLOAD SWAP2 PUSH2 0x298A DUP4 PUSH2 0x2776 JUMP JUMPDEST DUP1 DUP4 MSTORE SWAP3 PUSH1 0x1 DUP2 AND SWAP1 DUP2 ISZERO PUSH2 0x29E0 JUMPI POP PUSH1 0x1 EQ PUSH2 0x29A6 JUMPI POP POP POP JUMP JUMPDEST PUSH1 0x0 SWAP1 DUP2 MSTORE PUSH1 0x20 DUP2 KECCAK256 SWAP4 SWAP5 POP SWAP2 SWAP3 JUMPDEST DUP4 DUP4 LT PUSH2 0x29C6 JUMPI POP PUSH1 0x20 SWAP3 POP ADD ADD SWAP1 JUMP JUMPDEST PUSH1 0x1 DUP2 PUSH1 0x20 SWAP3 SWAP5 SWAP4 SWAP5 SLOAD DUP4 DUP6 DUP8 ADD ADD MSTORE ADD SWAP2 ADD SWAP2 SWAP1 PUSH2 0x29B5 JUMP JUMPDEST SWAP2 POP POP PUSH1 0x20 SWAP4 SWAP5 POP PUSH1 0xFF SWAP3 SWAP2 SWAP3 NOT AND DUP4 DUP4 ADD MSTORE ISZERO ISZERO PUSH1 0x5 SHL ADD ADD SWAP1 JUMP JUMPDEST ISZERO PUSH2 0x2A04 JUMPI JUMP JUMPDEST PUSH1 0x40 MLOAD PUSH3 0x461BCD PUSH1 0xE5 SHL DUP2 MSTORE PUSH1 0x20 PUSH1 0x4 DUP3 ADD MSTORE PUSH1 0x16 PUSH1 0x24 DUP3 ADD MSTORE PUSH22 0x141C9BD91D58DD08191BD95CC81B9BDD08195E1A5CDD PUSH1 0x52 SHL PUSH1 0x44 DUP3 ADD MSTORE PUSH1 0x64 SWAP1 REVERT JUMPDEST SWAP1 DUP2 PUSH1 0x20 SWAP2 SUB SLT PUSH2 0x187 JUMPI MLOAD DUP1 ISZERO ISZERO DUP2 SUB PUSH2 0x187 JUMPI SWAP1 JUMP JUMPDEST SWAP2 SWAP4 PUSH2 0x2A7B PUSH1 0x1 SWAP6 PUSH1 0xA0 SWAP6 SWAP9 SWAP8 SWAP4 DUP6 MSTORE PUSH1 0xC0 PUSH1 0x20 DUP7 ADD MSTORE PUSH1 0xC0 DUP6 ADD SWAP1 PUSH2 0x297A JUMP JUMPDEST SWAP7 PUSH1 0x40 DUP5 ADD MSTORE DUP5 DUP1 DUP6 SHL SUB AND PUSH1 0x60 DUP4 ADD MSTORE DUP4 DUP1 DUP5 SHL SUB AND PUSH1 0x80 DUP3 ADD MSTORE ADD MSTORE JUMP JUMPDEST DUP2 DUP2 MUL SWAP3 SWAP2 DUP2 ISZERO SWAP2 DUP5 DIV EQ OR ISZERO PUSH2 0x475 JUMPI JUMP JUMPDEST SWAP2 SWAP1 DUP3 SUB SWAP2 DUP3 GT PUSH2 0x475 JUMPI JUMP JUMPDEST SWAP2 SWAP1 DUP3 ADD DUP1 SWAP3 GT PUSH2 0x475 JUMPI JUMP JUMPDEST PUSH1 0x0 SLOAD PUSH1 0x1 PUSH1 0x1 PUSH1 0xA0 SHL SUB AND CALLER SUB PUSH2 0x2ADC JUMPI JUMP JUMPDEST PUSH4 0x118CDAA7 PUSH1 0xE0 SHL PUSH1 0x0 MSTORE CALLER PUSH1 0x4 MSTORE PUSH1 0x24 PUSH1 0x0 REVERT INVALID LOG2 PUSH5 0x6970667358 0x22 SLT KECCAK256 PUSH15 0x13B672B117CC937F43C4E4FB65C480 0x26 CODESIZE 0xEF DUP1 0xC1 0xB5 0x4B 0xB9 0xCD 0x21 0xC1 ADDRESS 0xC0 BLOBHASH PUSH29 0x5164736F6C634300081C00330000000000000000000000000000000000 "
        },
        "methodIdentifiers": {
          "blockedSellers(address)": "1205de47",
          "buyerCanceled(uint256,address)": "f6139f03",
          "cancelPurchase(uint256)": "c3634ddc",
          "canceledPurchases(uint256)": "ec1a9e88",
          "cancellationPenaltyPercentage()": "5e00d856",
          "confirmPayment(uint256)": "876ca09f",
          "createProduct(string,string,uint256,string)": "12c89196",
          "feePercentage()": "a001ecdd",
          "getProduct(uint256)": "b9db15b4",
          "getSellerDetails(uint256)": "2d24077d",
          "hasReported(uint256,address)": "0f0c3fc4",
          "isSellerBlocked(address)": "fd660d68",
          "owner()": "8da5cb5b",
          "penaltyPercentage()": "15908d51",
          "productCount()": "e0f6ef87",
          "products(uint256)": "7acc0b20",
          "purchaseProduct(uint256)": "38e76a03",
          "rateSeller(address)": "09f5d7ac",
          "registerSeller(string,string,string,string)": "15c24ed9",
          "renounceOwnership()": "715018a6",
          "reportCanceledPurchase(uint256)": "9833dcfa",
          "sellerContacts(address)": "633c3b0d",
          "sellers(address)": "6d47ab72",
          "totalFeesCollected()": "60c6d8ae",
          "transferOwnership(address)": "f2fde38b",
          "usdtToken()": "a98ad46c",
          "withdrawFees()": "476343ee"
        }
      }
    }
  }
}