{
  "contracts/ECommerce.sol": {
    "ECommerce": {
      "abi": [
        {
          "inputs": [
            {
              "internalType": "address",
              "name": "_usdtTokenAddress",
              "type": "address"
            }
          ],
          "stateMutability": "nonpayable",
          "type": "constructor"
        },
        {
          "inputs": [
            {
              "internalType": "address",
              "name": "owner",
              "type": "address"
            }
          ],
          "name": "OwnableInvalidOwner",
          "type": "error"
        },
        {
          "inputs": [
            {
              "internalType": "address",
              "name": "account",
              "type": "address"
            }
          ],
          "name": "OwnableUnauthorizedAccount",
          "type": "error"
        },
        {
          "anonymous": false,
          "inputs": [
            {
              "indexed": true,
              "internalType": "address",
              "name": "previousOwner",
              "type": "address"
            },
            {
              "indexed": true,
              "internalType": "address",
              "name": "newOwner",
              "type": "address"
            }
          ],
          "name": "OwnershipTransferred",
          "type": "event"
        },
        {
          "anonymous": false,
          "inputs": [
            {
              "indexed": false,
              "internalType": "uint256",
              "name": "id",
              "type": "uint256"
            },
            {
              "indexed": false,
              "internalType": "string",
              "name": "name",
              "type": "string"
            },
            {
              "indexed": false,
              "internalType": "uint256",
              "name": "price",
              "type": "uint256"
            },
            {
              "indexed": false,
              "internalType": "address payable",
              "name": "seller",
              "type": "address"
            },
            {
              "indexed": false,
              "internalType": "address payable",
              "name": "buyer",
              "type": "address"
            },
            {
              "indexed": false,
              "internalType": "bool",
              "name": "isSold",
              "type": "bool"
            }
          ],
          "name": "PaymentConfirmed",
          "type": "event"
        },
        {
          "anonymous": false,
          "inputs": [
            {
              "indexed": false,
              "internalType": "uint256",
              "name": "id",
              "type": "uint256"
            },
            {
              "indexed": false,
              "internalType": "string",
              "name": "name",
              "type": "string"
            },
            {
              "indexed": false,
              "internalType": "string",
              "name": "imageUrl",
              "type": "string"
            },
            {
              "indexed": false,
              "internalType": "uint256",
              "name": "price",
              "type": "uint256"
            },
            {
              "indexed": false,
              "internalType": "address payable",
              "name": "seller",
              "type": "address"
            },
            {
              "indexed": false,
              "internalType": "bool",
              "name": "isSold",
              "type": "bool"
            }
          ],
          "name": "ProductCreated",
          "type": "event"
        },
        {
          "anonymous": false,
          "inputs": [
            {
              "indexed": false,
              "internalType": "uint256",
              "name": "id",
              "type": "uint256"
            },
            {
              "indexed": false,
              "internalType": "string",
              "name": "name",
              "type": "string"
            },
            {
              "indexed": false,
              "internalType": "uint256",
              "name": "price",
              "type": "uint256"
            },
            {
              "indexed": false,
              "internalType": "address payable",
              "name": "seller",
              "type": "address"
            },
            {
              "indexed": false,
              "internalType": "address payable",
              "name": "buyer",
              "type": "address"
            },
            {
              "indexed": false,
              "internalType": "bool",
              "name": "isSold",
              "type": "bool"
            }
          ],
          "name": "ProductPurchased",
          "type": "event"
        },
        {
          "inputs": [
            {
              "internalType": "uint256",
              "name": "_id",
              "type": "uint256"
            }
          ],
          "name": "cancelPurchase",
          "outputs": [],
          "stateMutability": "nonpayable",
          "type": "function"
        },
        {
          "inputs": [],
          "name": "cancellationPenaltyPercentage",
          "outputs": [
            {
              "internalType": "uint256",
              "name": "",
              "type": "uint256"
            }
          ],
          "stateMutability": "view",
          "type": "function"
        },
        {
          "inputs": [
            {
              "internalType": "uint256",
              "name": "_id",
              "type": "uint256"
            }
          ],
          "name": "confirmPayment",
          "outputs": [],
          "stateMutability": "nonpayable",
          "type": "function"
        },
        {
          "inputs": [
            {
              "internalType": "string",
              "name": "_name",
              "type": "string"
            },
            {
              "internalType": "string",
              "name": "_imageUrl",
              "type": "string"
            },
            {
              "internalType": "uint256",
              "name": "_price",
              "type": "uint256"
            }
          ],
          "name": "createProduct",
          "outputs": [],
          "stateMutability": "nonpayable",
          "type": "function"
        },
        {
          "inputs": [],
          "name": "feePercentage",
          "outputs": [
            {
              "internalType": "uint256",
              "name": "",
              "type": "uint256"
            }
          ],
          "stateMutability": "view",
          "type": "function"
        },
        {
          "inputs": [
            {
              "internalType": "uint256",
              "name": "_id",
              "type": "uint256"
            }
          ],
          "name": "getProduct",
          "outputs": [
            {
              "components": [
                {
                  "internalType": "uint256",
                  "name": "id",
                  "type": "uint256"
                },
                {
                  "internalType": "string",
                  "name": "name",
                  "type": "string"
                },
                {
                  "internalType": "string",
                  "name": "imageUrl",
                  "type": "string"
                },
                {
                  "internalType": "uint256",
                  "name": "price",
                  "type": "uint256"
                },
                {
                  "internalType": "address payable",
                  "name": "seller",
                  "type": "address"
                },
                {
                  "internalType": "bool",
                  "name": "isSold",
                  "type": "bool"
                },
                {
                  "internalType": "address payable",
                  "name": "buyer",
                  "type": "address"
                }
              ],
              "internalType": "struct ECommerce.Product",
              "name": "",
              "type": "tuple"
            }
          ],
          "stateMutability": "view",
          "type": "function"
        },
        {
          "inputs": [],
          "name": "owner",
          "outputs": [
            {
              "internalType": "address",
              "name": "",
              "type": "address"
            }
          ],
          "stateMutability": "view",
          "type": "function"
        },
        {
          "inputs": [],
          "name": "penaltyPercentage",
          "outputs": [
            {
              "internalType": "uint256",
              "name": "",
              "type": "uint256"
            }
          ],
          "stateMutability": "view",
          "type": "function"
        },
        {
          "inputs": [],
          "name": "productCount",
          "outputs": [
            {
              "internalType": "uint256",
              "name": "",
              "type": "uint256"
            }
          ],
          "stateMutability": "view",
          "type": "function"
        },
        {
          "inputs": [
            {
              "internalType": "uint256",
              "name": "",
              "type": "uint256"
            }
          ],
          "name": "products",
          "outputs": [
            {
              "internalType": "uint256",
              "name": "id",
              "type": "uint256"
            },
            {
              "internalType": "string",
              "name": "name",
              "type": "string"
            },
            {
              "internalType": "string",
              "name": "imageUrl",
              "type": "string"
            },
            {
              "internalType": "uint256",
              "name": "price",
              "type": "uint256"
            },
            {
              "internalType": "address payable",
              "name": "seller",
              "type": "address"
            },
            {
              "internalType": "bool",
              "name": "isSold",
              "type": "bool"
            },
            {
              "internalType": "address payable",
              "name": "buyer",
              "type": "address"
            }
          ],
          "stateMutability": "view",
          "type": "function"
        },
        {
          "inputs": [
            {
              "internalType": "uint256",
              "name": "_id",
              "type": "uint256"
            }
          ],
          "name": "purchaseProduct",
          "outputs": [],
          "stateMutability": "nonpayable",
          "type": "function"
        },
        {
          "inputs": [],
          "name": "renounceOwnership",
          "outputs": [],
          "stateMutability": "nonpayable",
          "type": "function"
        },
        {
          "inputs": [],
          "name": "totalFeesCollected",
          "outputs": [
            {
              "internalType": "uint256",
              "name": "",
              "type": "uint256"
            }
          ],
          "stateMutability": "view",
          "type": "function"
        },
        {
          "inputs": [
            {
              "internalType": "address",
              "name": "newOwner",
              "type": "address"
            }
          ],
          "name": "transferOwnership",
          "outputs": [],
          "stateMutability": "nonpayable",
          "type": "function"
        },
        {
          "inputs": [],
          "name": "usdtToken",
          "outputs": [
            {
              "internalType": "contract IERC20",
              "name": "",
              "type": "address"
            }
          ],
          "stateMutability": "view",
          "type": "function"
        },
        {
          "inputs": [],
          "name": "withdrawFees",
          "outputs": [],
          "stateMutability": "nonpayable",
          "type": "function"
        }
      ],
      "evm": {
        "bytecode": {
          "linkReferences": {},
          "object": "6080346100eb57601f61148338819003918201601f19168301916001600160401b038311848410176100f0578084926020946040528339810103126100eb57516001600160a01b038116908190036100eb5733156100d55760008054336001600160a01b0319821681178355604051939290916001600160a01b0316907f8be0079c531659141344cd1fd0a4f28419497f9722a3daafe3b4186f6b6457e09080a3600060025560056004556003600555600a600655600060075560018060a01b0319600154161760015561137c90816101078239f35b631e4fbdf760e01b600052600060045260246000fd5b600080fd5b634e487b7160e01b600052604160045260246000fdfe608080604052600436101561001357600080fd5b60003560e01c90816315908d51146110435750806338e76a0314610d5f578063476343ee14610cd95780635e00d85614610cbb57806360c6d8ae14610c9d578063715018a614610c445780637acc0b2014610b97578063876ca09f14610a1b5780638da5cb5b146109f2578063a001ecdd146109d4578063a1422209146104d8578063a98ad46c146104af578063b9db15b414610372578063c3634ddc1461017f578063e0f6ef87146101615763f2fde38b146100cf57600080fd5b3461015c57602036600319011261015c576004356001600160a01b0381169081900361015c576100fd61131d565b801561014657600080546001600160a01b03198116831782556001600160a01b0316907f8be0079c531659141344cd1fd0a4f28419497f9722a3daafe3b4186f6b6457e09080a3005b631e4fbdf760e01b600052600060045260246000fd5b600080fd5b3461015c57600036600319011261015c576020600254604051908152f35b3461015c57602036600319011261015c5760043560005260036020526040600020600581019060018060a01b03825416330361031e57610240600382015460206101d860646101d0600654856112f0565b048093611303565b6101fd6101f460646101ec600554876112f0565b048095611303565b93600754611310565b600755600154865460405163a9059cbb60e01b81526001600160a01b03918216600482015260248101939093529194859290911690829060009082906044820190565b03925af19081156102f75761029f92602092610303575b506001546004948501805460405163a9059cbb60e01b81526001600160a01b039182169781019790975260248701939093529493849290911690829060009082906044820190565b03925af180156102f7576102ca575b50805460ff60a01b1916905580546001600160a01b0319169055005b6102eb9060203d6020116102f0575b6102e381836110b4565b810190611212565b6102ae565b503d6102d9565b6040513d6000823e3d90fd5b61031990833d85116102f0576102e381836110b4565b610257565b60405162461bcd60e51b815260206004820152602660248201527f4f6e6c79207468652062757965722063616e2063616e63656c2074686520707560448201526572636861736560d01b6064820152608490fd5b3461015c57602036600319011261015c57600060c060405161039381611098565b82815260606020820152606060408201528260608201528260808201528260a08201520152600435600052600360205260406000206040516103d481611098565b815481526103e4600183016110d6565b91602082019283526103f8600282016110d6565b6040830190815260038201549160608401928352600481015490610482608086019160018060a01b038416835260ff60a088019460a01c1615158452600560018060a01b03910154169360c0870194855261046f60405198899860208a525160208a01525160e060408a015261010089019061117a565b9051878203601f1901606089015261117a565b93516080860152516001600160a01b0390811660a08601529051151560c085015290511660e08301520390f35b3461015c57600036600319011261015c576001546040516001600160a01b039091168152602090f35b3461015c57606036600319011261015c5760043567ffffffffffffffff811161015c576105099036906004016111bb565b60243567ffffffffffffffff811161015c576105299036906004016111bb565b906044359181511561098f5780511561094a5782156108f55760025460001981146108df57600101928360025560405161056281611098565b848152602081019484865260408201958487526060830190848252608084019133835260a08501916000835260c086019460008652600052600360205260406000209551865560018601905180519067ffffffffffffffff82116108065781906105cc845461105e565b601f811161088c575b50602090601f83116001146108275760009261081c575b50508160011b916000199060031b1c19161790555b60028501985198895167ffffffffffffffff811161080657610623825461105e565b601f81116107be575b506020601f821160011461073057908060059796959493927f63a99101901c72cb03a9e6f1cbaeda2eb16085ea58e490c2ecf7835160b16eb29d600092610725575b50508160011b916000199060031b1c19161790555b516003860155905160048501805492516001600160a81b03199093166001600160a01b039283161792151560a01b60ff60a01b169290921790915590519190920180546001600160a01b0319169190921617905560025460405190815260c0602082018190529093849361070d9290916106ff9186019061117a565b90848203604086015261117a565b906060830152336080830152600060a08301520390a1005b015190508d8061066e565b601f1982169083600052806000209160005b8181106107a657509183917f63a99101901c72cb03a9e6f1cbaeda2eb16085ea58e490c2ecf7835160b16eb29e60059a99989796956001951061078d575b505050811b019055610683565b015160001960f88460031b161c191690558d8080610780565b8e830151845560019093019260209283019201610742565b826000526020600020601f830160051c810191602084106107fc575b601f0160051c01905b8181106107f0575061062c565b600081556001016107e3565b90915081906107da565b634e487b7160e01b600052604160045260246000fd5b015190508c806105ec565b60008581528281209350601f198516905b818110610874575090846001959493921061085b575b505050811b019055610601565b015160001960f88460031b161c191690558c808061084e565b92936020600181928786015181550195019301610838565b909150836000526020600020601f840160051c810191602085106108d5575b90601f859493920160051c01905b8181106108c657506105d5565b600081558493506001016108b9565b90915081906108ab565b634e487b7160e01b600052601160045260246000fd5b60405162461bcd60e51b815260206004820152602760248201527f50726f64756374207072696365206d7573742062652067726561746572207468604482015266616e207a65726f60c81b6064820152608490fd5b60405162461bcd60e51b815260206004820152601d60248201527f50726f6475637420696d6167652055524c2069732072657175697265640000006044820152606490fd5b60405162461bcd60e51b815260206004820152601860248201527f50726f64756374206e616d6520697320726571756972656400000000000000006044820152606490fd5b3461015c57600036600319011261015c576020600454604051908152f35b3461015c57600036600319011261015c576000546040516001600160a01b039091168152602090f35b3461015c57602036600319011261015c5760043560008181526003602052604090206005810180549091906001600160a01b03163303610b4357610ac3916003820193845491610a756101f460646101ec600454876112f0565b6007556001546004858101805460405163a9059cbb60e01b81526001600160a01b03918216938101939093526024830196909652909690946020928892911690829060009082906044820190565b03925af19283156102f7577f9620b27be3795a0ce7111c8e7168631996e44dd6a5f7cc7234c970605378ccc896600196610b2195610b26575b505490868060a01b0390541691868060a01b039054169260405196879601908661122a565b0390a1005b610b3e9060203d6020116102f0576102e381836110b4565b610afc565b60405162461bcd60e51b815260206004820152602660248201527f4f6e6c79207468652062757965722063616e20636f6e6669726d207468652070604482015265185e5b595b9d60d21b6064820152608490fd5b3461015c57602036600319011261015c57600435600052600360205260406000208054610bc6600183016110d6565b91610bd3600282016110d6565b60ff600383015492610c1c600482015491600560018060a01b039101541693610c0e604051988998895260e060208a015260e089019061117a565b90878203604089015261117a565b93606086015260018060a01b038116608086015260a01c16151560a084015260c08301520390f35b3461015c57600036600319011261015c57610c5d61131d565b600080546001600160a01b0319811682556001600160a01b03167f8be0079c531659141344cd1fd0a4f28419497f9722a3daafe3b4186f6b6457e08280a3005b3461015c57600036600319011261015c576020600754604051908152f35b3461015c57600036600319011261015c576020600654604051908152f35b3461015c57600036600319011261015c57610cf261131d565b6001546000805460075460405163a9059cbb60e01b81526001600160a01b0392831660048201526024810191909152926020928492604492849291165af180156102f757610d42575b6000600755005b610d5a9060203d6020116102f0576102e381836110b4565b610d3b565b3461015c57602036600319011261015c576004358060005260036020526040600020600481019182549260018060a01b0384169280548015159081611036575b5015610ff857600381019160448354602060018060a01b036001541660405193848092636eb1769f60e11b82523360048301523060248301525afa9182156102f757600092610fc4575b5011610f645760ff8660a01c16610f1f57338514610ece5760ff60a01b19909516600160a01b179094556005840180546001600160a01b0319163390811790915560015482546040516323b872dd60e01b815260048101939093523060248401526044830152909490602090869060649082906000906001600160a01b03165af19182156102f7577f64f41258f3d51a589cea8504d1f51403f46583535a3e84e2cbe3f8d50674d00b95610b2193610eb1575b5054936040519485946001339401908661122a565b610ec99060203d6020116102f0576102e381836110b4565b610e9c565b60405162461bcd60e51b815260206004820152602360248201527f53656c6c65722063616e6e6f7420627579207468656972206f776e2070726f646044820152621d58dd60ea1b6064820152608490fd5b60405162461bcd60e51b815260206004820152601760248201527f50726f6475637420697320616c726561647920736f6c640000000000000000006044820152606490fd5b60405162461bcd60e51b815260206004820152603260248201527f4e6f7420656e6f756768205553445420616c6c6f77616e636520746f2070757260448201527118da185cd9481d1a1a5cc81c1c9bd91d58dd60721b6064820152608490fd5b9091506020813d602011610ff0575b81610fe0602093836110b4565b8101031261015c57519088610de9565b3d9150610fd3565b60405162461bcd60e51b8152602060048201526016602482015275141c9bd91d58dd08191bd95cc81b9bdd08195e1a5cdd60521b6044820152606490fd5b9050600254101586610d9f565b3461015c57600036600319011261015c576020906005548152f35b90600182811c9216801561108e575b602083101461107857565b634e487b7160e01b600052602260045260246000fd5b91607f169161106d565b60e0810190811067ffffffffffffffff82111761080657604052565b90601f8019910116810190811067ffffffffffffffff82111761080657604052565b90604051918260008254926110ea8461105e565b80845293600181169081156111585750600114611111575b5061110f925003836110b4565b565b90506000929192526020600020906000915b81831061113c57505090602061110f9282010138611102565b6020919350806001915483858901015201910190918492611123565b90506020925061110f94915060ff191682840152151560051b82010138611102565b919082519283825260005b8481106111a6575050826000602080949584010152601f8019910116010190565b80602080928401015182828601015201611185565b81601f8201121561015c5780359067ffffffffffffffff821161080657604051926111f0601f8401601f1916602001856110b4565b8284526020838301011161015c57816000926020809301838601378301015290565b9081602091031261015c5751801515810361015c5790565b93919095949295845260c060208501526000908054906112498261105e565b918260c08801526001811690816000146112ca5750600114611290575b505060408401959095526001600160a01b039081166060840152166080820152600160a090910152565b6000908152602081209092505b8183106112b3575050830160e0018160a0611266565b805460e0848801015260209092019160010161129d565b60ff191660e08881019190915292151560051b8701909201925083915060a09050611266565b818102929181159184041417156108df57565b919082039182116108df57565b919082018092116108df57565b6000546001600160a01b0316330361133157565b63118cdaa760e01b6000523360045260246000fdfea2646970667358221220ef727e76743f2017a08e46976610cbfa4aa8c99ac580c2e6d6d6c6131b4dbec964736f6c634300081c0033",
          "opcodes": "PUSH1 0x80 CALLVALUE PUSH2 0xEB JUMPI PUSH1 0x1F PUSH2 0x1483 CODESIZE DUP2 SWAP1 SUB SWAP2 DUP3 ADD PUSH1 0x1F NOT AND DUP4 ADD SWAP2 PUSH1 0x1 PUSH1 0x1 PUSH1 0x40 SHL SUB DUP4 GT DUP5 DUP5 LT OR PUSH2 0xF0 JUMPI DUP1 DUP5 SWAP3 PUSH1 0x20 SWAP5 PUSH1 0x40 MSTORE DUP4 CODECOPY DUP2 ADD SUB SLT PUSH2 0xEB JUMPI MLOAD PUSH1 0x1 PUSH1 0x1 PUSH1 0xA0 SHL SUB DUP2 AND SWAP1 DUP2 SWAP1 SUB PUSH2 0xEB JUMPI CALLER ISZERO PUSH2 0xD5 JUMPI PUSH1 0x0 DUP1 SLOAD CALLER PUSH1 0x1 PUSH1 0x1 PUSH1 0xA0 SHL SUB NOT DUP3 AND DUP2 OR DUP4 SSTORE PUSH1 0x40 MLOAD SWAP4 SWAP3 SWAP1 SWAP2 PUSH1 0x1 PUSH1 0x1 PUSH1 0xA0 SHL SUB AND SWAP1 PUSH32 0x8BE0079C531659141344CD1FD0A4F28419497F9722A3DAAFE3B4186F6B6457E0 SWAP1 DUP1 LOG3 PUSH1 0x0 PUSH1 0x2 SSTORE PUSH1 0x5 PUSH1 0x4 SSTORE PUSH1 0x3 PUSH1 0x5 SSTORE PUSH1 0xA PUSH1 0x6 SSTORE PUSH1 0x0 PUSH1 0x7 SSTORE PUSH1 0x1 DUP1 PUSH1 0xA0 SHL SUB NOT PUSH1 0x1 SLOAD AND OR PUSH1 0x1 SSTORE PUSH2 0x137C SWAP1 DUP2 PUSH2 0x107 DUP3 CODECOPY RETURN JUMPDEST PUSH4 0x1E4FBDF7 PUSH1 0xE0 SHL PUSH1 0x0 MSTORE PUSH1 0x0 PUSH1 0x4 MSTORE PUSH1 0x24 PUSH1 0x0 REVERT JUMPDEST PUSH1 0x0 DUP1 REVERT JUMPDEST PUSH4 0x4E487B71 PUSH1 0xE0 SHL PUSH1 0x0 MSTORE PUSH1 0x41 PUSH1 0x4 MSTORE PUSH1 0x24 PUSH1 0x0 REVERT INVALID PUSH1 0x80 DUP1 PUSH1 0x40 MSTORE PUSH1 0x4 CALLDATASIZE LT ISZERO PUSH2 0x13 JUMPI PUSH1 0x0 DUP1 REVERT JUMPDEST PUSH1 0x0 CALLDATALOAD PUSH1 0xE0 SHR SWAP1 DUP2 PUSH4 0x15908D51 EQ PUSH2 0x1043 JUMPI POP DUP1 PUSH4 0x38E76A03 EQ PUSH2 0xD5F JUMPI DUP1 PUSH4 0x476343EE EQ PUSH2 0xCD9 JUMPI DUP1 PUSH4 0x5E00D856 EQ PUSH2 0xCBB JUMPI DUP1 PUSH4 0x60C6D8AE EQ PUSH2 0xC9D JUMPI DUP1 PUSH4 0x715018A6 EQ PUSH2 0xC44 JUMPI DUP1 PUSH4 0x7ACC0B20 EQ PUSH2 0xB97 JUMPI DUP1 PUSH4 0x876CA09F EQ PUSH2 0xA1B JUMPI DUP1 PUSH4 0x8DA5CB5B EQ PUSH2 0x9F2 JUMPI DUP1 PUSH4 0xA001ECDD EQ PUSH2 0x9D4 JUMPI DUP1 PUSH4 0xA1422209 EQ PUSH2 0x4D8 JUMPI DUP1 PUSH4 0xA98AD46C EQ PUSH2 0x4AF JUMPI DUP1 PUSH4 0xB9DB15B4 EQ PUSH2 0x372 JUMPI DUP1 PUSH4 0xC3634DDC EQ PUSH2 0x17F JUMPI DUP1 PUSH4 0xE0F6EF87 EQ PUSH2 0x161 JUMPI PUSH4 0xF2FDE38B EQ PUSH2 0xCF JUMPI PUSH1 0x0 DUP1 REVERT JUMPDEST CALLVALUE PUSH2 0x15C JUMPI PUSH1 0x20 CALLDATASIZE PUSH1 0x3 NOT ADD SLT PUSH2 0x15C JUMPI PUSH1 0x4 CALLDATALOAD PUSH1 0x1 PUSH1 0x1 PUSH1 0xA0 SHL SUB DUP2 AND SWAP1 DUP2 SWAP1 SUB PUSH2 0x15C JUMPI PUSH2 0xFD PUSH2 0x131D JUMP JUMPDEST DUP1 ISZERO PUSH2 0x146 JUMPI PUSH1 0x0 DUP1 SLOAD PUSH1 0x1 PUSH1 0x1 PUSH1 0xA0 SHL SUB NOT DUP2 AND DUP4 OR DUP3 SSTORE PUSH1 0x1 PUSH1 0x1 PUSH1 0xA0 SHL SUB AND SWAP1 PUSH32 0x8BE0079C531659141344CD1FD0A4F28419497F9722A3DAAFE3B4186F6B6457E0 SWAP1 DUP1 LOG3 STOP JUMPDEST PUSH4 0x1E4FBDF7 PUSH1 0xE0 SHL PUSH1 0x0 MSTORE PUSH1 0x0 PUSH1 0x4 MSTORE PUSH1 0x24 PUSH1 0x0 REVERT JUMPDEST PUSH1 0x0 DUP1 REVERT JUMPDEST CALLVALUE PUSH2 0x15C JUMPI PUSH1 0x0 CALLDATASIZE PUSH1 0x3 NOT ADD SLT PUSH2 0x15C JUMPI PUSH1 0x20 PUSH1 0x2 SLOAD PUSH1 0x40 MLOAD SWAP1 DUP2 MSTORE RETURN JUMPDEST CALLVALUE PUSH2 0x15C JUMPI PUSH1 0x20 CALLDATASIZE PUSH1 0x3 NOT ADD SLT PUSH2 0x15C JUMPI PUSH1 0x4 CALLDATALOAD PUSH1 0x0 MSTORE PUSH1 0x3 PUSH1 0x20 MSTORE PUSH1 0x40 PUSH1 0x0 KECCAK256 PUSH1 0x5 DUP2 ADD SWAP1 PUSH1 0x1 DUP1 PUSH1 0xA0 SHL SUB DUP3 SLOAD AND CALLER SUB PUSH2 0x31E JUMPI PUSH2 0x240 PUSH1 0x3 DUP3 ADD SLOAD PUSH1 0x20 PUSH2 0x1D8 PUSH1 0x64 PUSH2 0x1D0 PUSH1 0x6 SLOAD DUP6 PUSH2 0x12F0 JUMP JUMPDEST DIV DUP1 SWAP4 PUSH2 0x1303 JUMP JUMPDEST PUSH2 0x1FD PUSH2 0x1F4 PUSH1 0x64 PUSH2 0x1EC PUSH1 0x5 SLOAD DUP8 PUSH2 0x12F0 JUMP JUMPDEST DIV DUP1 SWAP6 PUSH2 0x1303 JUMP JUMPDEST SWAP4 PUSH1 0x7 SLOAD PUSH2 0x1310 JUMP JUMPDEST PUSH1 0x7 SSTORE PUSH1 0x1 SLOAD DUP7 SLOAD PUSH1 0x40 MLOAD PUSH4 0xA9059CBB PUSH1 0xE0 SHL DUP2 MSTORE PUSH1 0x1 PUSH1 0x1 PUSH1 0xA0 SHL SUB SWAP2 DUP3 AND PUSH1 0x4 DUP3 ADD MSTORE PUSH1 0x24 DUP2 ADD SWAP4 SWAP1 SWAP4 MSTORE SWAP2 SWAP5 DUP6 SWAP3 SWAP1 SWAP2 AND SWAP1 DUP3 SWAP1 PUSH1 0x0 SWAP1 DUP3 SWAP1 PUSH1 0x44 DUP3 ADD SWAP1 JUMP JUMPDEST SUB SWAP3 GAS CALL SWAP1 DUP2 ISZERO PUSH2 0x2F7 JUMPI PUSH2 0x29F SWAP3 PUSH1 0x20 SWAP3 PUSH2 0x303 JUMPI JUMPDEST POP PUSH1 0x1 SLOAD PUSH1 0x4 SWAP5 DUP6 ADD DUP1 SLOAD PUSH1 0x40 MLOAD PUSH4 0xA9059CBB PUSH1 0xE0 SHL DUP2 MSTORE PUSH1 0x1 PUSH1 0x1 PUSH1 0xA0 SHL SUB SWAP2 DUP3 AND SWAP8 DUP2 ADD SWAP8 SWAP1 SWAP8 MSTORE PUSH1 0x24 DUP8 ADD SWAP4 SWAP1 SWAP4 MSTORE SWAP5 SWAP4 DUP5 SWAP3 SWAP1 SWAP2 AND SWAP1 DUP3 SWAP1 PUSH1 0x0 SWAP1 DUP3 SWAP1 PUSH1 0x44 DUP3 ADD SWAP1 JUMP JUMPDEST SUB SWAP3 GAS CALL DUP1 ISZERO PUSH2 0x2F7 JUMPI PUSH2 0x2CA JUMPI JUMPDEST POP DUP1 SLOAD PUSH1 0xFF PUSH1 0xA0 SHL NOT AND SWAP1 SSTORE DUP1 SLOAD PUSH1 0x1 PUSH1 0x1 PUSH1 0xA0 SHL SUB NOT AND SWAP1 SSTORE STOP JUMPDEST PUSH2 0x2EB SWAP1 PUSH1 0x20 RETURNDATASIZE PUSH1 0x20 GT PUSH2 0x2F0 JUMPI JUMPDEST PUSH2 0x2E3 DUP2 DUP4 PUSH2 0x10B4 JUMP JUMPDEST DUP2 ADD SWAP1 PUSH2 0x1212 JUMP JUMPDEST PUSH2 0x2AE JUMP JUMPDEST POP RETURNDATASIZE PUSH2 0x2D9 JUMP JUMPDEST PUSH1 0x40 MLOAD RETURNDATASIZE PUSH1 0x0 DUP3 RETURNDATACOPY RETURNDATASIZE SWAP1 REVERT JUMPDEST PUSH2 0x319 SWAP1 DUP4 RETURNDATASIZE DUP6 GT PUSH2 0x2F0 JUMPI PUSH2 0x2E3 DUP2 DUP4 PUSH2 0x10B4 JUMP JUMPDEST PUSH2 0x257 JUMP JUMPDEST PUSH1 0x40 MLOAD PUSH3 0x461BCD PUSH1 0xE5 SHL DUP2 MSTORE PUSH1 0x20 PUSH1 0x4 DUP3 ADD MSTORE PUSH1 0x26 PUSH1 0x24 DUP3 ADD MSTORE PUSH32 0x4F6E6C79207468652062757965722063616E2063616E63656C20746865207075 PUSH1 0x44 DUP3 ADD MSTORE PUSH6 0x726368617365 PUSH1 0xD0 SHL PUSH1 0x64 DUP3 ADD MSTORE PUSH1 0x84 SWAP1 REVERT JUMPDEST CALLVALUE PUSH2 0x15C JUMPI PUSH1 0x20 CALLDATASIZE PUSH1 0x3 NOT ADD SLT PUSH2 0x15C JUMPI PUSH1 0x0 PUSH1 0xC0 PUSH1 0x40 MLOAD PUSH2 0x393 DUP2 PUSH2 0x1098 JUMP JUMPDEST DUP3 DUP2 MSTORE PUSH1 0x60 PUSH1 0x20 DUP3 ADD MSTORE PUSH1 0x60 PUSH1 0x40 DUP3 ADD MSTORE DUP3 PUSH1 0x60 DUP3 ADD MSTORE DUP3 PUSH1 0x80 DUP3 ADD MSTORE DUP3 PUSH1 0xA0 DUP3 ADD MSTORE ADD MSTORE PUSH1 0x4 CALLDATALOAD PUSH1 0x0 MSTORE PUSH1 0x3 PUSH1 0x20 MSTORE PUSH1 0x40 PUSH1 0x0 KECCAK256 PUSH1 0x40 MLOAD PUSH2 0x3D4 DUP2 PUSH2 0x1098 JUMP JUMPDEST DUP2 SLOAD DUP2 MSTORE PUSH2 0x3E4 PUSH1 0x1 DUP4 ADD PUSH2 0x10D6 JUMP JUMPDEST SWAP2 PUSH1 0x20 DUP3 ADD SWAP3 DUP4 MSTORE PUSH2 0x3F8 PUSH1 0x2 DUP3 ADD PUSH2 0x10D6 JUMP JUMPDEST PUSH1 0x40 DUP4 ADD SWAP1 DUP2 MSTORE PUSH1 0x3 DUP3 ADD SLOAD SWAP2 PUSH1 0x60 DUP5 ADD SWAP3 DUP4 MSTORE PUSH1 0x4 DUP2 ADD SLOAD SWAP1 PUSH2 0x482 PUSH1 0x80 DUP7 ADD SWAP2 PUSH1 0x1 DUP1 PUSH1 0xA0 SHL SUB DUP5 AND DUP4 MSTORE PUSH1 0xFF PUSH1 0xA0 DUP9 ADD SWAP5 PUSH1 0xA0 SHR AND ISZERO ISZERO DUP5 MSTORE PUSH1 0x5 PUSH1 0x1 DUP1 PUSH1 0xA0 SHL SUB SWAP2 ADD SLOAD AND SWAP4 PUSH1 0xC0 DUP8 ADD SWAP5 DUP6 MSTORE PUSH2 0x46F PUSH1 0x40 MLOAD SWAP9 DUP10 SWAP9 PUSH1 0x20 DUP11 MSTORE MLOAD PUSH1 0x20 DUP11 ADD MSTORE MLOAD PUSH1 0xE0 PUSH1 0x40 DUP11 ADD MSTORE PUSH2 0x100 DUP10 ADD SWAP1 PUSH2 0x117A JUMP JUMPDEST SWAP1 MLOAD DUP8 DUP3 SUB PUSH1 0x1F NOT ADD PUSH1 0x60 DUP10 ADD MSTORE PUSH2 0x117A JUMP JUMPDEST SWAP4 MLOAD PUSH1 0x80 DUP7 ADD MSTORE MLOAD PUSH1 0x1 PUSH1 0x1 PUSH1 0xA0 SHL SUB SWAP1 DUP2 AND PUSH1 0xA0 DUP7 ADD MSTORE SWAP1 MLOAD ISZERO ISZERO PUSH1 0xC0 DUP6 ADD MSTORE SWAP1 MLOAD AND PUSH1 0xE0 DUP4 ADD MSTORE SUB SWAP1 RETURN JUMPDEST CALLVALUE PUSH2 0x15C JUMPI PUSH1 0x0 CALLDATASIZE PUSH1 0x3 NOT ADD SLT PUSH2 0x15C JUMPI PUSH1 0x1 SLOAD PUSH1 0x40 MLOAD PUSH1 0x1 PUSH1 0x1 PUSH1 0xA0 SHL SUB SWAP1 SWAP2 AND DUP2 MSTORE PUSH1 0x20 SWAP1 RETURN JUMPDEST CALLVALUE PUSH2 0x15C JUMPI PUSH1 0x60 CALLDATASIZE PUSH1 0x3 NOT ADD SLT PUSH2 0x15C JUMPI PUSH1 0x4 CALLDATALOAD PUSH8 0xFFFFFFFFFFFFFFFF DUP2 GT PUSH2 0x15C JUMPI PUSH2 0x509 SWAP1 CALLDATASIZE SWAP1 PUSH1 0x4 ADD PUSH2 0x11BB JUMP JUMPDEST PUSH1 0x24 CALLDATALOAD PUSH8 0xFFFFFFFFFFFFFFFF DUP2 GT PUSH2 0x15C JUMPI PUSH2 0x529 SWAP1 CALLDATASIZE SWAP1 PUSH1 0x4 ADD PUSH2 0x11BB JUMP JUMPDEST SWAP1 PUSH1 0x44 CALLDATALOAD SWAP2 DUP2 MLOAD ISZERO PUSH2 0x98F JUMPI DUP1 MLOAD ISZERO PUSH2 0x94A JUMPI DUP3 ISZERO PUSH2 0x8F5 JUMPI PUSH1 0x2 SLOAD PUSH1 0x0 NOT DUP2 EQ PUSH2 0x8DF JUMPI PUSH1 0x1 ADD SWAP3 DUP4 PUSH1 0x2 SSTORE PUSH1 0x40 MLOAD PUSH2 0x562 DUP2 PUSH2 0x1098 JUMP JUMPDEST DUP5 DUP2 MSTORE PUSH1 0x20 DUP2 ADD SWAP5 DUP5 DUP7 MSTORE PUSH1 0x40 DUP3 ADD SWAP6 DUP5 DUP8 MSTORE PUSH1 0x60 DUP4 ADD SWAP1 DUP5 DUP3 MSTORE PUSH1 0x80 DUP5 ADD SWAP2 CALLER DUP4 MSTORE PUSH1 0xA0 DUP6 ADD SWAP2 PUSH1 0x0 DUP4 MSTORE PUSH1 0xC0 DUP7 ADD SWAP5 PUSH1 0x0 DUP7 MSTORE PUSH1 0x0 MSTORE PUSH1 0x3 PUSH1 0x20 MSTORE PUSH1 0x40 PUSH1 0x0 KECCAK256 SWAP6 MLOAD DUP7 SSTORE PUSH1 0x1 DUP7 ADD SWAP1 MLOAD DUP1 MLOAD SWAP1 PUSH8 0xFFFFFFFFFFFFFFFF DUP3 GT PUSH2 0x806 JUMPI DUP2 SWAP1 PUSH2 0x5CC DUP5 SLOAD PUSH2 0x105E JUMP JUMPDEST PUSH1 0x1F DUP2 GT PUSH2 0x88C JUMPI JUMPDEST POP PUSH1 0x20 SWAP1 PUSH1 0x1F DUP4 GT PUSH1 0x1 EQ PUSH2 0x827 JUMPI PUSH1 0x0 SWAP3 PUSH2 0x81C JUMPI JUMPDEST POP POP DUP2 PUSH1 0x1 SHL SWAP2 PUSH1 0x0 NOT SWAP1 PUSH1 0x3 SHL SHR NOT AND OR SWAP1 SSTORE JUMPDEST PUSH1 0x2 DUP6 ADD SWAP9 MLOAD SWAP9 DUP10 MLOAD PUSH8 0xFFFFFFFFFFFFFFFF DUP2 GT PUSH2 0x806 JUMPI PUSH2 0x623 DUP3 SLOAD PUSH2 0x105E JUMP JUMPDEST PUSH1 0x1F DUP2 GT PUSH2 0x7BE JUMPI JUMPDEST POP PUSH1 0x20 PUSH1 0x1F DUP3 GT PUSH1 0x1 EQ PUSH2 0x730 JUMPI SWAP1 DUP1 PUSH1 0x5 SWAP8 SWAP7 SWAP6 SWAP5 SWAP4 SWAP3 PUSH32 0x63A99101901C72CB03A9E6F1CBAEDA2EB16085EA58E490C2ECF7835160B16EB2 SWAP14 PUSH1 0x0 SWAP3 PUSH2 0x725 JUMPI JUMPDEST POP POP DUP2 PUSH1 0x1 SHL SWAP2 PUSH1 0x0 NOT SWAP1 PUSH1 0x3 SHL SHR NOT AND OR SWAP1 SSTORE JUMPDEST MLOAD PUSH1 0x3 DUP7 ADD SSTORE SWAP1 MLOAD PUSH1 0x4 DUP6 ADD DUP1 SLOAD SWAP3 MLOAD PUSH1 0x1 PUSH1 0x1 PUSH1 0xA8 SHL SUB NOT SWAP1 SWAP4 AND PUSH1 0x1 PUSH1 0x1 PUSH1 0xA0 SHL SUB SWAP3 DUP4 AND OR SWAP3 ISZERO ISZERO PUSH1 0xA0 SHL PUSH1 0xFF PUSH1 0xA0 SHL AND SWAP3 SWAP1 SWAP3 OR SWAP1 SWAP2 SSTORE SWAP1 MLOAD SWAP2 SWAP1 SWAP3 ADD DUP1 SLOAD PUSH1 0x1 PUSH1 0x1 PUSH1 0xA0 SHL SUB NOT AND SWAP2 SWAP1 SWAP3 AND OR SWAP1 SSTORE PUSH1 0x2 SLOAD PUSH1 0x40 MLOAD SWAP1 DUP2 MSTORE PUSH1 0xC0 PUSH1 0x20 DUP3 ADD DUP2 SWAP1 MSTORE SWAP1 SWAP4 DUP5 SWAP4 PUSH2 0x70D SWAP3 SWAP1 SWAP2 PUSH2 0x6FF SWAP2 DUP7 ADD SWAP1 PUSH2 0x117A JUMP JUMPDEST SWAP1 DUP5 DUP3 SUB PUSH1 0x40 DUP7 ADD MSTORE PUSH2 0x117A JUMP JUMPDEST SWAP1 PUSH1 0x60 DUP4 ADD MSTORE CALLER PUSH1 0x80 DUP4 ADD MSTORE PUSH1 0x0 PUSH1 0xA0 DUP4 ADD MSTORE SUB SWAP1 LOG1 STOP JUMPDEST ADD MLOAD SWAP1 POP DUP14 DUP1 PUSH2 0x66E JUMP JUMPDEST PUSH1 0x1F NOT DUP3 AND SWAP1 DUP4 PUSH1 0x0 MSTORE DUP1 PUSH1 0x0 KECCAK256 SWAP2 PUSH1 0x0 JUMPDEST DUP2 DUP2 LT PUSH2 0x7A6 JUMPI POP SWAP2 DUP4 SWAP2 PUSH32 0x63A99101901C72CB03A9E6F1CBAEDA2EB16085EA58E490C2ECF7835160B16EB2 SWAP15 PUSH1 0x5 SWAP11 SWAP10 SWAP9 SWAP8 SWAP7 SWAP6 PUSH1 0x1 SWAP6 LT PUSH2 0x78D JUMPI JUMPDEST POP POP POP DUP2 SHL ADD SWAP1 SSTORE PUSH2 0x683 JUMP JUMPDEST ADD MLOAD PUSH1 0x0 NOT PUSH1 0xF8 DUP5 PUSH1 0x3 SHL AND SHR NOT AND SWAP1 SSTORE DUP14 DUP1 DUP1 PUSH2 0x780 JUMP JUMPDEST DUP15 DUP4 ADD MLOAD DUP5 SSTORE PUSH1 0x1 SWAP1 SWAP4 ADD SWAP3 PUSH1 0x20 SWAP3 DUP4 ADD SWAP3 ADD PUSH2 0x742 JUMP JUMPDEST DUP3 PUSH1 0x0 MSTORE PUSH1 0x20 PUSH1 0x0 KECCAK256 PUSH1 0x1F DUP4 ADD PUSH1 0x5 SHR DUP2 ADD SWAP2 PUSH1 0x20 DUP5 LT PUSH2 0x7FC JUMPI JUMPDEST PUSH1 0x1F ADD PUSH1 0x5 SHR ADD SWAP1 JUMPDEST DUP2 DUP2 LT PUSH2 0x7F0 JUMPI POP PUSH2 0x62C JUMP JUMPDEST PUSH1 0x0 DUP2 SSTORE PUSH1 0x1 ADD PUSH2 0x7E3 JUMP JUMPDEST SWAP1 SWAP2 POP DUP2 SWAP1 PUSH2 0x7DA JUMP JUMPDEST PUSH4 0x4E487B71 PUSH1 0xE0 SHL PUSH1 0x0 MSTORE PUSH1 0x41 PUSH1 0x4 MSTORE PUSH1 0x24 PUSH1 0x0 REVERT JUMPDEST ADD MLOAD SWAP1 POP DUP13 DUP1 PUSH2 0x5EC JUMP JUMPDEST PUSH1 0x0 DUP6 DUP2 MSTORE DUP3 DUP2 KECCAK256 SWAP4 POP PUSH1 0x1F NOT DUP6 AND SWAP1 JUMPDEST DUP2 DUP2 LT PUSH2 0x874 JUMPI POP SWAP1 DUP5 PUSH1 0x1 SWAP6 SWAP5 SWAP4 SWAP3 LT PUSH2 0x85B JUMPI JUMPDEST POP POP POP DUP2 SHL ADD SWAP1 SSTORE PUSH2 0x601 JUMP JUMPDEST ADD MLOAD PUSH1 0x0 NOT PUSH1 0xF8 DUP5 PUSH1 0x3 SHL AND SHR NOT AND SWAP1 SSTORE DUP13 DUP1 DUP1 PUSH2 0x84E JUMP JUMPDEST SWAP3 SWAP4 PUSH1 0x20 PUSH1 0x1 DUP2 SWAP3 DUP8 DUP7 ADD MLOAD DUP2 SSTORE ADD SWAP6 ADD SWAP4 ADD PUSH2 0x838 JUMP JUMPDEST SWAP1 SWAP2 POP DUP4 PUSH1 0x0 MSTORE PUSH1 0x20 PUSH1 0x0 KECCAK256 PUSH1 0x1F DUP5 ADD PUSH1 0x5 SHR DUP2 ADD SWAP2 PUSH1 0x20 DUP6 LT PUSH2 0x8D5 JUMPI JUMPDEST SWAP1 PUSH1 0x1F DUP6 SWAP5 SWAP4 SWAP3 ADD PUSH1 0x5 SHR ADD SWAP1 JUMPDEST DUP2 DUP2 LT PUSH2 0x8C6 JUMPI POP PUSH2 0x5D5 JUMP JUMPDEST PUSH1 0x0 DUP2 SSTORE DUP5 SWAP4 POP PUSH1 0x1 ADD PUSH2 0x8B9 JUMP JUMPDEST SWAP1 SWAP2 POP DUP2 SWAP1 PUSH2 0x8AB JUMP JUMPDEST PUSH4 0x4E487B71 PUSH1 0xE0 SHL PUSH1 0x0 MSTORE PUSH1 0x11 PUSH1 0x4 MSTORE PUSH1 0x24 PUSH1 0x0 REVERT JUMPDEST PUSH1 0x40 MLOAD PUSH3 0x461BCD PUSH1 0xE5 SHL DUP2 MSTORE PUSH1 0x20 PUSH1 0x4 DUP3 ADD MSTORE PUSH1 0x27 PUSH1 0x24 DUP3 ADD MSTORE PUSH32 0x50726F64756374207072696365206D7573742062652067726561746572207468 PUSH1 0x44 DUP3 ADD MSTORE PUSH7 0x616E207A65726F PUSH1 0xC8 SHL PUSH1 0x64 DUP3 ADD MSTORE PUSH1 0x84 SWAP1 REVERT JUMPDEST PUSH1 0x40 MLOAD PUSH3 0x461BCD PUSH1 0xE5 SHL DUP2 MSTORE PUSH1 0x20 PUSH1 0x4 DUP3 ADD MSTORE PUSH1 0x1D PUSH1 0x24 DUP3 ADD MSTORE PUSH32 0x50726F6475637420696D6167652055524C206973207265717569726564000000 PUSH1 0x44 DUP3 ADD MSTORE PUSH1 0x64 SWAP1 REVERT JUMPDEST PUSH1 0x40 MLOAD PUSH3 0x461BCD PUSH1 0xE5 SHL DUP2 MSTORE PUSH1 0x20 PUSH1 0x4 DUP3 ADD MSTORE PUSH1 0x18 PUSH1 0x24 DUP3 ADD MSTORE PUSH32 0x50726F64756374206E616D652069732072657175697265640000000000000000 PUSH1 0x44 DUP3 ADD MSTORE PUSH1 0x64 SWAP1 REVERT JUMPDEST CALLVALUE PUSH2 0x15C JUMPI PUSH1 0x0 CALLDATASIZE PUSH1 0x3 NOT ADD SLT PUSH2 0x15C JUMPI PUSH1 0x20 PUSH1 0x4 SLOAD PUSH1 0x40 MLOAD SWAP1 DUP2 MSTORE RETURN JUMPDEST CALLVALUE PUSH2 0x15C JUMPI PUSH1 0x0 CALLDATASIZE PUSH1 0x3 NOT ADD SLT PUSH2 0x15C JUMPI PUSH1 0x0 SLOAD PUSH1 0x40 MLOAD PUSH1 0x1 PUSH1 0x1 PUSH1 0xA0 SHL SUB SWAP1 SWAP2 AND DUP2 MSTORE PUSH1 0x20 SWAP1 RETURN JUMPDEST CALLVALUE PUSH2 0x15C JUMPI PUSH1 0x20 CALLDATASIZE PUSH1 0x3 NOT ADD SLT PUSH2 0x15C JUMPI PUSH1 0x4 CALLDATALOAD PUSH1 0x0 DUP2 DUP2 MSTORE PUSH1 0x3 PUSH1 0x20 MSTORE PUSH1 0x40 SWAP1 KECCAK256 PUSH1 0x5 DUP2 ADD DUP1 SLOAD SWAP1 SWAP2 SWAP1 PUSH1 0x1 PUSH1 0x1 PUSH1 0xA0 SHL SUB AND CALLER SUB PUSH2 0xB43 JUMPI PUSH2 0xAC3 SWAP2 PUSH1 0x3 DUP3 ADD SWAP4 DUP5 SLOAD SWAP2 PUSH2 0xA75 PUSH2 0x1F4 PUSH1 0x64 PUSH2 0x1EC PUSH1 0x4 SLOAD DUP8 PUSH2 0x12F0 JUMP JUMPDEST PUSH1 0x7 SSTORE PUSH1 0x1 SLOAD PUSH1 0x4 DUP6 DUP2 ADD DUP1 SLOAD PUSH1 0x40 MLOAD PUSH4 0xA9059CBB PUSH1 0xE0 SHL DUP2 MSTORE PUSH1 0x1 PUSH1 0x1 PUSH1 0xA0 SHL SUB SWAP2 DUP3 AND SWAP4 DUP2 ADD SWAP4 SWAP1 SWAP4 MSTORE PUSH1 0x24 DUP4 ADD SWAP7 SWAP1 SWAP7 MSTORE SWAP1 SWAP7 SWAP1 SWAP5 PUSH1 0x20 SWAP3 DUP9 SWAP3 SWAP2 AND SWAP1 DUP3 SWAP1 PUSH1 0x0 SWAP1 DUP3 SWAP1 PUSH1 0x44 DUP3 ADD SWAP1 JUMP JUMPDEST SUB SWAP3 GAS CALL SWAP3 DUP4 ISZERO PUSH2 0x2F7 JUMPI PUSH32 0x9620B27BE3795A0CE7111C8E7168631996E44DD6A5F7CC7234C970605378CCC8 SWAP7 PUSH1 0x1 SWAP7 PUSH2 0xB21 SWAP6 PUSH2 0xB26 JUMPI JUMPDEST POP SLOAD SWAP1 DUP7 DUP1 PUSH1 0xA0 SHL SUB SWAP1 SLOAD AND SWAP2 DUP7 DUP1 PUSH1 0xA0 SHL SUB SWAP1 SLOAD AND SWAP3 PUSH1 0x40 MLOAD SWAP7 DUP8 SWAP7 ADD SWAP1 DUP7 PUSH2 0x122A JUMP JUMPDEST SUB SWAP1 LOG1 STOP JUMPDEST PUSH2 0xB3E SWAP1 PUSH1 0x20 RETURNDATASIZE PUSH1 0x20 GT PUSH2 0x2F0 JUMPI PUSH2 0x2E3 DUP2 DUP4 PUSH2 0x10B4 JUMP JUMPDEST PUSH2 0xAFC JUMP JUMPDEST PUSH1 0x40 MLOAD PUSH3 0x461BCD PUSH1 0xE5 SHL DUP2 MSTORE PUSH1 0x20 PUSH1 0x4 DUP3 ADD MSTORE PUSH1 0x26 PUSH1 0x24 DUP3 ADD MSTORE PUSH32 0x4F6E6C79207468652062757965722063616E20636F6E6669726D207468652070 PUSH1 0x44 DUP3 ADD MSTORE PUSH6 0x185E5B595B9D PUSH1 0xD2 SHL PUSH1 0x64 DUP3 ADD MSTORE PUSH1 0x84 SWAP1 REVERT JUMPDEST CALLVALUE PUSH2 0x15C JUMPI PUSH1 0x20 CALLDATASIZE PUSH1 0x3 NOT ADD SLT PUSH2 0x15C JUMPI PUSH1 0x4 CALLDATALOAD PUSH1 0x0 MSTORE PUSH1 0x3 PUSH1 0x20 MSTORE PUSH1 0x40 PUSH1 0x0 KECCAK256 DUP1 SLOAD PUSH2 0xBC6 PUSH1 0x1 DUP4 ADD PUSH2 0x10D6 JUMP JUMPDEST SWAP2 PUSH2 0xBD3 PUSH1 0x2 DUP3 ADD PUSH2 0x10D6 JUMP JUMPDEST PUSH1 0xFF PUSH1 0x3 DUP4 ADD SLOAD SWAP3 PUSH2 0xC1C PUSH1 0x4 DUP3 ADD SLOAD SWAP2 PUSH1 0x5 PUSH1 0x1 DUP1 PUSH1 0xA0 SHL SUB SWAP2 ADD SLOAD AND SWAP4 PUSH2 0xC0E PUSH1 0x40 MLOAD SWAP9 DUP10 SWAP9 DUP10 MSTORE PUSH1 0xE0 PUSH1 0x20 DUP11 ADD MSTORE PUSH1 0xE0 DUP10 ADD SWAP1 PUSH2 0x117A JUMP JUMPDEST SWAP1 DUP8 DUP3 SUB PUSH1 0x40 DUP10 ADD MSTORE PUSH2 0x117A JUMP JUMPDEST SWAP4 PUSH1 0x60 DUP7 ADD MSTORE PUSH1 0x1 DUP1 PUSH1 0xA0 SHL SUB DUP2 AND PUSH1 0x80 DUP7 ADD MSTORE PUSH1 0xA0 SHR AND ISZERO ISZERO PUSH1 0xA0 DUP5 ADD MSTORE PUSH1 0xC0 DUP4 ADD MSTORE SUB SWAP1 RETURN JUMPDEST CALLVALUE PUSH2 0x15C JUMPI PUSH1 0x0 CALLDATASIZE PUSH1 0x3 NOT ADD SLT PUSH2 0x15C JUMPI PUSH2 0xC5D PUSH2 0x131D JUMP JUMPDEST PUSH1 0x0 DUP1 SLOAD PUSH1 0x1 PUSH1 0x1 PUSH1 0xA0 SHL SUB NOT DUP2 AND DUP3 SSTORE PUSH1 0x1 PUSH1 0x1 PUSH1 0xA0 SHL SUB AND PUSH32 0x8BE0079C531659141344CD1FD0A4F28419497F9722A3DAAFE3B4186F6B6457E0 DUP3 DUP1 LOG3 STOP JUMPDEST CALLVALUE PUSH2 0x15C JUMPI PUSH1 0x0 CALLDATASIZE PUSH1 0x3 NOT ADD SLT PUSH2 0x15C JUMPI PUSH1 0x20 PUSH1 0x7 SLOAD PUSH1 0x40 MLOAD SWAP1 DUP2 MSTORE RETURN JUMPDEST CALLVALUE PUSH2 0x15C JUMPI PUSH1 0x0 CALLDATASIZE PUSH1 0x3 NOT ADD SLT PUSH2 0x15C JUMPI PUSH1 0x20 PUSH1 0x6 SLOAD PUSH1 0x40 MLOAD SWAP1 DUP2 MSTORE RETURN JUMPDEST CALLVALUE PUSH2 0x15C JUMPI PUSH1 0x0 CALLDATASIZE PUSH1 0x3 NOT ADD SLT PUSH2 0x15C JUMPI PUSH2 0xCF2 PUSH2 0x131D JUMP JUMPDEST PUSH1 0x1 SLOAD PUSH1 0x0 DUP1 SLOAD PUSH1 0x7 SLOAD PUSH1 0x40 MLOAD PUSH4 0xA9059CBB PUSH1 0xE0 SHL DUP2 MSTORE PUSH1 0x1 PUSH1 0x1 PUSH1 0xA0 SHL SUB SWAP3 DUP4 AND PUSH1 0x4 DUP3 ADD MSTORE PUSH1 0x24 DUP2 ADD SWAP2 SWAP1 SWAP2 MSTORE SWAP3 PUSH1 0x20 SWAP3 DUP5 SWAP3 PUSH1 0x44 SWAP3 DUP5 SWAP3 SWAP2 AND GAS CALL DUP1 ISZERO PUSH2 0x2F7 JUMPI PUSH2 0xD42 JUMPI JUMPDEST PUSH1 0x0 PUSH1 0x7 SSTORE STOP JUMPDEST PUSH2 0xD5A SWAP1 PUSH1 0x20 RETURNDATASIZE PUSH1 0x20 GT PUSH2 0x2F0 JUMPI PUSH2 0x2E3 DUP2 DUP4 PUSH2 0x10B4 JUMP JUMPDEST PUSH2 0xD3B JUMP JUMPDEST CALLVALUE PUSH2 0x15C JUMPI PUSH1 0x20 CALLDATASIZE PUSH1 0x3 NOT ADD SLT PUSH2 0x15C JUMPI PUSH1 0x4 CALLDATALOAD DUP1 PUSH1 0x0 MSTORE PUSH1 0x3 PUSH1 0x20 MSTORE PUSH1 0x40 PUSH1 0x0 KECCAK256 PUSH1 0x4 DUP2 ADD SWAP2 DUP3 SLOAD SWAP3 PUSH1 0x1 DUP1 PUSH1 0xA0 SHL SUB DUP5 AND SWAP3 DUP1 SLOAD DUP1 ISZERO ISZERO SWAP1 DUP2 PUSH2 0x1036 JUMPI JUMPDEST POP ISZERO PUSH2 0xFF8 JUMPI PUSH1 0x3 DUP2 ADD SWAP2 PUSH1 0x44 DUP4 SLOAD PUSH1 0x20 PUSH1 0x1 DUP1 PUSH1 0xA0 SHL SUB PUSH1 0x1 SLOAD AND PUSH1 0x40 MLOAD SWAP4 DUP5 DUP1 SWAP3 PUSH4 0x6EB1769F PUSH1 0xE1 SHL DUP3 MSTORE CALLER PUSH1 0x4 DUP4 ADD MSTORE ADDRESS PUSH1 0x24 DUP4 ADD MSTORE GAS STATICCALL SWAP2 DUP3 ISZERO PUSH2 0x2F7 JUMPI PUSH1 0x0 SWAP3 PUSH2 0xFC4 JUMPI JUMPDEST POP GT PUSH2 0xF64 JUMPI PUSH1 0xFF DUP7 PUSH1 0xA0 SHR AND PUSH2 0xF1F JUMPI CALLER DUP6 EQ PUSH2 0xECE JUMPI PUSH1 0xFF PUSH1 0xA0 SHL NOT SWAP1 SWAP6 AND PUSH1 0x1 PUSH1 0xA0 SHL OR SWAP1 SWAP5 SSTORE PUSH1 0x5 DUP5 ADD DUP1 SLOAD PUSH1 0x1 PUSH1 0x1 PUSH1 0xA0 SHL SUB NOT AND CALLER SWAP1 DUP2 OR SWAP1 SWAP2 SSTORE PUSH1 0x1 SLOAD DUP3 SLOAD PUSH1 0x40 MLOAD PUSH4 0x23B872DD PUSH1 0xE0 SHL DUP2 MSTORE PUSH1 0x4 DUP2 ADD SWAP4 SWAP1 SWAP4 MSTORE ADDRESS PUSH1 0x24 DUP5 ADD MSTORE PUSH1 0x44 DUP4 ADD MSTORE SWAP1 SWAP5 SWAP1 PUSH1 0x20 SWAP1 DUP7 SWAP1 PUSH1 0x64 SWAP1 DUP3 SWAP1 PUSH1 0x0 SWAP1 PUSH1 0x1 PUSH1 0x1 PUSH1 0xA0 SHL SUB AND GAS CALL SWAP2 DUP3 ISZERO PUSH2 0x2F7 JUMPI PUSH32 0x64F41258F3D51A589CEA8504D1F51403F46583535A3E84E2CBE3F8D50674D00B SWAP6 PUSH2 0xB21 SWAP4 PUSH2 0xEB1 JUMPI JUMPDEST POP SLOAD SWAP4 PUSH1 0x40 MLOAD SWAP5 DUP6 SWAP5 PUSH1 0x1 CALLER SWAP5 ADD SWAP1 DUP7 PUSH2 0x122A JUMP JUMPDEST PUSH2 0xEC9 SWAP1 PUSH1 0x20 RETURNDATASIZE PUSH1 0x20 GT PUSH2 0x2F0 JUMPI PUSH2 0x2E3 DUP2 DUP4 PUSH2 0x10B4 JUMP JUMPDEST PUSH2 0xE9C JUMP JUMPDEST PUSH1 0x40 MLOAD PUSH3 0x461BCD PUSH1 0xE5 SHL DUP2 MSTORE PUSH1 0x20 PUSH1 0x4 DUP3 ADD MSTORE PUSH1 0x23 PUSH1 0x24 DUP3 ADD MSTORE PUSH32 0x53656C6C65722063616E6E6F7420627579207468656972206F776E2070726F64 PUSH1 0x44 DUP3 ADD MSTORE PUSH3 0x1D58DD PUSH1 0xEA SHL PUSH1 0x64 DUP3 ADD MSTORE PUSH1 0x84 SWAP1 REVERT JUMPDEST PUSH1 0x40 MLOAD PUSH3 0x461BCD PUSH1 0xE5 SHL DUP2 MSTORE PUSH1 0x20 PUSH1 0x4 DUP3 ADD MSTORE PUSH1 0x17 PUSH1 0x24 DUP3 ADD MSTORE PUSH32 0x50726F6475637420697320616C726561647920736F6C64000000000000000000 PUSH1 0x44 DUP3 ADD MSTORE PUSH1 0x64 SWAP1 REVERT JUMPDEST PUSH1 0x40 MLOAD PUSH3 0x461BCD PUSH1 0xE5 SHL DUP2 MSTORE PUSH1 0x20 PUSH1 0x4 DUP3 ADD MSTORE PUSH1 0x32 PUSH1 0x24 DUP3 ADD MSTORE PUSH32 0x4E6F7420656E6F756768205553445420616C6C6F77616E636520746F20707572 PUSH1 0x44 DUP3 ADD MSTORE PUSH18 0x18DA185CD9481D1A1A5CC81C1C9BD91D58DD PUSH1 0x72 SHL PUSH1 0x64 DUP3 ADD MSTORE PUSH1 0x84 SWAP1 REVERT JUMPDEST SWAP1 SWAP2 POP PUSH1 0x20 DUP2 RETURNDATASIZE PUSH1 0x20 GT PUSH2 0xFF0 JUMPI JUMPDEST DUP2 PUSH2 0xFE0 PUSH1 0x20 SWAP4 DUP4 PUSH2 0x10B4 JUMP JUMPDEST DUP2 ADD SUB SLT PUSH2 0x15C JUMPI MLOAD SWAP1 DUP9 PUSH2 0xDE9 JUMP JUMPDEST RETURNDATASIZE SWAP2 POP PUSH2 0xFD3 JUMP JUMPDEST PUSH1 0x40 MLOAD PUSH3 0x461BCD PUSH1 0xE5 SHL DUP2 MSTORE PUSH1 0x20 PUSH1 0x4 DUP3 ADD MSTORE PUSH1 0x16 PUSH1 0x24 DUP3 ADD MSTORE PUSH22 0x141C9BD91D58DD08191BD95CC81B9BDD08195E1A5CDD PUSH1 0x52 SHL PUSH1 0x44 DUP3 ADD MSTORE PUSH1 0x64 SWAP1 REVERT JUMPDEST SWAP1 POP PUSH1 0x2 SLOAD LT ISZERO DUP7 PUSH2 0xD9F JUMP JUMPDEST CALLVALUE PUSH2 0x15C JUMPI PUSH1 0x0 CALLDATASIZE PUSH1 0x3 NOT ADD SLT PUSH2 0x15C JUMPI PUSH1 0x20 SWAP1 PUSH1 0x5 SLOAD DUP2 MSTORE RETURN JUMPDEST SWAP1 PUSH1 0x1 DUP3 DUP2 SHR SWAP3 AND DUP1 ISZERO PUSH2 0x108E JUMPI JUMPDEST PUSH1 0x20 DUP4 LT EQ PUSH2 0x1078 JUMPI JUMP JUMPDEST PUSH4 0x4E487B71 PUSH1 0xE0 SHL PUSH1 0x0 MSTORE PUSH1 0x22 PUSH1 0x4 MSTORE PUSH1 0x24 PUSH1 0x0 REVERT JUMPDEST SWAP2 PUSH1 0x7F AND SWAP2 PUSH2 0x106D JUMP JUMPDEST PUSH1 0xE0 DUP2 ADD SWAP1 DUP2 LT PUSH8 0xFFFFFFFFFFFFFFFF DUP3 GT OR PUSH2 0x806 JUMPI PUSH1 0x40 MSTORE JUMP JUMPDEST SWAP1 PUSH1 0x1F DUP1 NOT SWAP2 ADD AND DUP2 ADD SWAP1 DUP2 LT PUSH8 0xFFFFFFFFFFFFFFFF DUP3 GT OR PUSH2 0x806 JUMPI PUSH1 0x40 MSTORE JUMP JUMPDEST SWAP1 PUSH1 0x40 MLOAD SWAP2 DUP3 PUSH1 0x0 DUP3 SLOAD SWAP3 PUSH2 0x10EA DUP5 PUSH2 0x105E JUMP JUMPDEST DUP1 DUP5 MSTORE SWAP4 PUSH1 0x1 DUP2 AND SWAP1 DUP2 ISZERO PUSH2 0x1158 JUMPI POP PUSH1 0x1 EQ PUSH2 0x1111 JUMPI JUMPDEST POP PUSH2 0x110F SWAP3 POP SUB DUP4 PUSH2 0x10B4 JUMP JUMPDEST JUMP JUMPDEST SWAP1 POP PUSH1 0x0 SWAP3 SWAP2 SWAP3 MSTORE PUSH1 0x20 PUSH1 0x0 KECCAK256 SWAP1 PUSH1 0x0 SWAP2 JUMPDEST DUP2 DUP4 LT PUSH2 0x113C JUMPI POP POP SWAP1 PUSH1 0x20 PUSH2 0x110F SWAP3 DUP3 ADD ADD CODESIZE PUSH2 0x1102 JUMP JUMPDEST PUSH1 0x20 SWAP2 SWAP4 POP DUP1 PUSH1 0x1 SWAP2 SLOAD DUP4 DUP6 DUP10 ADD ADD MSTORE ADD SWAP2 ADD SWAP1 SWAP2 DUP5 SWAP3 PUSH2 0x1123 JUMP JUMPDEST SWAP1 POP PUSH1 0x20 SWAP3 POP PUSH2 0x110F SWAP5 SWAP2 POP PUSH1 0xFF NOT AND DUP3 DUP5 ADD MSTORE ISZERO ISZERO PUSH1 0x5 SHL DUP3 ADD ADD CODESIZE PUSH2 0x1102 JUMP JUMPDEST SWAP2 SWAP1 DUP3 MLOAD SWAP3 DUP4 DUP3 MSTORE PUSH1 0x0 JUMPDEST DUP5 DUP2 LT PUSH2 0x11A6 JUMPI POP POP DUP3 PUSH1 0x0 PUSH1 0x20 DUP1 SWAP5 SWAP6 DUP5 ADD ADD MSTORE PUSH1 0x1F DUP1 NOT SWAP2 ADD AND ADD ADD SWAP1 JUMP JUMPDEST DUP1 PUSH1 0x20 DUP1 SWAP3 DUP5 ADD ADD MLOAD DUP3 DUP3 DUP7 ADD ADD MSTORE ADD PUSH2 0x1185 JUMP JUMPDEST DUP2 PUSH1 0x1F DUP3 ADD SLT ISZERO PUSH2 0x15C JUMPI DUP1 CALLDATALOAD SWAP1 PUSH8 0xFFFFFFFFFFFFFFFF DUP3 GT PUSH2 0x806 JUMPI PUSH1 0x40 MLOAD SWAP3 PUSH2 0x11F0 PUSH1 0x1F DUP5 ADD PUSH1 0x1F NOT AND PUSH1 0x20 ADD DUP6 PUSH2 0x10B4 JUMP JUMPDEST DUP3 DUP5 MSTORE PUSH1 0x20 DUP4 DUP4 ADD ADD GT PUSH2 0x15C JUMPI DUP2 PUSH1 0x0 SWAP3 PUSH1 0x20 DUP1 SWAP4 ADD DUP4 DUP7 ADD CALLDATACOPY DUP4 ADD ADD MSTORE SWAP1 JUMP JUMPDEST SWAP1 DUP2 PUSH1 0x20 SWAP2 SUB SLT PUSH2 0x15C JUMPI MLOAD DUP1 ISZERO ISZERO DUP2 SUB PUSH2 0x15C JUMPI SWAP1 JUMP JUMPDEST SWAP4 SWAP2 SWAP1 SWAP6 SWAP5 SWAP3 SWAP6 DUP5 MSTORE PUSH1 0xC0 PUSH1 0x20 DUP6 ADD MSTORE PUSH1 0x0 SWAP1 DUP1 SLOAD SWAP1 PUSH2 0x1249 DUP3 PUSH2 0x105E JUMP JUMPDEST SWAP2 DUP3 PUSH1 0xC0 DUP9 ADD MSTORE PUSH1 0x1 DUP2 AND SWAP1 DUP2 PUSH1 0x0 EQ PUSH2 0x12CA JUMPI POP PUSH1 0x1 EQ PUSH2 0x1290 JUMPI JUMPDEST POP POP PUSH1 0x40 DUP5 ADD SWAP6 SWAP1 SWAP6 MSTORE PUSH1 0x1 PUSH1 0x1 PUSH1 0xA0 SHL SUB SWAP1 DUP2 AND PUSH1 0x60 DUP5 ADD MSTORE AND PUSH1 0x80 DUP3 ADD MSTORE PUSH1 0x1 PUSH1 0xA0 SWAP1 SWAP2 ADD MSTORE JUMP JUMPDEST PUSH1 0x0 SWAP1 DUP2 MSTORE PUSH1 0x20 DUP2 KECCAK256 SWAP1 SWAP3 POP JUMPDEST DUP2 DUP4 LT PUSH2 0x12B3 JUMPI POP POP DUP4 ADD PUSH1 0xE0 ADD DUP2 PUSH1 0xA0 PUSH2 0x1266 JUMP JUMPDEST DUP1 SLOAD PUSH1 0xE0 DUP5 DUP9 ADD ADD MSTORE PUSH1 0x20 SWAP1 SWAP3 ADD SWAP2 PUSH1 0x1 ADD PUSH2 0x129D JUMP JUMPDEST PUSH1 0xFF NOT AND PUSH1 0xE0 DUP9 DUP2 ADD SWAP2 SWAP1 SWAP2 MSTORE SWAP3 ISZERO ISZERO PUSH1 0x5 SHL DUP8 ADD SWAP1 SWAP3 ADD SWAP3 POP DUP4 SWAP2 POP PUSH1 0xA0 SWAP1 POP PUSH2 0x1266 JUMP JUMPDEST DUP2 DUP2 MUL SWAP3 SWAP2 DUP2 ISZERO SWAP2 DUP5 DIV EQ OR ISZERO PUSH2 0x8DF JUMPI JUMP JUMPDEST SWAP2 SWAP1 DUP3 SUB SWAP2 DUP3 GT PUSH2 0x8DF JUMPI JUMP JUMPDEST SWAP2 SWAP1 DUP3 ADD DUP1 SWAP3 GT PUSH2 0x8DF JUMPI JUMP JUMPDEST PUSH1 0x0 SLOAD PUSH1 0x1 PUSH1 0x1 PUSH1 0xA0 SHL SUB AND CALLER SUB PUSH2 0x1331 JUMPI JUMP JUMPDEST PUSH4 0x118CDAA7 PUSH1 0xE0 SHL PUSH1 0x0 MSTORE CALLER PUSH1 0x4 MSTORE PUSH1 0x24 PUSH1 0x0 REVERT INVALID LOG2 PUSH5 0x6970667358 0x22 SLT KECCAK256 0xEF PUSH19 0x7E76743F2017A08E46976610CBFA4AA8C99AC5 DUP1 0xC2 0xE6 0xD6 0xD6 0xC6 SGT SHL 0x4D 0xBE 0xC9 PUSH5 0x736F6C6343 STOP ADDMOD SHR STOP CALLER "
        },
        "methodIdentifiers": {
          "cancelPurchase(uint256)": "c3634ddc",
          "cancellationPenaltyPercentage()": "5e00d856",
          "confirmPayment(uint256)": "876ca09f",
          "createProduct(string,string,uint256)": "a1422209",
          "feePercentage()": "a001ecdd",
          "getProduct(uint256)": "b9db15b4",
          "owner()": "8da5cb5b",
          "penaltyPercentage()": "15908d51",
          "productCount()": "e0f6ef87",
          "products(uint256)": "7acc0b20",
          "purchaseProduct(uint256)": "38e76a03",
          "renounceOwnership()": "715018a6",
          "totalFeesCollected()": "60c6d8ae",
          "transferOwnership(address)": "f2fde38b",
          "usdtToken()": "a98ad46c",
          "withdrawFees()": "476343ee"
        }
      }
    }
  }
}